{
	"Verfiy.sol": {
		"Verify": {
			"abi": [
				{
					"anonymous": false,
					"inputs": [
						{
							"indexed": false,
							"internalType": "bytes",
							"name": "",
							"type": "bytes"
						}
					],
					"name": "Message",
					"type": "event"
				},
				{
					"inputs": [
						{
							"internalType": "bytes[]",
							"name": "g1s",
							"type": "bytes[]"
						},
						{
							"internalType": "bytes[]",
							"name": "g2s",
							"type": "bytes[]"
						},
						{
							"internalType": "bytes",
							"name": "gtau",
							"type": "bytes"
						}
					],
					"name": "Check",
					"outputs": [
						{
							"internalType": "bool",
							"name": "",
							"type": "bool"
						}
					],
					"stateMutability": "nonpayable",
					"type": "function"
				},
				{
					"inputs": [
						{
							"internalType": "bytes",
							"name": "g1s",
							"type": "bytes"
						},
						{
							"internalType": "bytes[]",
							"name": "g2s",
							"type": "bytes[]"
						},
						{
							"internalType": "uint256",
							"name": "index",
							"type": "uint256"
						}
					],
					"name": "CheckKey",
					"outputs": [
						{
							"internalType": "bool",
							"name": "",
							"type": "bool"
						}
					],
					"stateMutability": "nonpayable",
					"type": "function"
				},
				{
					"inputs": [
						{
							"internalType": "bytes",
							"name": "g1s",
							"type": "bytes"
						},
						{
							"internalType": "bytes[]",
							"name": "g2s",
							"type": "bytes[]"
						},
						{
							"internalType": "uint256",
							"name": "index",
							"type": "uint256"
						}
					],
					"name": "CheckKeyDBE",
					"outputs": [
						{
							"internalType": "bool",
							"name": "",
							"type": "bool"
						}
					],
					"stateMutability": "nonpayable",
					"type": "function"
				},
				{
					"inputs": [
						{
							"internalType": "bytes[]",
							"name": "g1s",
							"type": "bytes[]"
						},
						{
							"internalType": "bytes[]",
							"name": "g2s",
							"type": "bytes[]"
						},
						{
							"internalType": "bytes",
							"name": "pi1",
							"type": "bytes"
						},
						{
							"internalType": "uint256",
							"name": "pi2",
							"type": "uint256"
						}
					],
					"name": "CheckTest",
					"outputs": [
						{
							"internalType": "bool",
							"name": "",
							"type": "bool"
						}
					],
					"stateMutability": "nonpayable",
					"type": "function"
				},
				{
					"inputs": [
						{
							"internalType": "bytes",
							"name": "p1",
							"type": "bytes"
						},
						{
							"internalType": "bytes",
							"name": "p2",
							"type": "bytes"
						},
						{
							"internalType": "bytes",
							"name": "p3",
							"type": "bytes"
						},
						{
							"internalType": "bytes",
							"name": "p4",
							"type": "bytes"
						}
					],
					"name": "EqualPairingCheck",
					"outputs": [
						{
							"internalType": "bool",
							"name": "",
							"type": "bool"
						}
					],
					"stateMutability": "view",
					"type": "function"
				},
				{
					"inputs": [
						{
							"internalType": "bytes",
							"name": "p1",
							"type": "bytes"
						},
						{
							"internalType": "bytes",
							"name": "p2",
							"type": "bytes"
						}
					],
					"name": "G1Add",
					"outputs": [
						{
							"internalType": "bytes",
							"name": "point",
							"type": "bytes"
						}
					],
					"stateMutability": "view",
					"type": "function"
				},
				{
					"inputs": [
						{
							"internalType": "bytes",
							"name": "p1",
							"type": "bytes"
						},
						{
							"internalType": "uint256",
							"name": "scalar",
							"type": "uint256"
						}
					],
					"name": "G1Mul",
					"outputs": [
						{
							"internalType": "bytes",
							"name": "point",
							"type": "bytes"
						}
					],
					"stateMutability": "view",
					"type": "function"
				},
				{
					"inputs": [
						{
							"internalType": "bytes",
							"name": "d",
							"type": "bytes"
						}
					],
					"name": "G1Muls",
					"outputs": [
						{
							"internalType": "bytes",
							"name": "point",
							"type": "bytes"
						}
					],
					"stateMutability": "view",
					"type": "function"
				},
				{
					"inputs": [
						{
							"internalType": "bytes",
							"name": "p1",
							"type": "bytes"
						},
						{
							"internalType": "bytes",
							"name": "p2",
							"type": "bytes"
						}
					],
					"name": "G2Add",
					"outputs": [
						{
							"internalType": "bytes",
							"name": "point",
							"type": "bytes"
						}
					],
					"stateMutability": "view",
					"type": "function"
				},
				{
					"inputs": [
						{
							"internalType": "bytes",
							"name": "p1",
							"type": "bytes"
						},
						{
							"internalType": "uint256",
							"name": "scalar",
							"type": "uint256"
						}
					],
					"name": "G2Mul",
					"outputs": [
						{
							"internalType": "bytes",
							"name": "point",
							"type": "bytes"
						}
					],
					"stateMutability": "view",
					"type": "function"
				},
				{
					"inputs": [
						{
							"internalType": "bytes",
							"name": "d",
							"type": "bytes"
						}
					],
					"name": "G2Muls",
					"outputs": [
						{
							"internalType": "bytes",
							"name": "point",
							"type": "bytes"
						}
					],
					"stateMutability": "view",
					"type": "function"
				},
				{
					"inputs": [
						{
							"internalType": "bytes",
							"name": "p1",
							"type": "bytes"
						},
						{
							"internalType": "bytes",
							"name": "p2",
							"type": "bytes"
						},
						{
							"internalType": "bytes",
							"name": "p3",
							"type": "bytes"
						},
						{
							"internalType": "bytes",
							"name": "p4",
							"type": "bytes"
						}
					],
					"name": "Pairing",
					"outputs": [
						{
							"internalType": "bool",
							"name": "",
							"type": "bool"
						}
					],
					"stateMutability": "view",
					"type": "function"
				},
				{
					"inputs": [
						{
							"internalType": "bytes",
							"name": "a",
							"type": "bytes"
						}
					],
					"name": "SendMessage",
					"outputs": [],
					"stateMutability": "nonpayable",
					"type": "function"
				},
				{
					"inputs": [
						{
							"internalType": "bytes[]",
							"name": "g1s",
							"type": "bytes[]"
						},
						{
							"internalType": "bytes[]",
							"name": "g2s",
							"type": "bytes[]"
						}
					],
					"name": "SetPP",
					"outputs": [],
					"stateMutability": "nonpayable",
					"type": "function"
				},
				{
					"inputs": [
						{
							"internalType": "bytes",
							"name": "x",
							"type": "bytes"
						}
					],
					"name": "ZeroCheck",
					"outputs": [
						{
							"internalType": "bool",
							"name": "ok",
							"type": "bool"
						}
					],
					"stateMutability": "pure",
					"type": "function"
				},
				{
					"inputs": [],
					"name": "lastg",
					"outputs": [
						{
							"internalType": "bytes",
							"name": "",
							"type": "bytes"
						}
					],
					"stateMutability": "view",
					"type": "function"
				},
				{
					"inputs": [
						{
							"internalType": "uint256",
							"name": "",
							"type": "uint256"
						}
					],
					"name": "ppg1s",
					"outputs": [
						{
							"internalType": "bytes",
							"name": "",
							"type": "bytes"
						}
					],
					"stateMutability": "view",
					"type": "function"
				},
				{
					"inputs": [
						{
							"internalType": "uint256",
							"name": "",
							"type": "uint256"
						}
					],
					"name": "ppg2s",
					"outputs": [
						{
							"internalType": "bytes",
							"name": "",
							"type": "bytes"
						}
					],
					"stateMutability": "view",
					"type": "function"
				},
				{
					"inputs": [],
					"name": "w",
					"outputs": [
						{
							"internalType": "bool",
							"name": "",
							"type": "bool"
						}
					],
					"stateMutability": "view",
					"type": "function"
				}
			],
			"devdoc": {
				"kind": "dev",
				"methods": {},
				"version": 1
			},
			"evm": {
				"assembly": "    /* \"Verfiy.sol\":26:13391  contract Verify {... */\n  0x80\n  jumpi(tag_1, callvalue)\n  0xa0\n  dup2\n  add\n  sub(shl(0x40, 0x01), 0x01)\n  dup2\n  gt\n  dup3\n  dup3\n  lt\n  or\n  tag_3\n  jumpi\n  0x40\n  mstore\n  0x80\n  dup2\n  mstore\n  0x17f1d3a73197d7942695638c4fa9ac0f\n  0x20\n  dup3\n  add\n  mstore\n  0xc3688c4f9774b905a14e3a3f171bac586c55e83ff97a1aeffb3af00adb22c6bb\n  0x40\n  dup3\n  add\n  mstore\n  0x08b3f481e3aaa0f1a09e30ed741d8ae4\n  0x60\n  dup3\n  add\n  mstore\n  0xfcf5e095d5d00af600db18cb2c04b3edd03cc744a2888ae40caa232946c5e7e1\n  0x80\n  dup3\n  add\n  mstore\n  0x00\n    /* \"Verfiy.sol\":279:540  hex\"0000000000000000000000000000000017f1d3a73197d7942695638c4fa9ac0fc3688c4f9774b905a14e3a3f171bac586c55e83ff97a1aeffb3af00adb22c6bb0000000000000000000000000000000008b3f481e3aaa0f1a09e30ed741d8ae4fcf5e095d5d00af600db18cb2c04b3edd03cc744a2888ae40caa232946c5e7e1\" */\n  sload\n  0x01\n  swap1\n  0x01\n  dup2\n  dup2\n  shr\n  swap2\n  and\n  dup1\n  iszero\n  tag_5\n  jumpi\ntag_6:\n    /* \"Verfiy.sol\":26:13391  contract Verify {... */\n  0x20\n    /* \"Verfiy.sol\":279:540  hex\"0000000000000000000000000000000017f1d3a73197d7942695638c4fa9ac0fc3688c4f9774b905a14e3a3f171bac586c55e83ff97a1aeffb3af00adb22c6bb0000000000000000000000000000000008b3f481e3aaa0f1a09e30ed741d8ae4fcf5e095d5d00af600db18cb2c04b3edd03cc744a2888ae40caa232946c5e7e1\" */\n  dup3\n  lt\n  eq\n  tag_7\n  jumpi\n    /* \"Verfiy.sol\":26:13391  contract Verify {... */\n  0x1f\n    /* \"Verfiy.sol\":279:540  hex\"0000000000000000000000000000000017f1d3a73197d7942695638c4fa9ac0fc3688c4f9774b905a14e3a3f171bac586c55e83ff97a1aeffb3af00adb22c6bb0000000000000000000000000000000008b3f481e3aaa0f1a09e30ed741d8ae4fcf5e095d5d00af600db18cb2c04b3edd03cc744a2888ae40caa232946c5e7e1\" */\n  dup2\n  gt\n  tag_9\n  jumpi\ntag_10:\n  pop\n  pop\n  0x00\n  dup1\n  dup1\n  mstore\n    /* \"Verfiy.sol\":26:13391  contract Verify {... */\n  0x20\n  mload(0x00)\n  codecopy(0x00, data_510e4e770828ddbf7f7b00ab00a9f6adaf81c0dc9cc85f1f8249c256942d61d9, 0x20)\n  mload(0x00)\n  swap1\n  0x00\n  mstore\n    /* \"Verfiy.sol\":279:540  hex\"0000000000000000000000000000000017f1d3a73197d7942695638c4fa9ac0fc3688c4f9774b905a14e3a3f171bac586c55e83ff97a1aeffb3af00adb22c6bb0000000000000000000000000000000008b3f481e3aaa0f1a09e30ed741d8ae4fcf5e095d5d00af600db18cb2c04b3edd03cc744a2888ae40caa232946c5e7e1\" */\ntag_11:\n    /* \"Verfiy.sol\":26:13391  contract Verify {... */\n  0x80\n    /* \"Verfiy.sol\":279:540  hex\"0000000000000000000000000000000017f1d3a73197d7942695638c4fa9ac0fc3688c4f9774b905a14e3a3f171bac586c55e83ff97a1aeffb3af00adb22c6bb0000000000000000000000000000000008b3f481e3aaa0f1a09e30ed741d8ae4fcf5e095d5d00af600db18cb2c04b3edd03cc744a2888ae40caa232946c5e7e1\" */\n  dup4\n  lt\n  tag_12\n  jumpi\n  sstore(0x00, 0x0101)\n  sstore(0x01, and(sload(0x01), not(0xff)))\n    /* \"Verfiy.sol\":26:13391  contract Verify {... */\n  mload(0x40)\n  dataSize(sub_0)\n  swap1\n  dup2\n  dataOffset(sub_0)\n  dup3\n  codecopy\n  return\n    /* \"Verfiy.sol\":279:540  hex\"0000000000000000000000000000000017f1d3a73197d7942695638c4fa9ac0fc3688c4f9774b905a14e3a3f171bac586c55e83ff97a1aeffb3af00adb22c6bb0000000000000000000000000000000008b3f481e3aaa0f1a09e30ed741d8ae4fcf5e095d5d00af600db18cb2c04b3edd03cc744a2888ae40caa232946c5e7e1\" */\ntag_12:\n    /* \"Verfiy.sol\":26:13391  contract Verify {... */\n  0x20\n    /* \"Verfiy.sol\":279:540  hex\"0000000000000000000000000000000017f1d3a73197d7942695638c4fa9ac0fc3688c4f9774b905a14e3a3f171bac586c55e83ff97a1aeffb3af00adb22c6bb0000000000000000000000000000000008b3f481e3aaa0f1a09e30ed741d8ae4fcf5e095d5d00af600db18cb2c04b3edd03cc744a2888ae40caa232946c5e7e1\" */\n  0x01\n  dup2\n  swap3\n  dup5\n  dup8\n  add\n  mload\n  dup2\n  sstore\n  add\n  swap3\n  add\n  swap3\n  add\n  swap2\n  swap1\n  jump(tag_11)\ntag_9:\n  0x00\n  dup1\n  mstore\n    /* \"Verfiy.sol\":26:13391  contract Verify {... */\n  0x1f\n    /* \"Verfiy.sol\":279:540  hex\"0000000000000000000000000000000017f1d3a73197d7942695638c4fa9ac0fc3688c4f9774b905a14e3a3f171bac586c55e83ff97a1aeffb3af00adb22c6bb0000000000000000000000000000000008b3f481e3aaa0f1a09e30ed741d8ae4fcf5e095d5d00af600db18cb2c04b3edd03cc744a2888ae40caa232946c5e7e1\" */\n  add\n  0x05\n  shr\n  mload(0x00)\n  codecopy(0x00, data_510e4e770828ddbf7f7b00ab00a9f6adaf81c0dc9cc85f1f8249c256942d61d9, 0x20)\n  mload(0x00)\n  swap1\n  0x00\n  mstore\n  add\n  0x290decd9548b62a8d60345a988386fc84ba6bc95484008f6362f93160ef3e567\ntag_14:\n  dup2\n  dup2\n  lt\n  tag_15\n  jumpi\n  pop\n  jump(tag_10)\ntag_15:\n  0x00\n  dup2\n  sstore\n  dup3\n  add\n  jump(tag_14)\ntag_7:\n    /* \"Verfiy.sol\":26:13391  contract Verify {... */\n  shl(0xe0, 0x4e487b71)\n  0x00\n    /* \"Verfiy.sol\":279:540  hex\"0000000000000000000000000000000017f1d3a73197d7942695638c4fa9ac0fc3688c4f9774b905a14e3a3f171bac586c55e83ff97a1aeffb3af00adb22c6bb0000000000000000000000000000000008b3f481e3aaa0f1a09e30ed741d8ae4fcf5e095d5d00af600db18cb2c04b3edd03cc744a2888ae40caa232946c5e7e1\" */\n  mstore\n  mstore(0x04, 0x22)\n  revert(0x00, 0x24)\ntag_5:\n  swap1\n  0x7f\n  and\n  swap1\n  jump(tag_6)\n    /* \"Verfiy.sol\":26:13391  contract Verify {... */\ntag_3:\n  mstore(0x00, shl(0xe0, 0x4e487b71))\n  mstore(0x04, 0x41)\n  revert(0x00, 0x24)\ntag_1:\n  0x00\n  dup1\n  revert\nstop\ndata_510e4e770828ddbf7f7b00ab00a9f6adaf81c0dc9cc85f1f8249c256942d61d9 290decd9548b62a8d60345a988386fc84ba6bc95484008f6362f93160ef3e563\n\nsub_0: assembly {\n        /* \"Verfiy.sol\":26:13391  contract Verify {... */\n      mstore(0x40, 0x80)\n      jumpi(tag_106, iszero(lt(calldatasize, 0x04)))\n      0x00\n      dup1\n      revert\n    tag_106:\n      shr(0xe0, calldataload(0x00))\n      dup1\n      0x06325239\n      eq\n      tag_108\n      jumpi\n      dup1\n      0x205c9cc7\n      eq\n      tag_110\n      jumpi\n      dup1\n      0x3f009c16\n      eq\n      tag_112\n      jumpi\n      dup1\n      0x4d919405\n      eq\n      tag_114\n      jumpi\n      dup1\n      0x51e54308\n      eq\n      tag_116\n      jumpi\n      dup1\n      0x54b57f70\n      eq\n      tag_118\n      jumpi\n      dup1\n      0x5cdc73ef\n      eq\n      tag_120\n      jumpi\n      dup1\n      0x6592041a\n      eq\n      tag_122\n      jumpi\n      dup1\n      0x69331a26\n      eq\n      tag_124\n      jumpi\n      dup1\n      0x6f18b669\n      eq\n      tag_126\n      jumpi\n      dup1\n      0x8a2ba01c\n      eq\n      tag_128\n      jumpi\n      dup1\n      0xa66339b7\n      eq\n      tag_130\n      jumpi\n      dup1\n      0xaf1d0bd9\n      eq\n      tag_132\n      jumpi\n      dup1\n      0xc1f2c915\n      eq\n      tag_134\n      jumpi\n      dup1\n      0xc588e555\n      eq\n      tag_136\n      jumpi\n      dup1\n      0xd6385d60\n      eq\n      tag_138\n      jumpi\n      dup1\n      0xe63c1828\n      eq\n      tag_140\n      jumpi\n      dup1\n      0xe6859b9a\n      eq\n      tag_142\n      jumpi\n      0xe86d06c7\n      eq\n      tag_144\n      jumpi\n      0x00\n      dup1\n      revert\n    tag_144:\n      tag_42\n      jump\t// in\n    tag_142:\n      tag_41\n      jump\t// in\n    tag_140:\n      tag_40\n      jump\t// in\n    tag_138:\n      tag_39\n      jump\t// in\n    tag_136:\n      tag_38\n      jump\t// in\n    tag_134:\n      tag_37\n      jump\t// in\n    tag_132:\n      tag_36\n      jump\t// in\n    tag_130:\n      tag_35\n      jump\t// in\n    tag_128:\n      tag_34\n      jump\t// in\n    tag_126:\n      tag_33\n      jump\t// in\n    tag_124:\n      tag_32\n      jump\t// in\n    tag_122:\n      tag_30\n      jump\t// in\n    tag_120:\n      tag_29\n      jump\t// in\n    tag_118:\n      tag_27\n      jump\t// in\n    tag_116:\n      tag_19\n      jump\t// in\n    tag_114:\n      tag_18\n      jump\t// in\n    tag_112:\n      tag_16\n      jump\t// in\n    tag_110:\n      tag_8\n      jump\t// in\n    tag_108:\n      tag_7\n      jump\t// in\n    tag_1:\n      swap2\n      dup2\n      0x1f\n      dup5\n      add\n      slt\n      iszero\n      tag_150\n      jumpi\n      dup3\n      calldataload\n      swap2\n      sub(shl(0x40, 0x01), 0x01)\n      dup4\n      gt\n      tag_150\n      jumpi\n      0x20\n      dup4\n      dup2\n      dup7\n      add\n      swap6\n      add\n      add\n      gt\n      tag_150\n      jumpi\n      jump\t// out\n    tag_150:\n      0x00\n      dup1\n      revert\n    tag_2:\n      swap2\n      dup2\n      0x1f\n      dup5\n      add\n      slt\n      iszero\n      tag_150\n      jumpi\n      dup3\n      calldataload\n      swap2\n      sub(shl(0x40, 0x01), 0x01)\n      dup4\n      gt\n      tag_150\n      jumpi\n      0x20\n      dup1\n      dup6\n      add\n      swap5\n      dup5\n      0x05\n      shl\n      add\n      add\n      gt\n      tag_150\n      jumpi\n      jump\t// out\n    tag_4:\n      0x60\n      not(0x03)\n      dup3\n      add\n      slt\n      tag_150\n      jumpi\n      calldataload(0x04)\n      sub(shl(0x40, 0x01), 0x01)\n      dup2\n      gt\n      tag_150\n      jumpi\n      dup2\n      tag_162\n      swap2\n      0x04\n      add\n      tag_1\n      jump\t// in\n    tag_162:\n      swap3\n      swap1\n      swap3\n      swap2\n      calldataload(0x24)\n      swap1\n      sub(shl(0x40, 0x01), 0x01)\n      dup3\n      gt\n      tag_150\n      jumpi\n      tag_165\n      swap2\n      0x04\n      add\n      tag_2\n      jump\t// in\n    tag_165:\n      swap1\n      swap2\n      calldataload(0x44)\n      swap1\n      jump\t// out\n    tag_7:\n      jumpi(tag_150, callvalue)\n      0x20\n      tag_168\n      tag_169\n      calldatasize\n      tag_4\n      jump\t// in\n    tag_169:\n      swap4\n      swap3\n      swap1\n      swap3\n      tag_55\n      jump\t// in\n    tag_168:\n      mload(0x40)\n      swap1\n      iszero\n      iszero\n      dup2\n      mstore\n      return\n    tag_8:\n      jumpi(tag_150, callvalue)\n      jumpi(tag_150, slt(add(not(0x03), calldatasize), 0x00))\n      0x20\n      0xff\n        /* \"Verfiy.sol\":7191:7211  bool public  w=false */\n      0x01\n        /* \"Verfiy.sol\":26:13391  contract Verify {... */\n      sload\n      and\n      mload(0x40)\n      swap1\n      iszero\n      iszero\n      dup2\n      mstore\n      return\n    tag_9:\n      mstore(0x00, shl(0xe0, 0x4e487b71))\n      mstore(0x04, 0x41)\n      revert(0x00, 0x24)\n    tag_10:\n      swap1\n      0x1f\n      dup1\n      not\n      swap2\n      add\n      and\n      dup2\n      add\n      swap1\n      dup2\n      lt\n      sub(shl(0x40, 0x01), 0x01)\n      dup3\n      gt\n      or\n      tag_174\n      jumpi\n      0x40\n      mstore\n      jump\t// out\n    tag_174:\n      tag_9\n      jump\t// in\n    tag_11:\n      sub(shl(0x40, 0x01), 0x01)\n      dup2\n      gt\n      tag_174\n      jumpi\n      0x1f\n      add\n      not(0x1f)\n      and\n      0x20\n      add\n      swap1\n      jump\t// out\n    tag_12:\n      swap3\n      swap2\n      swap3\n      tag_178\n      dup3\n      tag_11\n      jump\t// in\n    tag_178:\n      swap2\n      tag_179\n      mload(0x40)\n      swap4\n      dup5\n      tag_10\n      jump\t// in\n    tag_179:\n      dup3\n      swap5\n      dup2\n      dup5\n      mstore\n      dup2\n      dup4\n      add\n      gt\n      tag_150\n      jumpi\n      dup3\n      dup2\n      0x20\n      swap4\n      dup5\n      0x00\n      swap7\n      add\n      calldatacopy\n      add\n      add\n      mstore\n      jump\t// out\n    tag_13:\n      swap1\n      dup1\n      0x1f\n      dup4\n      add\n      slt\n      iszero\n      tag_150\n      jumpi\n      dup2\n      0x20\n      tag_184\n      swap4\n      calldataload\n      swap2\n      add\n      tag_12\n      jump\t// in\n    tag_184:\n      swap1\n      jump\t// out\n    tag_14:\n      0x20\n      not(0x03)\n      dup3\n      add\n      slt\n      tag_150\n      jumpi\n      calldataload(0x04)\n      swap1\n      sub(shl(0x40, 0x01), 0x01)\n      dup3\n      gt\n      tag_150\n      jumpi\n      tag_184\n      swap2\n      0x04\n      add\n      tag_13\n      jump\t// in\n    tag_15:\n      0x20\n      0x40\n      swap3\n      dup2\n      dup4\n      mstore\n      dup1\n      mload\n      swap2\n      dup3\n      swap2\n      dup3\n      dup3\n      dup7\n      add\n      mstore\n      add\n      dup5\n      dup5\n      add\n      mcopy\n      0x00\n      dup3\n      dup3\n      add\n      dup5\n      add\n      mstore\n      0x1f\n      add\n      not(0x1f)\n      and\n      add\n      add\n      swap1\n      jump\t// out\n    tag_16:\n      jumpi(tag_150, callvalue)\n      tag_192\n      tag_193\n      tag_194\n      calldatasize\n      tag_14\n      jump\t// in\n    tag_194:\n      tag_57\n      jump\t// in\n    tag_193:\n      mload(0x40)\n      swap2\n      dup3\n      swap2\n      dup3\n      tag_15\n      jump\t// in\n    tag_192:\n      sub\n      swap1\n      return\n    tag_17:\n      swap1\n      0x40\n      not(0x03)\n      dup4\n      add\n      slt\n      tag_150\n      jumpi\n      calldataload(0x04)\n      sub(shl(0x40, 0x01), 0x01)\n      dup2\n      gt\n      tag_150\n      jumpi\n      dup3\n      tag_199\n      swap2\n      0x04\n      add\n      tag_13\n      jump\t// in\n    tag_199:\n      swap2\n      calldataload(0x24)\n      swap1\n      sub(shl(0x40, 0x01), 0x01)\n      dup3\n      gt\n      tag_150\n      jumpi\n      tag_184\n      swap2\n      0x04\n      add\n      tag_13\n      jump\t// in\n    tag_18:\n      jumpi(tag_150, callvalue)\n      tag_192\n      tag_193\n      tag_207\n      calldatasize\n      tag_17\n      jump\t// in\n    tag_207:\n      swap1\n      tag_59\n      jump\t// in\n    tag_19:\n      jumpi(tag_150, callvalue)\n      tag_210\n      calldatasize\n      tag_4\n      jump\t// in\n    tag_210:\n      swap3\n      swap4\n      swap1\n      swap2\n        /* \"Verfiy.sol\":7709:7753  uint256(keccak256(abi.encode(g1s, g2s))) % q */\n      tag_211\n        /* \"Verfiy.sol\":26:13391  contract Verify {... */\n      mload(0x40)\n        /* \"Verfiy.sol\":7727:7747  abi.encode(g1s, g2s) */\n      0x20\n      dup2\n      add\n      swap1\n      tag_212\n      dup2\n      tag_213\n      dup9\n      dup8\n      dup13\n      dup11\n      dup9\n      tag_62\n      jump\t// in\n    tag_213:\n      sub\n        /* \"Verfiy.sol\":26:13391  contract Verify {... */\n      not(0x1f)\n        /* \"Verfiy.sol\":7727:7747  abi.encode(g1s, g2s) */\n      dup2\n      add\n      dup4\n      mstore\n      dup3\n      tag_10\n      jump\t// in\n    tag_212:\n        /* \"Verfiy.sol\":26:13391  contract Verify {... */\n      mload\n        /* \"Verfiy.sol\":7717:7748  keccak256(abi.encode(g1s, g2s)) */\n      swap1\n      keccak256\n      mload(0x00)\n      codecopy(0x00, data_3b2d02282c3edcbfc4f9664b53f75892ea03b8fe586039e3ee6fe41258ca9b0d, 0x20)\n      mload(0x00)\n      swap1\n      0x00\n      mstore\n        /* \"Verfiy.sol\":77:143  0x73eda753299d7d483339d80809a1d80553bda402fffe5bfeffffffff00000001 */\n      swap1\n      mod\n      swap1\n      jump\n        /* \"Verfiy.sol\":7709:7753  uint256(keccak256(abi.encode(g1s, g2s))) % q */\n    tag_211:\n        /* \"Verfiy.sol\":7798:7801  L-1 */\n      swap3\n        /* \"Verfiy.sol\":7783:7803  new bytes(288*(L-1)) */\n      tag_214\n        /* \"Verfiy.sol\":7793:7802  288*(L-1) */\n      tag_215\n        /* \"Verfiy.sol\":7798:7801  L-1 */\n      tag_216\n      dup4\n      tag_45\n      jump\t// in\n    tag_216:\n        /* \"Verfiy.sol\":7793:7802  288*(L-1) */\n      tag_64\n      jump\t// in\n    tag_215:\n        /* \"Verfiy.sol\":7783:7803  new bytes(288*(L-1)) */\n      tag_69\n      jump\t// in\n    tag_214:\n        /* \"Verfiy.sol\":7849:7852  L-1 */\n      swap6\n        /* \"Verfiy.sol\":7834:7854  new bytes(288*(L-1)) */\n      tag_217\n        /* \"Verfiy.sol\":7844:7853  288*(L-1) */\n      tag_215\n        /* \"Verfiy.sol\":7849:7852  L-1 */\n      tag_216\n      dup5\n      tag_45\n      jump\t// in\n        /* \"Verfiy.sol\":7834:7854  new bytes(288*(L-1)) */\n    tag_217:\n        /* \"Verfiy.sol\":7864:7883  uint256 temp1 = rho */\n      swap6\n      dup6\n        /* \"Verfiy.sol\":7893:7912  uint256 temp2 = rho */\n      swap2\n      dup7\n      0x00\n        /* \"Verfiy.sol\":7978:7989  uint256 i=0 */\n      swap7\n      dup11\n      0x00\n        /* \"Verfiy.sol\":7974:8362  for(uint256 i=0;i<=L-1;i++){... */\n      swap9\n        /* \"Verfiy.sol\":7997:8000  i++ */\n    tag_220:\n        /* \"Verfiy.sol\":7993:7996  L-1 */\n      tag_221\n      dup9\n      tag_45\n      jump\t// in\n    tag_221:\n        /* \"Verfiy.sol\":7990:7996  i<=L-1 */\n      dup11\n      gt\n      tag_222\n      jumpi\n        /* \"Verfiy.sol\":8021:8028  L-index */\n      swap1\n      dup11\n      swap2\n      dup11\n      dup10\n      dup12\n      tag_224\n      dup11\n      dup4\n      tag_48\n      jump\t// in\n    tag_224:\n        /* \"Verfiy.sol\":8018:8028  i==L-index */\n      dup4\n      eq\n        /* \"Verfiy.sol\":8015:8186  if(i==L-index){ //原本是    L+1-index，但是索引需要减去 1... */\n      tag_225\n      jumpi\n        /* \"Verfiy.sol\":8247:8253  k+=256 */\n      tag_227\n        /* \"Verfiy.sol\":8209:8215  g2s[i] */\n      dup5\n      tag_228\n        /* \"Verfiy.sol\":7997:8000  i++ */\n      tag_229\n        /* \"Verfiy.sol\":8209:8215  g2s[i] */\n      swap9\n      swap7\n      dup9\n      tag_230\n        /* \"Verfiy.sol\":8305:8310  k+=32 */\n      tag_231\n        /* \"Verfiy.sol\":8209:8215  g2s[i] */\n      swap9\n      mload(0x00)\n      codecopy(0x00, data_3b2d02282c3edcbfc4f9664b53f75892ea03b8fe586039e3ee6fe41258ca9b0d, 0x20)\n      mload(0x00)\n      swap1\n      0x00\n      mstore\n      swap12\n      swap9\n        /* \"Verfiy.sol\":8289:8290  k */\n      tag_232\n        /* \"Verfiy.sol\":8209:8215  g2s[i] */\n      swap9\n      tag_51\n      jump\t// in\n    tag_230:\n      pop\n      tag_102\n      jump\t// in\n    tag_228:\n        /* \"Verfiy.sol\":8247:8253  k+=256 */\n      tag_70\n      jump\t// in\n    tag_227:\n        /* \"Verfiy.sol\":10700:10756  assembly {... */\n      swap2\n      dup3\n      add\n      0x20\n      add\n      dup12\n      swap1\n      mstore\n        /* \"Verfiy.sol\":10623:10758  function CopyUint(uint256 i,bytes memory to,uint256 toOff)internal pure{... */\n      jump\n        /* \"Verfiy.sol\":8289:8290  k */\n    tag_232:\n        /* \"Verfiy.sol\":8305:8310  k+=32 */\n      tag_71\n      jump\t// in\n    tag_231:\n        /* \"Verfiy.sol\":8330:8351  mulmod(temp1, rho, q) */\n      swap8\n      mulmod\n        /* \"Verfiy.sol\":7997:8000  i++ */\n      swap9\n      tag_44\n      jump\t// in\n    tag_229:\n        /* \"Verfiy.sol\":7978:7989  uint256 i=0 */\n      swap8\n      swap5\n      dup12\n      swap1\n      jump(tag_220)\n        /* \"Verfiy.sol\":8015:8186  if(i==L-index){ //原本是    L+1-index，但是索引需要减去 1... */\n    tag_225:\n        /* \"Verfiy.sol\":8107:8128  mulmod(temp1, rho, q) */\n      pop\n      pop\n      pop\n      swap7\n      mload(0x00)\n      codecopy(0x00, data_3b2d02282c3edcbfc4f9664b53f75892ea03b8fe586039e3ee6fe41258ca9b0d, 0x20)\n      mload(0x00)\n      swap1\n      0x00\n      mstore\n      swap2\n      pop\n      swap2\n        /* \"Verfiy.sol\":7997:8000  i++ */\n      tag_229\n        /* \"Verfiy.sol\":8107:8128  mulmod(temp1, rho, q) */\n      swap3\n      mulmod\n        /* \"Verfiy.sol\":8146:8154  continue */\n      swap9\n        /* \"Verfiy.sol\":7997:8000  i++ */\n      tag_44\n      jump\t// in\n        /* \"Verfiy.sol\":7990:7996  i<=L-1 */\n    tag_222:\n      pop\n      swap5\n      pop\n      swap1\n      dup10\n      dup10\n      swap4\n      swap5\n      dup8\n      0x00\n        /* \"Verfiy.sol\":8418:8429  uint256 i=0 */\n      swap5\n      0x00\n        /* \"Verfiy.sol\":8414:8778  for(uint256 i=0;i<=L-1;i++){... */\n      swap6\n        /* \"Verfiy.sol\":8437:8440  i++ */\n    tag_234:\n        /* \"Verfiy.sol\":8433:8436  L-1 */\n      tag_235\n      dup4\n      tag_45\n      jump\t// in\n    tag_235:\n        /* \"Verfiy.sol\":8430:8436  i<=L-1 */\n      dup8\n      gt\n      tag_236\n      jumpi\n        /* \"Verfiy.sol\":8461:8468  L-index */\n      dup8\n      swap1\n      dup8\n      tag_238\n      dup7\n      dup7\n      tag_48\n      jump\t// in\n    tag_238:\n        /* \"Verfiy.sol\":8458:8468  i==L-index */\n      dup2\n      eq\n        /* \"Verfiy.sol\":8455:8555  if(i==L-index){... */\n      tag_239\n      jumpi\n        /* \"Verfiy.sol\":8585:8593  ppg2s[i] */\n      swap2\n        /* \"Verfiy.sol\":8721:8726  k+=32 */\n      tag_241\n        /* \"Verfiy.sol\":8662:8668  k+=256 */\n      tag_242\n        /* \"Verfiy.sol\":8585:8593  ppg2s[i] */\n      dup4\n        /* \"Verfiy.sol\":8607:8646  CopyStorageBytes256(ppg2s[i], right, k) */\n      tag_228\n      mload(0x00)\n      codecopy(0x00, data_3b2d02282c3edcbfc4f9664b53f75892ea03b8fe586039e3ee6fe41258ca9b0d, 0x20)\n      mload(0x00)\n      swap1\n      0x00\n      mstore\n        /* \"Verfiy.sol\":8585:8593  ppg2s[i] */\n      swap6\n      dup12\n        /* \"Verfiy.sol\":8627:8635  ppg2s[i] */\n      tag_244\n        /* \"Verfiy.sol\":8585:8593  ppg2s[i] */\n      dup10\n        /* \"Verfiy.sol\":26:13391  contract Verify {... */\n      tag_245\n        /* \"Verfiy.sol\":8585:8593  ppg2s[i] */\n      tag_246\n        /* \"Verfiy.sol\":8437:8440  i++ */\n      tag_247\n        /* \"Verfiy.sol\":8585:8593  ppg2s[i] */\n      swap13\n      tag_22\n      jump\t// in\n    tag_246:\n        /* \"Verfiy.sol\":26:13391  contract Verify {... */\n      pop\n      tag_26\n      jump\t// in\n    tag_245:\n      pop\n        /* \"Verfiy.sol\":8627:8635  ppg2s[i] */\n      tag_22\n      jump\t// in\n    tag_244:\n        /* \"Verfiy.sol\":8607:8646  CopyStorageBytes256(ppg2s[i], right, k) */\n      pop\n      tag_105\n      jump\t// in\n        /* \"Verfiy.sol\":8662:8668  k+=256 */\n    tag_242:\n        /* \"Verfiy.sol\":10700:10756  assembly {... */\n      dup9\n      dup2\n      add\n      0x20\n      add\n      dup11\n      swap1\n      mstore\n        /* \"Verfiy.sol\":8305:8310  k+=32 */\n      tag_71\n      jump\t// in\n        /* \"Verfiy.sol\":8721:8726  k+=32 */\n    tag_241:\n        /* \"Verfiy.sol\":8746:8767  mulmod(temp2, rho, q) */\n      swap8\n      mulmod\n        /* \"Verfiy.sol\":8437:8440  i++ */\n      swap7\n      tag_44\n      jump\t// in\n    tag_247:\n        /* \"Verfiy.sol\":8418:8429  uint256 i=0 */\n      swap6\n      swap5\n      jump(tag_234)\n        /* \"Verfiy.sol\":8455:8555  if(i==L-index){... */\n    tag_239:\n        /* \"Verfiy.sol\":8493:8514  mulmod(temp2, rho, q) */\n      pop\n      swap6\n        /* \"Verfiy.sol\":8437:8440  i++ */\n      tag_247\n        /* \"Verfiy.sol\":8493:8514  mulmod(temp2, rho, q) */\n      swap2\n      mload(0x00)\n      codecopy(0x00, data_3b2d02282c3edcbfc4f9664b53f75892ea03b8fe586039e3ee6fe41258ca9b0d, 0x20)\n      mload(0x00)\n      swap1\n      0x00\n      mstore\n      swap2\n      mulmod\n        /* \"Verfiy.sol\":8532:8540  continue */\n      swap7\n        /* \"Verfiy.sol\":8437:8440  i++ */\n      tag_44\n      jump\t// in\n        /* \"Verfiy.sol\":8430:8436  i<=L-1 */\n    tag_236:\n      pop\n        /* \"Verfiy.sol\":8905:8950  EqualPairingCheck(g1, leftAgg, g1s, rightAgg) */\n      tag_250\n        /* \"Verfiy.sol\":8897:8967  require(EqualPairingCheck(g1, leftAgg, g1s, rightAgg),\"CheckKey Fail\") */\n      tag_251\n        /* \"Verfiy.sol\":8430:8436  i<=L-1 */\n      swap2\n      dup10\n      dup7\n        /* \"Verfiy.sol\":26:13391  contract Verify {... */\n      tag_252\n        /* \"Verfiy.sol\":8864:8877  G2Muls(right) */\n      tag_253\n        /* \"Verfiy.sol\":8807:8819  G2Muls(left) */\n      tag_254\n        /* \"Verfiy.sol\":8430:8436  i<=L-1 */\n      dup16\n        /* \"Verfiy.sol\":8807:8819  G2Muls(left) */\n      tag_57\n      jump\t// in\n    tag_254:\n        /* \"Verfiy.sol\":8864:8877  G2Muls(right) */\n      swap3\n      tag_57\n      jump\t// in\n    tag_253:\n        /* \"Verfiy.sol\":26:13391  contract Verify {... */\n      swap4\n      tag_255\n      tag_53\n      jump\t// in\n    tag_255:\n      swap4\n      calldatasize\n      swap2\n      tag_12\n      jump\t// in\n    tag_252:\n        /* \"Verfiy.sol\":8905:8950  EqualPairingCheck(g1, leftAgg, g1s, rightAgg) */\n      swap2\n      tag_77\n      jump\t// in\n    tag_250:\n        /* \"Verfiy.sol\":8897:8967  require(EqualPairingCheck(g1, leftAgg, g1s, rightAgg),\"CheckKey Fail\") */\n      tag_74\n      jump\t// in\n    tag_251:\n        /* \"Verfiy.sol\":26:13391  contract Verify {... */\n      mload(0x40)\n        /* \"Verfiy.sol\":7800:7801  1 */\n      0x01\n        /* \"Verfiy.sol\":26:13391  contract Verify {... */\n      dup2\n      mstore\n      0x20\n      swap1\n      return\n    tag_20:\n      mstore(0x00, shl(0xe0, 0x4e487b71))\n      mstore(0x04, 0x32)\n      revert(0x00, 0x24)\n    tag_22:\n        /* \"Verfiy.sol\":8585:8590  ppg2s */\n      0x03\n        /* \"Verfiy.sol\":26:13391  contract Verify {... */\n      sload\n      dup2\n      lt\n      iszero\n      tag_257\n      jumpi\n        /* \"Verfiy.sol\":8585:8590  ppg2s */\n      0x03\n      0x00\n        /* \"Verfiy.sol\":26:13391  contract Verify {... */\n      mstore\n      keccak256(0x00, 0x20)\n      add\n      swap1\n      0x00\n      swap1\n      jump\t// out\n    tag_257:\n      tag_20\n      jump\t// in\n    tag_23:\n        /* \"Verfiy.sol\":9139:9140  2 */\n      0x02\n        /* \"Verfiy.sol\":26:13391  contract Verify {... */\n      sload\n      dup2\n      lt\n      iszero\n      tag_257\n      jumpi\n        /* \"Verfiy.sol\":9139:9140  2 */\n      0x02\n      0x00\n        /* \"Verfiy.sol\":26:13391  contract Verify {... */\n      mstore\n      keccak256(0x00, 0x20)\n      add\n      swap1\n      0x00\n      swap1\n      jump\t// out\n    tag_24:\n      swap1\n      0x01\n      dup3\n      dup2\n      shr\n      swap3\n      and\n      dup1\n      iszero\n      tag_261\n      jumpi\n    tag_262:\n      0x20\n      dup4\n      lt\n      eq\n      tag_263\n      jumpi\n      jump\t// out\n    tag_263:\n      mstore(0x00, shl(0xe0, 0x4e487b71))\n      mstore(0x04, 0x22)\n      revert(0x00, 0x24)\n    tag_261:\n      swap2\n      0x7f\n      and\n      swap2\n      jump(tag_262)\n    tag_25:\n      mload(0x40)\n      swap1\n      0x00\n      dup3\n      sload(0x00)\n      swap2\n      tag_265\n      dup4\n      tag_24\n      jump\t// in\n    tag_265:\n      dup1\n      dup4\n      mstore\n      swap3\n      0x01\n      dup2\n      and\n      swap1\n      dup2\n      iszero\n      tag_266\n      jumpi\n      pop\n      0x01\n      eq\n      tag_268\n      jumpi\n    tag_269:\n      tag_270\n      swap3\n      pop\n      sub\n      dup4\n      tag_10\n      jump\t// in\n    tag_270:\n      jump\t// out\n    tag_268:\n      pop\n      0x00\n      dup1\n      dup1\n      mstore\n      swap1\n      swap2\n      0x290decd9548b62a8d60345a988386fc84ba6bc95484008f6362f93160ef3e563\n    tag_271:\n      dup2\n      dup4\n      lt\n      tag_272\n      jumpi\n      pop\n      pop\n      swap1\n      0x20\n      tag_270\n      swap3\n      dup3\n      add\n      add\n      jump(tag_269)\n    tag_272:\n      0x20\n      swap2\n      swap4\n      pop\n      dup1\n      0x01\n      swap2\n      sload\n      dup4\n      dup6\n      dup10\n      add\n      add\n      mstore\n      add\n      swap2\n      add\n      swap1\n      swap2\n      dup5\n      swap3\n      jump(tag_271)\n    tag_266:\n      0x20\n      swap3\n      pop\n      tag_270\n      swap5\n      swap2\n      pop\n      not(0xff)\n      and\n      dup3\n      dup5\n      add\n      mstore\n      iszero\n      iszero\n      0x05\n      shl\n      dup3\n      add\n      add\n      jump(tag_269)\n    tag_26:\n      swap1\n      mload(0x40)\n      swap2\n      dup3\n      0x00\n      dup3\n      sload\n      swap3\n      tag_274\n      dup5\n      tag_24\n      jump\t// in\n    tag_274:\n      dup1\n      dup5\n      mstore\n      swap4\n      0x01\n      dup2\n      and\n      swap1\n      dup2\n      iszero\n      tag_275\n      jumpi\n      pop\n      0x01\n      eq\n      tag_277\n      jumpi\n    tag_278:\n      pop\n      tag_270\n      swap3\n      pop\n      sub\n      dup4\n      tag_10\n      jump\t// in\n    tag_277:\n      swap1\n      pop\n      0x00\n      swap3\n      swap2\n      swap3\n      mstore\n      keccak256(0x00, 0x20)\n      swap1\n      0x00\n      swap2\n    tag_280:\n      dup2\n      dup4\n      lt\n      tag_281\n      jumpi\n      pop\n      pop\n      swap1\n      0x20\n      tag_270\n      swap3\n      dup3\n      add\n      add\n      0x00\n      jump(tag_278)\n    tag_281:\n      0x20\n      swap2\n      swap4\n      pop\n      dup1\n      0x01\n      swap2\n      sload\n      dup4\n      dup6\n      dup10\n      add\n      add\n      mstore\n      add\n      swap2\n      add\n      swap1\n      swap2\n      dup5\n      swap3\n      jump(tag_280)\n    tag_275:\n      swap1\n      pop\n      0x20\n      swap3\n      pop\n      tag_270\n      swap5\n      swap2\n      pop\n      not(0xff)\n      and\n      dup3\n      dup5\n      add\n      mstore\n      iszero\n      iszero\n      0x05\n      shl\n      dup3\n      add\n      add\n      0x00\n      jump(tag_278)\n    tag_27:\n      jumpi(tag_150, callvalue)\n      jumpi(tag_150, slt(add(not(0x03), calldatasize), 0x20))\n      calldataload(0x04)\n        /* \"Verfiy.sol\":7213:7233  bytes[] public ppg1s */\n      0x02\n        /* \"Verfiy.sol\":26:13391  contract Verify {... */\n      sload\n        /* \"Verfiy.sol\":7213:7233  bytes[] public ppg1s */\n      dup2\n      lt\n      iszero\n      tag_150\n      jumpi\n        /* \"Verfiy.sol\":26:13391  contract Verify {... */\n      tag_193\n      tag_192\n      swap2\n        /* \"Verfiy.sol\":7213:7233  bytes[] public ppg1s */\n      0x02\n      0x00\n        /* \"Verfiy.sol\":26:13391  contract Verify {... */\n      mstore\n      0x405787fa12a823e0f2b7631cc41b3ba8828b3321ca811111fa75cd3aa3bb5ace\n      add\n      tag_26\n      jump\t// in\n    tag_28:\n      swap1\n      0x80\n      not(0x03)\n      dup4\n      add\n      slt\n      tag_150\n      jumpi\n      calldataload(0x04)\n      sub(shl(0x40, 0x01), 0x01)\n      dup2\n      gt\n      tag_150\n      jumpi\n      dup3\n      tag_295\n      swap2\n      0x04\n      add\n      tag_13\n      jump\t// in\n    tag_295:\n      swap2\n      calldataload(0x24)\n      sub(shl(0x40, 0x01), 0x01)\n      dup2\n      gt\n      tag_150\n      jumpi\n      dup2\n      tag_298\n      swap2\n      0x04\n      add\n      tag_13\n      jump\t// in\n    tag_298:\n      swap2\n      calldataload(0x44)\n      sub(shl(0x40, 0x01), 0x01)\n      dup2\n      gt\n      tag_150\n      jumpi\n      dup3\n      tag_301\n      swap2\n      0x04\n      add\n      tag_13\n      jump\t// in\n    tag_301:\n      swap2\n      calldataload(0x64)\n      swap1\n      sub(shl(0x40, 0x01), 0x01)\n      dup3\n      gt\n      tag_150\n      jumpi\n      tag_184\n      swap2\n      0x04\n      add\n      tag_13\n      jump\t// in\n    tag_29:\n      jumpi(tag_150, callvalue)\n      0x00\n      dup1\n      tag_312\n      tag_312\n        /* \"Verfiy.sol\":12464:12496  abi.encodePacked(p1, p2, p3, p4) */\n      tag_309\n        /* \"Verfiy.sol\":26:13391  contract Verify {... */\n      tag_213\n      tag_311\n      calldatasize\n      tag_28\n      jump\t// in\n    tag_311:\n      swap2\n      swap4\n      swap3\n      swap7\n      swap1\n      mload(0x40)\n        /* \"Verfiy.sol\":12464:12496  abi.encodePacked(p1, p2, p3, p4) */\n      swap7\n      dup8\n      swap6\n        /* \"Verfiy.sol\":26:13391  contract Verify {... */\n      tag_312\n        /* \"Verfiy.sol\":12464:12496  abi.encodePacked(p1, p2, p3, p4) */\n      0x20\n      dup9\n      add\n        /* \"Verfiy.sol\":26:13391  contract Verify {... */\n      dup1\n      swap12\n      tag_58\n      jump\t// in\n    tag_312:\n      swap1\n      tag_58\n      jump\t// in\n        /* \"Verfiy.sol\":12464:12496  abi.encodePacked(p1, p2, p3, p4) */\n    tag_309:\n        /* \"Verfiy.sol\":12536:12567  address(0x0f).staticcall(input) */\n      mload\n      swap1\n        /* \"Verfiy.sol\":12544:12548  0x0f */\n      0x0f\n        /* \"Verfiy.sol\":12536:12567  address(0x0f).staticcall(input) */\n      gas\n      staticcall\n      pop\n        /* \"Verfiy.sol\":12464:12496  abi.encodePacked(p1, p2, p3, p4) */\n      0x20\n        /* \"Verfiy.sol\":12609:12610  1 */\n      0x01\n        /* \"Verfiy.sol\":12592:12604  bytes32(ret) */\n      tag_313\n        /* \"Verfiy.sol\":12536:12567  address(0x0f).staticcall(input) */\n      tag_314\n      tag_56\n      jump\t// in\n    tag_314:\n        /* \"Verfiy.sol\":12592:12604  bytes32(ret) */\n      tag_75\n      jump\t// in\n    tag_313:\n        /* \"Verfiy.sol\":12584:12610  uint256(bytes32(ret)) == 1 */\n      eq\n        /* \"Verfiy.sol\":26:13391  contract Verify {... */\n      mload(0x40)\n      swap1\n      dup2\n      mstore\n      return\n    tag_30:\n      jumpi(tag_150, callvalue)\n      tag_192\n      tag_193\n      tag_319\n      calldatasize\n      tag_14\n      jump\t// in\n    tag_319:\n      tag_76\n      jump\t// in\n    tag_31:\n      0x20\n      not(0x03)\n      dup3\n      add\n      slt\n      tag_150\n      jumpi\n      calldataload(0x04)\n      swap1\n      sub(shl(0x40, 0x01), 0x01)\n      dup3\n      gt\n      tag_150\n      jumpi\n      tag_324\n      swap2\n      0x04\n      add\n      tag_1\n      jump\t// in\n    tag_324:\n      swap1\n      swap2\n      jump\t// out\n    tag_32:\n      jumpi(tag_150, callvalue)\n        /* \"Verfiy.sol\":10401:10411  Message(a) */\n      0xa6f91dded377b2f1cc2f0fee7290c32075af11dba176369f69022443f046ee3b\n        /* \"Verfiy.sol\":26:13391  contract Verify {... */\n      tag_327\n      calldatasize\n      tag_31\n      jump\t// in\n    tag_327:\n      tag_328\n      mload(0x40)\n      swap3\n      dup4\n      swap3\n      0x20\n      dup5\n      mstore\n      0x20\n      dup5\n      add\n      swap2\n      tag_60\n      jump\t// in\n    tag_328:\n        /* \"Verfiy.sol\":10401:10411  Message(a) */\n      sub\n      swap1\n      log1\n        /* \"Verfiy.sol\":26:13391  contract Verify {... */\n      stop\n    tag_33:\n      jumpi(tag_150, callvalue)\n      0x20\n      tag_168\n      tag_332\n      calldatasize\n      tag_28\n      jump\t// in\n    tag_332:\n      swap3\n      swap2\n      swap1\n      swap2\n      tag_77\n      jump\t// in\n    tag_34:\n      jumpi(tag_150, callvalue)\n      jumpi(tag_150, slt(add(not(0x03), calldatasize), 0x00))\n      tag_192\n      tag_193\n      0x00\n      tag_26\n      jump\t// in\n    tag_35:\n      jumpi(tag_150, callvalue)\n      0x20\n      tag_168\n      tag_342\n      calldatasize\n      tag_31\n      jump\t// in\n    tag_342:\n      pop\n        /* \"Verfiy.sol\":13118:13357  assembly{... */\n      0x60\n      dup2\n      add\n      calldataload\n      swap1\n      0x40\n      dup2\n      add\n      calldataload\n      swap1\n      0x20\n      dup2\n      add\n      calldataload\n      swap1\n      calldataload\n      or\n      or\n      or\n        /* \"Verfiy.sol\":13373:13379  acc==0 */\n      iszero\n        /* \"Verfiy.sol\":13020:13386  function ZeroCheck(bytes calldata x)public pure returns (bool ok){... */\n      swap1\n      jump\n        /* \"Verfiy.sol\":26:13391  contract Verify {... */\n    tag_36:\n      jumpi(tag_150, callvalue)\n      jumpi(tag_150, slt(add(not(0x03), calldatasize), 0x40))\n      calldataload(0x04)\n      sub(shl(0x40, 0x01), 0x01)\n      dup2\n      gt\n      tag_150\n      jumpi\n      0x00\n      tag_349\n      dup2\n      swap3\n      calldatasize\n      swap1\n      0x04\n      add\n      tag_1\n      jump\t// in\n    tag_349:\n        /* \"Verfiy.sol\":11956:11984  abi.encodePacked(p1, scalar) */\n      tag_350\n        /* \"Verfiy.sol\":26:13391  contract Verify {... */\n      0x20\n      dup1\n      calldataload(0x24)\n      swap4\n      mload(0x40)\n        /* \"Verfiy.sol\":11956:11984  abi.encodePacked(p1, scalar) */\n      swap5\n      dup2\n      dup7\n      swap3\n      dup5\n      dup5\n      add\n        /* \"Verfiy.sol\":26:13391  contract Verify {... */\n      swap9\n      dup10\n      calldatacopy\n      dup3\n      add\n      swap1\n      dup4\n      dup3\n      add\n      mstore\n        /* \"Verfiy.sol\":11956:11984  abi.encodePacked(p1, scalar) */\n      sub\n      add\n      dup1\n      dup5\n      mstore\n      add\n      dup3\n      tag_10\n      jump\t// in\n    tag_350:\n        /* \"Verfiy.sol\":12024:12055  address(0x0e).staticcall(input) */\n      mload\n      swap1\n        /* \"Verfiy.sol\":12032:12036  0x0e */\n      0x0e\n        /* \"Verfiy.sol\":12024:12055  address(0x0e).staticcall(input) */\n      gas\n      staticcall\n      pop\n        /* \"Verfiy.sol\":26:13391  contract Verify {... */\n      tag_192\n        /* \"Verfiy.sol\":12024:12055  address(0x0e).staticcall(input) */\n      tag_193\n      tag_56\n      jump\t// in\n        /* \"Verfiy.sol\":26:13391  contract Verify {... */\n    tag_37:\n      jumpi(tag_150, callvalue)\n      jumpi(tag_150, slt(add(not(0x03), calldatasize), 0x40))\n      calldataload(0x04)\n      sub(shl(0x40, 0x01), 0x01)\n      dup2\n      gt\n      tag_150\n      jumpi\n      tag_193\n      tag_361\n      tag_192\n      swap3\n      calldatasize\n      swap1\n      0x04\n      add\n      tag_13\n      jump\t// in\n    tag_361:\n      calldataload(0x24)\n      swap1\n      tag_79\n      jump\t// in\n    tag_38:\n      jumpi(tag_150, callvalue)\n      jumpi(tag_150, slt(add(not(0x03), calldatasize), 0x80))\n      calldataload(0x04)\n      sub(shl(0x40, 0x01), 0x01)\n      dup2\n      gt\n      tag_150\n      jumpi\n      tag_369\n      swap1\n      calldatasize\n      swap1\n      0x04\n      add\n      tag_2\n      jump\t// in\n    tag_369:\n      calldataload(0x24)\n      sub(shl(0x40, 0x01), 0x01)\n      dup2\n      gt\n      tag_150\n      jumpi\n      tag_372\n      swap1\n      calldatasize\n      swap1\n      0x04\n      add\n      tag_2\n      jump\t// in\n    tag_372:\n      swap2\n      swap1\n      swap3\n      calldataload(0x44)\n      swap3\n      sub(shl(0x40, 0x01), 0x01)\n      dup5\n      gt\n      tag_150\n      jumpi\n      tag_192\n      swap5\n      tag_376\n      tag_377\n      swap6\n      calldatasize\n      swap1\n      0x04\n      add\n      tag_1\n      jump\t// in\n    tag_376:\n      swap5\n      swap1\n      swap4\n      tag_97\n      jump\t// in\n    tag_377:\n      mload(0x40)\n      swap1\n      iszero\n      iszero\n      dup2\n      mstore\n      swap1\n      dup2\n      swap1\n      0x20\n      dup3\n      add\n      swap1\n      jump\n    tag_39:\n      jumpi(tag_150, callvalue)\n      tag_192\n      tag_193\n      tag_382\n      calldatasize\n      tag_17\n      jump\t// in\n    tag_382:\n      swap1\n      tag_98\n      jump\t// in\n    tag_40:\n      jumpi(tag_150, callvalue)\n      jumpi(tag_150, slt(add(not(0x03), calldatasize), 0x40))\n      calldataload(0x04)\n      sub(shl(0x40, 0x01), 0x01)\n      dup2\n      gt\n      tag_150\n      jumpi\n      tag_389\n      swap1\n      calldatasize\n      swap1\n      0x04\n      add\n      tag_2\n      jump\t// in\n    tag_389:\n      swap1\n      calldataload(0x24)\n      sub(shl(0x40, 0x01), 0x01)\n      dup2\n      gt\n      tag_150\n      jumpi\n      tag_392\n      swap1\n      calldatasize\n      swap1\n      0x04\n      add\n      tag_2\n      jump\t// in\n    tag_392:\n      not(0x00)\n      dup5\n      add\n      dup5\n      dup2\n      gt\n      swap4\n        /* \"Verfiy.sol\":7414:7425  uint256 i=0 */\n      swap3\n      swap1\n      0x00\n        /* \"Verfiy.sol\":26:13391  contract Verify {... */\n      dup6\n        /* \"Verfiy.sol\":7442:7445  i++ */\n    tag_393:\n        /* \"Verfiy.sol\":26:13391  contract Verify {... */\n      tag_402\n      jumpi\n        /* \"Verfiy.sol\":7426:7441  i<=g1s.length-1 */\n      dup2\n      dup2\n      gt\n      tag_396\n      jumpi\n        /* \"Verfiy.sol\":7467:7473  g1s[i] */\n      dup1\n        /* \"Verfiy.sol\":7456:7474  ppg1s.push(g1s[i]) */\n      tag_398\n        /* \"Verfiy.sol\":7467:7473  g1s[i] */\n      tag_399\n        /* \"Verfiy.sol\":7442:7445  i++ */\n      tag_400\n        /* \"Verfiy.sol\":7467:7473  g1s[i] */\n      swap4\n      dup11\n      dup10\n      tag_51\n      jump\t// in\n    tag_399:\n        /* \"Verfiy.sol\":7456:7474  ppg1s.push(g1s[i]) */\n      swap1\n      tag_99\n      jump\t// in\n    tag_398:\n        /* \"Verfiy.sol\":7442:7445  i++ */\n      tag_44\n      jump\t// in\n    tag_400:\n        /* \"Verfiy.sol\":7414:7425  uint256 i=0 */\n      dup6\n      jump(tag_393)\n        /* \"Verfiy.sol\":7426:7441  i<=g1s.length-1 */\n    tag_396:\n      pop\n      pop\n      not(0x00)\n        /* \"Verfiy.sol\":26:13391  contract Verify {... */\n      dup3\n      add\n      dup3\n      dup2\n      gt\n      swap2\n      swap1\n      0x00\n      dup4\n        /* \"Verfiy.sol\":7518:7521  i++ */\n    tag_401:\n        /* \"Verfiy.sol\":26:13391  contract Verify {... */\n      tag_402\n      jumpi\n        /* \"Verfiy.sol\":7502:7517  i<=g2s.length-1 */\n      dup2\n      dup2\n      gt\n      tag_404\n      jumpi\n        /* \"Verfiy.sol\":7543:7549  g2s[i] */\n      dup1\n        /* \"Verfiy.sol\":7532:7550  ppg2s.push(g2s[i]) */\n      tag_398\n        /* \"Verfiy.sol\":7543:7549  g2s[i] */\n      tag_407\n        /* \"Verfiy.sol\":7518:7521  i++ */\n      tag_408\n        /* \"Verfiy.sol\":7543:7549  g2s[i] */\n      swap4\n      dup9\n      dup8\n      tag_51\n      jump\t// in\n    tag_407:\n        /* \"Verfiy.sol\":7532:7550  ppg2s.push(g2s[i]) */\n      swap1\n      tag_100\n      jump\t// in\n        /* \"Verfiy.sol\":7518:7521  i++ */\n    tag_408:\n        /* \"Verfiy.sol\":7490:7501  uint256 i=0 */\n      dup4\n      jump(tag_401)\n        /* \"Verfiy.sol\":7502:7517  i<=g2s.length-1 */\n    tag_404:\n        /* \"Verfiy.sol\":26:13391  contract Verify {... */\n      stop\n    tag_402:\n      tag_43\n      jump\t// in\n    tag_41:\n      jumpi(tag_150, callvalue)\n      jumpi(tag_150, slt(add(not(0x03), calldatasize), 0x20))\n      calldataload(0x04)\n        /* \"Verfiy.sol\":7235:7255  bytes[] public ppg2s */\n      0x03\n        /* \"Verfiy.sol\":26:13391  contract Verify {... */\n      sload\n        /* \"Verfiy.sol\":7235:7255  bytes[] public ppg2s */\n      dup2\n      lt\n      iszero\n      tag_150\n      jumpi\n        /* \"Verfiy.sol\":26:13391  contract Verify {... */\n      tag_193\n      tag_192\n      swap2\n        /* \"Verfiy.sol\":7235:7255  bytes[] public ppg2s */\n      0x03\n      0x00\n        /* \"Verfiy.sol\":26:13391  contract Verify {... */\n      mstore\n      0xc2575a0e9e593c00f959f8c92f12db2869c3395a3b0502d05e2516446f71f85b\n      add\n      tag_26\n      jump\t// in\n    tag_42:\n      jumpi(tag_150, callvalue)\n      jumpi(tag_150, slt(add(not(0x03), calldatasize), 0x60))\n      calldataload(0x04)\n      sub(shl(0x40, 0x01), 0x01)\n      dup2\n      gt\n      tag_150\n      jumpi\n      tag_423\n      swap1\n      calldatasize\n      swap1\n      0x04\n      add\n      tag_2\n      jump\t// in\n    tag_423:\n      calldataload(0x24)\n      sub(shl(0x40, 0x01), 0x01)\n      dup2\n      gt\n      tag_150\n      jumpi\n      tag_426\n      swap1\n      calldatasize\n      swap1\n      0x04\n      add\n      tag_2\n      jump\t// in\n    tag_426:\n      swap3\n      swap1\n      swap2\n      calldataload(0x44)\n      sub(shl(0x40, 0x01), 0x01)\n      dup2\n      gt\n      tag_150\n      jumpi\n      tag_429\n      swap1\n      swap5\n      swap2\n      swap5\n      calldatasize\n      swap1\n      0x04\n      add\n      tag_1\n      jump\t// in\n    tag_429:\n        /* \"Verfiy.sol\":1346:1352  L1 * 2 */\n      swap5\n        /* \"Verfiy.sol\":1338:1359  require(L1 * 2 == L2) */\n      tag_430\n        /* \"Verfiy.sol\":1346:1352  L1 * 2 */\n      dup4\n      tag_431\n      dup4\n      tag_65\n      jump\t// in\n    tag_431:\n        /* \"Verfiy.sol\":1346:1358  L1 * 2 == L2 */\n      eq\n        /* \"Verfiy.sol\":1338:1359  require(L1 * 2 == L2) */\n      tag_80\n      jump\t// in\n    tag_430:\n        /* \"Verfiy.sol\":1410:1457  uint256(keccak256(abi.encode(g1s, g2s, 0))) % q */\n      tag_432\n        /* \"Verfiy.sol\":26:13391  contract Verify {... */\n      mload(0x40)\n      0x20\n        /* \"Verfiy.sol\":1428:1451  abi.encode(g1s, g2s, 0) */\n      dup2\n      add\n      swap1\n      tag_212\n      dup2\n      tag_213\n      dup9\n      dup12\n      dup9\n      dup13\n      dup9\n      tag_81\n      jump\t// in\n        /* \"Verfiy.sol\":1410:1457  uint256(keccak256(abi.encode(g1s, g2s, 0))) % q */\n    tag_432:\n        /* \"Verfiy.sol\":26:13391  contract Verify {... */\n      swap4\n        /* \"Verfiy.sol\":1482:1529  uint256(keccak256(abi.encode(g1s, g2s, 1))) % q */\n      tag_435\n        /* \"Verfiy.sol\":26:13391  contract Verify {... */\n      mload(0x40)\n      0x20\n        /* \"Verfiy.sol\":1500:1523  abi.encode(g1s, g2s, 1) */\n      dup2\n      add\n      swap1\n      tag_212\n      dup2\n      tag_213\n      dup10\n      dup13\n      dup10\n      dup10\n      dup9\n      tag_82\n      jump\t// in\n        /* \"Verfiy.sol\":1482:1529  uint256(keccak256(abi.encode(g1s, g2s, 1))) % q */\n    tag_435:\n        /* \"Verfiy.sol\":1539:1556  uint256 temp1 = 1 */\n      swap7\n        /* \"Verfiy.sol\":1521:1522  1 */\n      0x01\n        /* \"Verfiy.sol\":1566:1583  uint256 temp2 = 1 */\n      swap4\n        /* \"Verfiy.sol\":1635:1654  new bytes(L1 * 160) */\n      tag_438\n        /* \"Verfiy.sol\":1645:1653  L1 * 160 */\n      tag_215\n      dup6\n      tag_66\n      jump\t// in\n        /* \"Verfiy.sol\":1635:1654  new bytes(L1 * 160) */\n    tag_438:\n        /* \"Verfiy.sol\":1694:1700  L2 - 3 */\n      swap9\n        /* \"Verfiy.sol\":1683:1708  new bytes((L2 - 3) * 288) */\n      tag_440\n        /* \"Verfiy.sol\":1693:1707  (L2 - 3) * 288 */\n      tag_215\n        /* \"Verfiy.sol\":1694:1700  L2 - 3 */\n      tag_442\n      dup10\n      tag_46\n      jump\t// in\n    tag_442:\n        /* \"Verfiy.sol\":1693:1707  (L2 - 3) * 288 */\n      tag_67\n      jump\t// in\n        /* \"Verfiy.sol\":1683:1708  new bytes((L2 - 3) * 288) */\n    tag_440:\n        /* \"Verfiy.sol\":1748:1754  L1 - 1 */\n      swap9\n        /* \"Verfiy.sol\":1737:1762  new bytes((L1 - 1) * 160) */\n      tag_443\n        /* \"Verfiy.sol\":1747:1761  (L1 - 1) * 160 */\n      tag_215\n        /* \"Verfiy.sol\":1748:1754  L1 - 1 */\n      tag_445\n      dup9\n      tag_45\n      jump\t// in\n    tag_445:\n        /* \"Verfiy.sol\":1747:1761  (L1 - 1) * 160 */\n      tag_66\n      jump\t// in\n        /* \"Verfiy.sol\":1737:1762  new bytes((L1 - 1) * 160) */\n    tag_443:\n        /* \"Verfiy.sol\":1802:1808  L2 - 2 */\n      swap10\n        /* \"Verfiy.sol\":1791:1816  new bytes((L2 - 2) * 288) */\n      tag_446\n        /* \"Verfiy.sol\":1801:1815  (L2 - 2) * 288 */\n      tag_215\n        /* \"Verfiy.sol\":1802:1808  L2 - 2 */\n      tag_442\n      dup12\n      tag_47\n      jump\t// in\n        /* \"Verfiy.sol\":1791:1816  new bytes((L2 - 2) * 288) */\n    tag_446:\n      0x00\n      swap10\n        /* \"Verfiy.sol\":1901:1906  k = 0 */\n      swap1\n      dup11\n        /* \"Verfiy.sol\":1949:1952  i++ */\n    tag_449:\n        /* \"Verfiy.sol\":1941:1947  L1 - 1 */\n      tag_450\n      dup11\n      tag_45\n      jump\t// in\n    tag_450:\n        /* \"Verfiy.sol\":1936:1947  i <= L1 - 1 */\n      dup13\n      gt\n      tag_451\n      jumpi\n      mload(0x00)\n      codecopy(0x00, data_3b2d02282c3edcbfc4f9664b53f75892ea03b8fe586039e3ee6fe41258ca9b0d, 0x20)\n      mload(0x00)\n      swap1\n      0x00\n      mstore\n        /* \"Verfiy.sol\":1976:1982  g1s[i] */\n      dup16\n        /* \"Verfiy.sol\":2129:2134  k+=32 */\n      tag_453\n        /* \"Verfiy.sol\":1976:1982  g1s[i] */\n      dup16\n      swap2\n      dup16\n      dup16\n      dup16\n      dup16\n      swap8\n        /* \"Verfiy.sol\":2035:2041  g1s[i] */\n      tag_454\n        /* \"Verfiy.sol\":1976:1982  g1s[i] */\n      dup2\n      dup7\n        /* \"Verfiy.sol\":2035:2041  g1s[i] */\n      tag_455\n        /* \"Verfiy.sol\":1976:1982  g1s[i] */\n      dup8\n      dup7\n      dup15\n        /* \"Verfiy.sol\":1949:1952  i++ */\n      tag_456\n        /* \"Verfiy.sol\":1976:1982  g1s[i] */\n      swap16\n        /* \"Verfiy.sol\":1993:1996  128 */\n      0x80\n        /* \"Verfiy.sol\":1976:1982  g1s[i] */\n      tag_457\n        /* \"Verfiy.sol\":2113:2114  k */\n      tag_232\n        /* \"Verfiy.sol\":1976:1982  g1s[i] */\n      swap14\n        /* \"Verfiy.sol\":2072:2078  k+=128 */\n      tag_459\n        /* \"Verfiy.sol\":1976:1982  g1s[i] */\n      swap13\n        /* \"Verfiy.sol\":1968:2011  require(g1s[i].length == 128, \"bad G1 len\") */\n      tag_460\n        /* \"Verfiy.sol\":1976:1982  g1s[i] */\n      swap5\n      tag_51\n      jump\t// in\n    tag_457:\n        /* \"Verfiy.sol\":1976:1996  g1s[i].length == 128 */\n      swap1\n      pop\n      eq\n        /* \"Verfiy.sol\":1968:2011  require(g1s[i].length == 128, \"bad G1 len\") */\n      tag_83\n      jump\t// in\n    tag_460:\n        /* \"Verfiy.sol\":2035:2041  g1s[i] */\n      tag_51\n      jump\t// in\n    tag_455:\n      pop\n      tag_103\n      jump\t// in\n    tag_454:\n        /* \"Verfiy.sol\":2072:2078  k+=128 */\n      tag_72\n      jump\t// in\n    tag_459:\n        /* \"Verfiy.sol\":10700:10756  assembly {... */\n      swap3\n      dup4\n      add\n      0x20\n      add\n      mstore\n        /* \"Verfiy.sol\":10623:10758  function CopyUint(uint256 i,bytes memory to,uint256 toOff)internal pure{... */\n      jump\n        /* \"Verfiy.sol\":2129:2134  k+=32 */\n    tag_453:\n        /* \"Verfiy.sol\":2156:2178  mulmod(temp1, rho1, q) */\n      swap13\n      mulmod\n        /* \"Verfiy.sol\":1949:1952  i++ */\n      swap12\n      tag_44\n      jump\t// in\n    tag_456:\n        /* \"Verfiy.sol\":1921:1934  uint256 i = 0 */\n      swap11\n      swap10\n      jump(tag_449)\n        /* \"Verfiy.sol\":1936:1947  i <= L1 - 1 */\n    tag_451:\n      pop\n      swap6\n      dup9\n      dup13\n      dup16\n      swap9\n      dup16\n        /* \"Verfiy.sol\":2219:2230  G1Muls(ag1) */\n      tag_461\n        /* \"Verfiy.sol\":1936:1947  i <= L1 - 1 */\n      dup13\n      swap12\n        /* \"Verfiy.sol\":2219:2230  G1Muls(ag1) */\n      tag_76\n      jump\t// in\n    tag_461:\n        /* \"Verfiy.sol\":2288:2293  k = 0 */\n      swap1\n      0x00\n        /* \"Verfiy.sol\":2303:2315  temp2 = rho2 */\n      swap12\n      dup11\n        /* \"Verfiy.sol\":2330:2343  uint256 i = 0 */\n      swap7\n      0x00\n        /* \"Verfiy.sol\":2325:2729  for (uint256 i = 0; i <= 2 * L1 - 1 - 1; i++) {... */\n      swap14\n      dup15\n        /* \"Verfiy.sol\":2366:2369  i++ */\n    tag_462:\n        /* \"Verfiy.sol\":2350:2364  2 * L1 - 1 - 1 */\n      tag_463\n        /* \"Verfiy.sol\":2350:2360  2 * L1 - 1 */\n      tag_465\n        /* \"Verfiy.sol\":2350:2356  2 * L1 */\n      tag_465\n      dup12\n      tag_68\n      jump\t// in\n    tag_465:\n        /* \"Verfiy.sol\":2350:2360  2 * L1 - 1 */\n      tag_45\n      jump\t// in\n        /* \"Verfiy.sol\":2350:2364  2 * L1 - 1 - 1 */\n    tag_463:\n      lt\n        /* \"Verfiy.sol\":2345:2364  i <= 2 * L1 - 1 - 1 */\n      tag_466\n      jumpi\n        /* \"Verfiy.sol\":2444:2450  L1 - 1 */\n      dup11\n      dup16\n      swap2\n      dup15\n      swap3\n      dup13\n      dup16\n      tag_468\n      dup14\n      tag_45\n      jump\t// in\n    tag_468:\n        /* \"Verfiy.sol\":2439:2450  i == L1 - 1 */\n      dup4\n      eq\n        /* \"Verfiy.sol\":2439:2461  i == L1 - 1 || i == L1 */\n      dup1\n      iszero\n      tag_469\n      jumpi\n        /* \"Verfiy.sol\":2366:2369  i++ */\n    tag_470:\n        /* \"Verfiy.sol\":2435:2552  if (i == L1 - 1 || i == L1) {... */\n      tag_471\n      jumpi\n        /* \"Verfiy.sol\":2575:2581  g2s[i] */\n      dup14\n        /* \"Verfiy.sol\":2612:2618  k+=256 */\n      tag_459\n        /* \"Verfiy.sol\":2575:2581  g2s[i] */\n      dup6\n      tag_228\n        /* \"Verfiy.sol\":2366:2369  i++ */\n      tag_475\n        /* \"Verfiy.sol\":2575:2581  g2s[i] */\n      swap10\n      swap8\n      dup10\n      tag_230\n        /* \"Verfiy.sol\":2669:2674  k+=32 */\n      tag_477\n        /* \"Verfiy.sol\":2575:2581  g2s[i] */\n      swap10\n      mload(0x00)\n      codecopy(0x00, data_3b2d02282c3edcbfc4f9664b53f75892ea03b8fe586039e3ee6fe41258ca9b0d, 0x20)\n      mload(0x00)\n      swap1\n      0x00\n      mstore\n      swap13\n      swap10\n        /* \"Verfiy.sol\":2653:2654  k */\n      tag_232\n        /* \"Verfiy.sol\":2575:2581  g2s[i] */\n      swap10\n      tag_51\n      jump\t// in\n        /* \"Verfiy.sol\":2669:2674  k+=32 */\n    tag_477:\n        /* \"Verfiy.sol\":2696:2718  mulmod(temp2, rho2, q) */\n      swap11\n      mulmod\n        /* \"Verfiy.sol\":2366:2369  i++ */\n      swap15\n      tag_44\n      jump\t// in\n    tag_475:\n        /* \"Verfiy.sol\":2330:2343  uint256 i = 0 */\n      swap14\n      swap8\n      dup15\n      jump(tag_462)\n        /* \"Verfiy.sol\":2435:2552  if (i == L1 - 1 || i == L1) {... */\n    tag_471:\n        /* \"Verfiy.sol\":2489:2511  mulmod(temp2, rho2, q) */\n      pop\n      pop\n      pop\n      swap10\n      mload(0x00)\n      codecopy(0x00, data_3b2d02282c3edcbfc4f9664b53f75892ea03b8fe586039e3ee6fe41258ca9b0d, 0x20)\n      mload(0x00)\n      swap1\n      0x00\n      mstore\n      swap2\n      pop\n      swap2\n        /* \"Verfiy.sol\":2366:2369  i++ */\n      tag_475\n        /* \"Verfiy.sol\":2489:2511  mulmod(temp2, rho2, q) */\n      swap3\n      mulmod\n        /* \"Verfiy.sol\":2529:2537  continue */\n      swap15\n        /* \"Verfiy.sol\":2366:2369  i++ */\n      tag_44\n      jump\t// in\n        /* \"Verfiy.sol\":2439:2461  i == L1 - 1 || i == L1 */\n    tag_469:\n        /* \"Verfiy.sol\":2454:2461  i == L1 */\n      pop\n      dup13\n      dup4\n      eq\n        /* \"Verfiy.sol\":2439:2461  i == L1 - 1 || i == L1 */\n      jump(tag_470)\n        /* \"Verfiy.sol\":2345:2364  i <= 2 * L1 - 1 - 1 */\n    tag_466:\n      pop\n      dup9\n      swap4\n      swap2\n      dup13\n      dup9\n      swap3\n      dup16\n      dup15\n        /* \"Verfiy.sol\":2788:2804  G2Add(g2, part2) */\n      tag_480\n        /* \"Verfiy.sol\":2345:2364  i <= 2 * L1 - 1 - 1 */\n      dup16\n        /* \"Verfiy.sol\":2759:2770  G2Muls(ag2) */\n      tag_481\n        /* \"Verfiy.sol\":2345:2364  i <= 2 * L1 - 1 - 1 */\n      swap1\n        /* \"Verfiy.sol\":2759:2770  G2Muls(ag2) */\n      tag_57\n      jump\t// in\n    tag_481:\n        /* \"Verfiy.sol\":26:13391  contract Verify {... */\n      tag_482\n      tag_84\n      jump\t// in\n    tag_482:\n        /* \"Verfiy.sol\":2788:2804  G2Add(g2, part2) */\n      tag_98\n      jump\t// in\n    tag_480:\n        /* \"Verfiy.sol\":2862:2867  k = 0 */\n      swap10\n      0x00\n      swap10\n        /* \"Verfiy.sol\":2877:2889  temp1 = rho1 */\n      dup13\n      swap9\n      dup12\n        /* \"Verfiy.sol\":2936:2939  i++ */\n    tag_483:\n        /* \"Verfiy.sol\":2924:2934  L1 - 1 - 1 */\n      tag_484\n        /* \"Verfiy.sol\":2924:2930  L1 - 1 */\n      tag_465\n      dup12\n      tag_45\n      jump\t// in\n        /* \"Verfiy.sol\":2924:2934  L1 - 1 - 1 */\n    tag_484:\n        /* \"Verfiy.sol\":2919:2934  i <= L1 - 1 - 1 */\n      dup14\n      gt\n      tag_486\n      jumpi\n      mload(0x00)\n      codecopy(0x00, data_3b2d02282c3edcbfc4f9664b53f75892ea03b8fe586039e3ee6fe41258ca9b0d, 0x20)\n      mload(0x00)\n      swap1\n      0x00\n      mstore\n        /* \"Verfiy.sol\":2965:2971  g1s[i] */\n      dup16\n        /* \"Verfiy.sol\":3055:3060  k+=32 */\n      tag_488\n        /* \"Verfiy.sol\":2965:2971  g1s[i] */\n      dup16\n      dup16\n      swap1\n      dup16\n      dup16\n      dup16\n      swap8\n      tag_454\n      dup2\n      dup7\n      tag_455\n        /* \"Verfiy.sol\":3039:3040  k */\n      tag_232\n        /* \"Verfiy.sol\":2965:2971  g1s[i] */\n      swap8\n        /* \"Verfiy.sol\":2998:3004  k+=128 */\n      tag_459\n        /* \"Verfiy.sol\":2965:2971  g1s[i] */\n      swap7\n        /* \"Verfiy.sol\":2936:2939  i++ */\n      tag_493\n        /* \"Verfiy.sol\":2965:2971  g1s[i] */\n      swap15\n      tag_51\n      jump\t// in\n        /* \"Verfiy.sol\":3055:3060  k+=32 */\n    tag_488:\n        /* \"Verfiy.sol\":3082:3104  mulmod(temp1, rho1, q) */\n      swap13\n      mulmod\n        /* \"Verfiy.sol\":2936:2939  i++ */\n      swap13\n      tag_44\n      jump\t// in\n    tag_493:\n        /* \"Verfiy.sol\":2904:2917  uint256 i = 0 */\n      swap12\n      swap10\n      jump(tag_483)\n        /* \"Verfiy.sol\":2919:2934  i <= L1 - 1 - 1 */\n    tag_486:\n      pop\n      swap4\n      dup9\n      dup9\n      dup15\n        /* \"Verfiy.sol\":3174:3190  G1Add(g1, part3) */\n      tag_494\n        /* \"Verfiy.sol\":3145:3156  G1Muls(ag3) */\n      tag_495\n        /* \"Verfiy.sol\":2919:2934  i <= L1 - 1 - 1 */\n      dup16\n        /* \"Verfiy.sol\":3145:3156  G1Muls(ag3) */\n      tag_76\n      jump\t// in\n    tag_495:\n        /* \"Verfiy.sol\":26:13391  contract Verify {... */\n      tag_496\n      tag_53\n      jump\t// in\n    tag_496:\n        /* \"Verfiy.sol\":3174:3190  G1Add(g1, part3) */\n      tag_59\n      jump\t// in\n    tag_494:\n        /* \"Verfiy.sol\":3249:3254  k = 0 */\n      swap1\n      0x00\n        /* \"Verfiy.sol\":3264:3273  temp2 = 1 */\n      swap9\n        /* \"Verfiy.sol\":1521:1522  1 */\n      0x01\n        /* \"Verfiy.sol\":3288:3301  uint256 i = 0 */\n      swap6\n      0x00\n        /* \"Verfiy.sol\":3283:3670  for (uint256 i = 0; i <= 2 * L1 - 1; i++) {... */\n      swap11\n        /* \"Verfiy.sol\":3320:3323  i++ */\n    tag_497:\n        /* \"Verfiy.sol\":3308:3318  2 * L1 - 1 */\n      tag_498\n        /* \"Verfiy.sol\":3308:3314  2 * L1 */\n      tag_465\n      dup9\n      tag_68\n      jump\t// in\n        /* \"Verfiy.sol\":3308:3318  2 * L1 - 1 */\n    tag_498:\n        /* \"Verfiy.sol\":3303:3318  i <= 2 * L1 - 1 */\n      dup13\n      gt\n      tag_500\n      jumpi\n        /* \"Verfiy.sol\":3343:3350  i == L1 */\n      dup10\n      dup15\n      swap2\n      dup14\n      dup12\n      dup15\n      dup12\n      dup4\n      eq\n        /* \"Verfiy.sol\":3343:3365  i == L1 || i == L1 + 1 */\n      dup1\n      iszero\n      tag_502\n      jumpi\n        /* \"Verfiy.sol\":3320:3323  i++ */\n    tag_503:\n        /* \"Verfiy.sol\":3339:3497  if (i == L1 || i == L1 + 1) {... */\n      tag_504\n      jumpi\n        /* \"Verfiy.sol\":3520:3526  g2s[i] */\n      dup13\n        /* \"Verfiy.sol\":3553:3559  k+=256 */\n      tag_459\n        /* \"Verfiy.sol\":3520:3526  g2s[i] */\n      dup6\n      tag_228\n        /* \"Verfiy.sol\":3320:3323  i++ */\n      tag_508\n        /* \"Verfiy.sol\":3520:3526  g2s[i] */\n      swap10\n      swap8\n      dup10\n      tag_230\n        /* \"Verfiy.sol\":3610:3615  k+=32 */\n      tag_510\n        /* \"Verfiy.sol\":3520:3526  g2s[i] */\n      swap10\n      mload(0x00)\n      codecopy(0x00, data_3b2d02282c3edcbfc4f9664b53f75892ea03b8fe586039e3ee6fe41258ca9b0d, 0x20)\n      mload(0x00)\n      swap1\n      0x00\n      mstore\n      swap13\n      swap10\n        /* \"Verfiy.sol\":3594:3595  k */\n      tag_232\n        /* \"Verfiy.sol\":3520:3526  g2s[i] */\n      swap10\n      tag_51\n      jump\t// in\n        /* \"Verfiy.sol\":3610:3615  k+=32 */\n    tag_510:\n        /* \"Verfiy.sol\":3637:3659  mulmod(temp2, rho2, q) */\n      swap10\n      mulmod\n        /* \"Verfiy.sol\":3320:3323  i++ */\n      swap12\n      tag_44\n      jump\t// in\n    tag_508:\n        /* \"Verfiy.sol\":3288:3301  uint256 i = 0 */\n      swap11\n      swap7\n      jump(tag_497)\n        /* \"Verfiy.sol\":3339:3497  if (i == L1 || i == L1 + 1) {... */\n    tag_504:\n        /* \"Verfiy.sol\":3434:3456  mulmod(temp2, rho2, q) */\n      pop\n      pop\n      pop\n      swap9\n      mload(0x00)\n      codecopy(0x00, data_3b2d02282c3edcbfc4f9664b53f75892ea03b8fe586039e3ee6fe41258ca9b0d, 0x20)\n      mload(0x00)\n      swap1\n      0x00\n      mstore\n      swap2\n      pop\n      swap2\n        /* \"Verfiy.sol\":3320:3323  i++ */\n      tag_508\n        /* \"Verfiy.sol\":3434:3456  mulmod(temp2, rho2, q) */\n      swap3\n      mulmod\n        /* \"Verfiy.sol\":3474:3482  continue */\n      swap12\n        /* \"Verfiy.sol\":3320:3323  i++ */\n      tag_44\n      jump\t// in\n        /* \"Verfiy.sol\":3343:3365  i == L1 || i == L1 + 1 */\n    tag_502:\n        /* \"Verfiy.sol\":3359:3365  L1 + 1 */\n      pop\n      tag_513\n      dup13\n      tag_73\n      jump\t// in\n    tag_513:\n        /* \"Verfiy.sol\":3354:3365  i == L1 + 1 */\n      dup4\n      eq\n        /* \"Verfiy.sol\":3343:3365  i == L1 || i == L1 + 1 */\n      jump(tag_503)\n        /* \"Verfiy.sol\":3303:3318  i <= 2 * L1 - 1 */\n    tag_500:\n      pop\n      dup5\n      swap7\n      pop\n      dup6\n        /* \"Verfiy.sol\":26:13391  contract Verify {... */\n      tag_255\n        /* \"Verfiy.sol\":3303:3318  i <= 2 * L1 - 1 */\n      dup2\n        /* \"Verfiy.sol\":26:13391  contract Verify {... */\n      tag_515\n        /* \"Verfiy.sol\":3303:3318  i <= 2 * L1 - 1 */\n      dup16\n        /* \"Verfiy.sol\":574:1091  hex\"00000000000000000000000000000000024aa2b2f08f0a91260805272dc51051c6e47ad4fa403b02b4510b647ae3d1770bac0326a805bbefd48056c8c121bdb80000000000000000000000000000000013e02b6052719f607dacd3a088274f65596bd0d09920b61ab5da61bbdc7f5049334cf11213945d57e5ac7d055d042b7e000000000000000000000000000000000ce5d527727d6e118cc9cdc6da2e351aadfd9baa8cbdd3a76d429a695160d12c923ac9cc3baca289e193548608b82801000000000000000000000000000000000606c4a02ea734cc32acd2b02bc28b99cb3e287e85a763af267492ab572e99ab3f370d275cec1da1aaa9075ff05f79be\" */\n      tag_251\n        /* \"Verfiy.sol\":3303:3318  i <= 2 * L1 - 1 */\n      swap15\n        /* \"Verfiy.sol\":3789:3861  require(EqualPairingCheck(part1, part2, part3, part4),\"Check2-1 Failed\") */\n      tag_517\n        /* \"Verfiy.sol\":4008:4014  g1s[0] */\n      tag_518\n        /* \"Verfiy.sol\":3303:3318  i <= 2 * L1 - 1 */\n      swap16\n      dup6\n      swap16\n      swap12\n      swap13\n        /* \"Verfiy.sol\":3875:3923  EqualPairingCheck(g1,g2s[L1+1],g1s[1],g2s[L1-1]) */\n      tag_519\n        /* \"Verfiy.sol\":3303:3318  i <= 2 * L1 - 1 */\n      swap14\n        /* \"Verfiy.sol\":3867:3942  require(EqualPairingCheck(g1,g2s[L1+1],g1s[1],g2s[L1-1]),\"Check2-2 Failed\") */\n      tag_520\n        /* \"Verfiy.sol\":3303:3318  i <= 2 * L1 - 1 */\n      swap16\n      swap13\n        /* \"Verfiy.sol\":3917:3921  L1-1 */\n      tag_521\n        /* \"Verfiy.sol\":3303:3318  i <= 2 * L1 - 1 */\n      swap13\n        /* \"Verfiy.sol\":3717:3783  require(EqualPairingCheck(g1s[0],g2,lastg , gtau),\"Check1 Failed\") */\n      tag_522\n        /* \"Verfiy.sol\":3303:3318  i <= 2 * L1 - 1 */\n      dup5\n      swap16\n        /* \"Verfiy.sol\":26:13391  contract Verify {... */\n      tag_526\n        /* \"Verfiy.sol\":3303:3318  i <= 2 * L1 - 1 */\n      swap15\n        /* \"Verfiy.sol\":3913:3922  g2s[L1-1] */\n      tag_524\n        /* \"Verfiy.sol\":3303:3318  i <= 2 * L1 - 1 */\n      swap11\n        /* \"Verfiy.sol\":26:13391  contract Verify {... */\n      tag_525\n      tag_526\n        /* \"Verfiy.sol\":3743:3749  g1s[0] */\n      tag_527\n        /* \"Verfiy.sol\":3725:3766  EqualPairingCheck(g1s[0],g2,lastg , gtau) */\n      tag_528\n        /* \"Verfiy.sol\":3303:3318  i <= 2 * L1 - 1 */\n      swap6\n        /* \"Verfiy.sol\":3700:3711  G2Muls(ag4) */\n      tag_529\n        /* \"Verfiy.sol\":3797:3842  EqualPairingCheck(part1, part2, part3, part4) */\n      tag_530\n        /* \"Verfiy.sol\":3303:3318  i <= 2 * L1 - 1 */\n      swap14\n        /* \"Verfiy.sol\":3700:3711  G2Muls(ag4) */\n      tag_57\n      jump\t// in\n    tag_529:\n        /* \"Verfiy.sol\":3743:3749  g1s[0] */\n      swap12\n      tag_49\n      jump\t// in\n    tag_527:\n        /* \"Verfiy.sol\":26:13391  contract Verify {... */\n      swap3\n      swap1\n      tag_255\n      tag_84\n      jump\t// in\n    tag_525:\n      swap4\n      tag_255\n      tag_25\n      jump\t// in\n    tag_526:\n        /* \"Verfiy.sol\":3725:3766  EqualPairingCheck(g1s[0],g2,lastg , gtau) */\n      swap3\n      tag_77\n      jump\t// in\n    tag_528:\n        /* \"Verfiy.sol\":3717:3783  require(EqualPairingCheck(g1s[0],g2,lastg , gtau),\"Check1 Failed\") */\n      tag_101\n      jump\t// in\n    tag_522:\n        /* \"Verfiy.sol\":3797:3842  EqualPairingCheck(part1, part2, part3, part4) */\n      tag_77\n      jump\t// in\n    tag_530:\n        /* \"Verfiy.sol\":3789:3861  require(EqualPairingCheck(part1, part2, part3, part4),\"Check2-1 Failed\") */\n      tag_85\n      jump\t// in\n    tag_517:\n        /* \"Verfiy.sol\":26:13391  contract Verify {... */\n      tag_533\n      tag_53\n      jump\t// in\n    tag_533:\n        /* \"Verfiy.sol\":3900:3904  L1+1 */\n      swap10\n        /* \"Verfiy.sol\":3906:3912  g1s[1] */\n      tag_534\n        /* \"Verfiy.sol\":3896:3905  g2s[L1+1] */\n      tag_535\n        /* \"Verfiy.sol\":3900:3904  L1+1 */\n      tag_536\n      dup8\n      tag_73\n      jump\t// in\n    tag_536:\n        /* \"Verfiy.sol\":3896:3905  g2s[L1+1] */\n      dup4\n      dup6\n      tag_51\n      jump\t// in\n    tag_535:\n        /* \"Verfiy.sol\":3906:3912  g1s[1] */\n      swap9\n      swap1\n      swap12\n      tag_50\n      jump\t// in\n    tag_534:\n        /* \"Verfiy.sol\":3917:3921  L1-1 */\n      swap10\n      swap1\n      swap6\n      tag_45\n      jump\t// in\n    tag_521:\n        /* \"Verfiy.sol\":3913:3922  g2s[L1-1] */\n      swap2\n      tag_51\n      jump\t// in\n    tag_524:\n        /* \"Verfiy.sol\":26:13391  contract Verify {... */\n      swap8\n      swap1\n      swap5\n      calldatasize\n      swap2\n      tag_12\n      jump\t// in\n    tag_515:\n      swap5\n      calldatasize\n      swap2\n      tag_12\n      jump\t// in\n        /* \"Verfiy.sol\":3875:3923  EqualPairingCheck(g1,g2s[L1+1],g1s[1],g2s[L1-1]) */\n    tag_519:\n        /* \"Verfiy.sol\":3867:3942  require(EqualPairingCheck(g1,g2s[L1+1],g1s[1],g2s[L1-1]),\"Check2-2 Failed\") */\n      tag_86\n      jump\t// in\n    tag_520:\n        /* \"Verfiy.sol\":3948:3996  require(ZeroCheck(g1s[0])!=true,\"Check3 Failed\") */\n      tag_537\n        /* \"Verfiy.sol\":1521:1522  1 */\n      0x01\n        /* \"Verfiy.sol\":26:13391  contract Verify {... */\n      tag_538\n        /* \"Verfiy.sol\":3966:3972  g1s[0] */\n      tag_342\n      dup6\n      dup6\n      tag_49\n      jump\t// in\n        /* \"Verfiy.sol\":26:13391  contract Verify {... */\n    tag_538:\n      iszero\n      iszero\n        /* \"Verfiy.sol\":3956:3979  ZeroCheck(g1s[0])!=true */\n      eq\n      iszero\n        /* \"Verfiy.sol\":3948:3996  require(ZeroCheck(g1s[0])!=true,\"Check3 Failed\") */\n      tag_87\n      jump\t// in\n    tag_537:\n        /* \"Verfiy.sol\":4008:4014  g1s[0] */\n      tag_49\n      jump\t// in\n    tag_518:\n        /* \"Verfiy.sol\":574:1091  hex\"00000000000000000000000000000000024aa2b2f08f0a91260805272dc51051c6e47ad4fa403b02b4510b647ae3d1770bac0326a805bbefd48056c8c121bdb80000000000000000000000000000000013e02b6052719f607dacd3a088274f65596bd0d09920b61ab5da61bbdc7f5049334cf11213945d57e5ac7d055d042b7e000000000000000000000000000000000ce5d527727d6e118cc9cdc6da2e351aadfd9baa8cbdd3a76d429a695160d12c923ac9cc3baca289e193548608b82801000000000000000000000000000000000606c4a02ea734cc32acd2b02bc28b99cb3e287e85a763af267492ab572e99ab3f370d275cec1da1aaa9075ff05f79be\" */\n      swap1\n      tag_90\n      jump\t// in\n        /* \"Verfiy.sol\":26:13391  contract Verify {... */\n    tag_43:\n      mstore(0x00, shl(0xe0, 0x4e487b71))\n      mstore(0x04, 0x11)\n      revert(0x00, 0x24)\n    tag_44:\n      not(0x00)\n      dup2\n      eq\n      tag_402\n      jumpi\n      0x01\n      add\n      swap1\n      jump\t// out\n    tag_45:\n      not(0x00)\n      dup2\n      add\n      swap2\n      swap1\n      dup3\n      gt\n      tag_402\n      jumpi\n      jump\t// out\n    tag_46:\n      not(0x02)\n      dup2\n      add\n      swap2\n      swap1\n      dup3\n      gt\n      tag_402\n      jumpi\n      jump\t// out\n    tag_47:\n      not(0x01)\n      dup2\n      add\n      swap2\n      swap1\n      dup3\n      gt\n      tag_402\n      jumpi\n      jump\t// out\n    tag_48:\n      swap2\n      swap1\n      dup3\n      sub\n      swap2\n      dup3\n      gt\n      tag_402\n      jumpi\n      jump\t// out\n    tag_49:\n      swap1\n      iszero\n      tag_257\n      jumpi\n      dup1\n      calldataload\n      swap1\n      not(0x1e)\n      dup2\n      calldatasize\n      sub\n      add\n      dup3\n      slt\n      iszero\n      tag_150\n      jumpi\n      add\n      swap1\n      dup2\n      calldataload\n      swap2\n      sub(shl(0x40, 0x01), 0x01)\n      dup4\n      gt\n      tag_150\n      jumpi\n      0x20\n      add\n      dup3\n      calldatasize\n      sub\n      dup2\n      sgt\n      tag_150\n      jumpi\n      swap2\n      swap1\n      jump\t// out\n    tag_50:\n      swap1\n        /* \"Verfiy.sol\":1521:1522  1 */\n      0x01\n        /* \"Verfiy.sol\":26:13391  contract Verify {... */\n      lt\n      iszero\n      tag_257\n      jumpi\n      0x20\n      dup2\n      add\n      calldataload\n      swap1\n      not(0x1e)\n      dup2\n      calldatasize\n      sub\n      add\n      dup3\n      slt\n      iszero\n      tag_150\n      jumpi\n      add\n      swap1\n      dup2\n      calldataload\n      swap2\n      sub(shl(0x40, 0x01), 0x01)\n      dup4\n      gt\n      tag_150\n      jumpi\n      0x20\n      add\n      dup3\n      calldatasize\n      sub\n      dup2\n      sgt\n      tag_150\n      jumpi\n      swap2\n      swap1\n      jump\t// out\n    tag_51:\n      swap2\n      swap1\n      dup2\n      lt\n      iszero\n      tag_257\n      jumpi\n      0x05\n      shl\n      dup2\n      add\n      calldataload\n      swap1\n      not(0x1e)\n      dup2\n      calldatasize\n      sub\n      add\n      dup3\n      slt\n      iszero\n      tag_150\n      jumpi\n      add\n      swap1\n      dup2\n      calldataload\n      swap2\n      sub(shl(0x40, 0x01), 0x01)\n      dup4\n      gt\n      tag_150\n      jumpi\n      0x20\n      add\n      dup3\n      calldatasize\n      sub\n      dup2\n      sgt\n      tag_150\n      jumpi\n      swap2\n      swap1\n      jump\t// out\n    tag_52:\n      iszero\n      tag_575\n      jumpi\n      jump\t// out\n    tag_575:\n      mload(0x40)\n      shl(0xe5, 0x461bcd)\n      dup2\n      mstore\n      0x20\n      0x04\n      dup3\n      add\n      mstore\n      0x10\n      0x24\n      dup3\n      add\n      mstore\n      shl(0x82, 0x12d95e50da1958dacc4811985a5b1959)\n      0x44\n      dup3\n      add\n      mstore\n      0x64\n      swap1\n      revert\n    tag_53:\n      mload(0x40)\n      swap1\n      tag_577\n      0xa0\n      dup4\n      tag_10\n      jump\t// in\n    tag_577:\n      0x80\n      dup3\n      mstore\n      0xfcf5e095d5d00af600db18cb2c04b3edd03cc744a2888ae40caa232946c5e7e1\n      0x80\n      dup4\n      0x17f1d3a73197d7942695638c4fa9ac0f\n      0x20\n      dup3\n      add\n      mstore\n      0xc3688c4f9774b905a14e3a3f171bac586c55e83ff97a1aeffb3af00adb22c6bb\n      0x40\n      dup3\n      add\n      mstore\n      0x08b3f481e3aaa0f1a09e30ed741d8ae4\n      0x60\n      dup3\n      add\n      mstore\n      add\n      mstore\n      jump\t// out\n        /* \"Verfiy.sol\":279:540  hex\"0000000000000000000000000000000017f1d3a73197d7942695638c4fa9ac0fc3688c4f9774b905a14e3a3f171bac586c55e83ff97a1aeffb3af00adb22c6bb0000000000000000000000000000000008b3f481e3aaa0f1a09e30ed741d8ae4fcf5e095d5d00af600db18cb2c04b3edd03cc744a2888ae40caa232946c5e7e1\" */\n    tag_54:\n      iszero\n      tag_578\n      jumpi\n      jump\t// out\n    tag_578:\n        /* \"Verfiy.sol\":26:13391  contract Verify {... */\n      mload(0x40)\n      shl(0xe5, 0x461bcd)\n        /* \"Verfiy.sol\":279:540  hex\"0000000000000000000000000000000017f1d3a73197d7942695638c4fa9ac0fc3688c4f9774b905a14e3a3f171bac586c55e83ff97a1aeffb3af00adb22c6bb0000000000000000000000000000000008b3f481e3aaa0f1a09e30ed741d8ae4fcf5e095d5d00af600db18cb2c04b3edd03cc744a2888ae40caa232946c5e7e1\" */\n      dup2\n      mstore\n      0x20\n      0x04\n      dup3\n      add\n      mstore\n      0x10\n      0x24\n      dup3\n      add\n        /* \"Verfiy.sol\":26:13391  contract Verify {... */\n      mstore\n      shl(0x82, 0x12d95e50da1958dacc8811985a5b1959)\n      0x44\n      dup3\n      add\n        /* \"Verfiy.sol\":279:540  hex\"0000000000000000000000000000000017f1d3a73197d7942695638c4fa9ac0fc3688c4f9774b905a14e3a3f171bac586c55e83ff97a1aeffb3af00adb22c6bb0000000000000000000000000000000008b3f481e3aaa0f1a09e30ed741d8ae4fcf5e095d5d00af600db18cb2c04b3edd03cc744a2888ae40caa232946c5e7e1\" */\n      mstore\n      0x64\n      swap1\n      revert\n        /* \"Verfiy.sol\":8988:9450  function CheckKeyDBE(bytes calldata g1s,bytes[] calldata g2s,uint256 index)public  returns (bool){... */\n    tag_55:\n      swap2\n      swap5\n      swap4\n      swap5\n      swap3\n      swap1\n      swap3\n        /* \"Verfiy.sol\":26:13391  contract Verify {... */\n      0x00\n        /* \"Verfiy.sol\":9141:9144  i++ */\n    tag_580:\n        /* \"Verfiy.sol\":9137:9140  L-2 */\n      tag_581\n      dup4\n      tag_47\n      jump\t// in\n    tag_581:\n        /* \"Verfiy.sol\":9134:9140  i<=L-2 */\n      dup2\n      gt\n      tag_582\n      jumpi\n        /* \"Verfiy.sol\":9141:9144  i++ */\n      tag_584\n        /* \"Verfiy.sol\":9161:9168  L-index */\n      swap1\n      tag_585\n      dup9\n      dup6\n      tag_48\n      jump\t// in\n    tag_585:\n        /* \"Verfiy.sol\":9158:9168  i==L-index */\n      dup2\n      eq\n        /* \"Verfiy.sol\":9155:9202  if(i==L-index){... */\n      tag_398\n      jumpi\n        /* \"Verfiy.sol\":9211:9297  require(EqualPairingCheck(ppg1s[L-i-1-1], g2s[i], g1s, ppg2s[L-1]),\"KeyCheck1 Failed\") */\n      tag_398\n        /* \"Verfiy.sol\":9219:9277  EqualPairingCheck(ppg1s[L-i-1-1], g2s[i], g1s, ppg2s[L-1]) */\n      tag_589\n        /* \"Verfiy.sol\":26:13391  contract Verify {... */\n      tag_590\n        /* \"Verfiy.sol\":9237:9251  ppg1s[L-i-1-1] */\n      tag_591\n        /* \"Verfiy.sol\":9243:9250  L-i-1-1 */\n      tag_592\n        /* \"Verfiy.sol\":9243:9248  L-i-1 */\n      tag_465\n        /* \"Verfiy.sol\":9243:9246  L-i */\n      tag_465\n      dup8\n      dup12\n      tag_48\n      jump\t// in\n        /* \"Verfiy.sol\":9243:9250  L-i-1-1 */\n    tag_592:\n        /* \"Verfiy.sol\":9237:9251  ppg1s[L-i-1-1] */\n      tag_23\n      jump\t// in\n    tag_591:\n        /* \"Verfiy.sol\":9253:9259  g2s[i] */\n      pop\n      tag_595\n      dup6\n      dup10\n      dup10\n      tag_51\n      jump\t// in\n    tag_595:\n        /* \"Verfiy.sol\":9272:9275  L-1 */\n      swap3\n      swap1\n        /* \"Verfiy.sol\":26:13391  contract Verify {... */\n      tag_255\n        /* \"Verfiy.sol\":9266:9276  ppg2s[L-1] */\n      tag_597\n        /* \"Verfiy.sol\":9272:9275  L-1 */\n      tag_598\n      dup13\n      tag_45\n      jump\t// in\n    tag_598:\n        /* \"Verfiy.sol\":9266:9276  ppg2s[L-1] */\n      tag_22\n      jump\t// in\n    tag_597:\n        /* \"Verfiy.sol\":26:13391  contract Verify {... */\n      pop\n      swap4\n      tag_26\n      jump\t// in\n    tag_590:\n      tag_526\n      tag_600\n      calldatasize\n      dup14\n      dup14\n      tag_12\n      jump\t// in\n    tag_600:\n      swap3\n      tag_26\n      jump\t// in\n        /* \"Verfiy.sol\":9219:9277  EqualPairingCheck(ppg1s[L-i-1-1], g2s[i], g1s, ppg2s[L-1]) */\n    tag_589:\n        /* \"Verfiy.sol\":9211:9297  require(EqualPairingCheck(ppg1s[L-i-1-1], g2s[i], g1s, ppg2s[L-1]),\"KeyCheck1 Failed\") */\n      tag_52\n      jump\t// in\n        /* \"Verfiy.sol\":9141:9144  i++ */\n    tag_584:\n        /* \"Verfiy.sol\":9122:9133  uint256 i=0 */\n      jump(tag_580)\n        /* \"Verfiy.sol\":9134:9140  i<=L-2 */\n    tag_582:\n      pop\n      swap2\n      swap3\n      swap4\n      swap5\n        /* \"Verfiy.sol\":9247:9248  1 */\n      0x01\n        /* \"Verfiy.sol\":9312:9320  index==1 */\n      eq\n        /* \"Verfiy.sol\":9309:9349  if(index==1){... */\n      tag_602\n      jumpi\n        /* \"Verfiy.sol\":9353:9430  require(EqualPairingCheck(g1, g2s[L-1], g1s, ppg2s[L-1]),\"KeyCheck2 Failed\" ) */\n      tag_604\n        /* \"Verfiy.sol\":26:13391  contract Verify {... */\n      swap4\n      tag_526\n      tag_600\n        /* \"Verfiy.sol\":9361:9409  EqualPairingCheck(g1, g2s[L-1], g1s, ppg2s[L-1]) */\n      tag_607\n        /* \"Verfiy.sol\":26:13391  contract Verify {... */\n      swap6\n      tag_255\n        /* \"Verfiy.sol\":9404:9407  L-1 */\n      tag_598\n        /* \"Verfiy.sol\":26:13391  contract Verify {... */\n      swap6\n        /* \"Verfiy.sol\":9398:9408  ppg2s[L-1] */\n      tag_610\n        /* \"Verfiy.sol\":9383:9391  g2s[L-1] */\n      tag_611\n        /* \"Verfiy.sol\":26:13391  contract Verify {... */\n      tag_612\n      tag_53\n      jump\t// in\n    tag_612:\n        /* \"Verfiy.sol\":9387:9390  L-1 */\n      swap10\n      dup4\n      tag_521\n      dup2\n      tag_45\n      jump\t// in\n        /* \"Verfiy.sol\":9383:9391  g2s[L-1] */\n    tag_611:\n        /* \"Verfiy.sol\":9404:9407  L-1 */\n      swap9\n      swap1\n      swap3\n      tag_45\n      jump\t// in\n        /* \"Verfiy.sol\":9398:9408  ppg2s[L-1] */\n    tag_610:\n        /* \"Verfiy.sol\":26:13391  contract Verify {... */\n      pop\n      swap7\n      calldatasize\n      swap2\n      tag_12\n      jump\t// in\n        /* \"Verfiy.sol\":9361:9409  EqualPairingCheck(g1, g2s[L-1], g1s, ppg2s[L-1]) */\n    tag_607:\n        /* \"Verfiy.sol\":9353:9430  require(EqualPairingCheck(g1, g2s[L-1], g1s, ppg2s[L-1]),\"KeyCheck2 Failed\" ) */\n      tag_54\n      jump\t// in\n    tag_604:\n        /* \"Verfiy.sol\":9247:9248  1 */\n      0x01\n        /* \"Verfiy.sol\":8988:9450  function CheckKeyDBE(bytes calldata g1s,bytes[] calldata g2s,uint256 index)public  returns (bool){... */\n      swap1\n      jump\t// out\n        /* \"Verfiy.sol\":9309:9349  if(index==1){... */\n    tag_602:\n        /* \"Verfiy.sol\":9331:9342  return true */\n      pop\n      pop\n      pop\n      pop\n        /* \"Verfiy.sol\":9247:9248  1 */\n      0x01\n        /* \"Verfiy.sol\":9331:9342  return true */\n      swap1\n      jump\t// out\n        /* \"Verfiy.sol\":26:13391  contract Verify {... */\n    tag_56:\n      jumpi(tag_614, iszero(returndatasize))\n      returndatasize\n      swap1\n      tag_616\n      dup3\n      tag_11\n      jump\t// in\n    tag_616:\n      swap2\n      tag_617\n      mload(0x40)\n      swap4\n      dup5\n      tag_10\n      jump\t// in\n    tag_617:\n      dup3\n      mstore\n      returndatasize\n      0x00\n      0x20\n      dup5\n      add\n      returndatacopy\n      jump\t// out\n    tag_614:\n      0x60\n      swap1\n      jump\t// out\n        /* \"Verfiy.sol\":12087:12254  function G2Muls(bytes memory d) public view returns (bytes memory point) {... */\n    tag_57:\n        /* \"Verfiy.sol\":12200:12227  address(0x0e).staticcall(d) */\n      0x00\n        /* \"Verfiy.sol\":12087:12254  function G2Muls(bytes memory d) public view returns (bytes memory point) {... */\n      dup1\n      swap2\n        /* \"Verfiy.sol\":12200:12227  address(0x0e).staticcall(d) */\n      0x20\n      dup2\n      mload\n      swap2\n      add\n        /* \"Verfiy.sol\":12208:12212  0x0e */\n      0x0e\n        /* \"Verfiy.sol\":12200:12227  address(0x0e).staticcall(d) */\n      gas\n      staticcall\n      pop\n      tag_184\n      tag_56\n      jump\t// in\n        /* \"Verfiy.sol\":26:13391  contract Verify {... */\n    tag_58:\n      dup1\n      mload\n      swap2\n      swap1\n      dup3\n      swap1\n      0x20\n      add\n      dup3\n      mcopy\n      add\n      0x00\n      dup2\n      mstore\n      swap1\n      jump\t// out\n        /* \"Verfiy.sol\":10808:11073  function G1Add(... */\n    tag_59:\n        /* \"Verfiy.sol\":11015:11046  address(0x0b).staticcall(input) */\n      0x00\n        /* \"Verfiy.sol\":10808:11073  function G1Add(... */\n      swap2\n      swap1\n        /* \"Verfiy.sol\":26:13391  contract Verify {... */\n      tag_213\n        /* \"Verfiy.sol\":10951:10975  abi.encodePacked(p1, p2) */\n      tag_621\n        /* \"Verfiy.sol\":10808:11073  function G1Add(... */\n      dup5\n      swap4\n        /* \"Verfiy.sol\":26:13391  contract Verify {... */\n      mload(0x40)\n        /* \"Verfiy.sol\":10951:10975  abi.encodePacked(p1, p2) */\n      swap3\n      dup4\n      swap2\n        /* \"Verfiy.sol\":26:13391  contract Verify {... */\n      tag_312\n        /* \"Verfiy.sol\":10951:10975  abi.encodePacked(p1, p2) */\n      0x20\n      dup5\n      add\n        /* \"Verfiy.sol\":26:13391  contract Verify {... */\n      dup1\n      swap8\n      tag_58\n      jump\t// in\n        /* \"Verfiy.sol\":10951:10975  abi.encodePacked(p1, p2) */\n    tag_621:\n        /* \"Verfiy.sol\":11015:11046  address(0x0b).staticcall(input) */\n      mload\n      swap1\n        /* \"Verfiy.sol\":11023:11027  0x0b */\n      0x0b\n        /* \"Verfiy.sol\":11015:11046  address(0x0b).staticcall(input) */\n      gas\n      staticcall\n      pop\n      tag_184\n      tag_56\n      jump\t// in\n        /* \"Verfiy.sol\":26:13391  contract Verify {... */\n    tag_60:\n      swap1\n      dup1\n      0x20\n      swap4\n      swap3\n      dup2\n      dup5\n      mstore\n      dup5\n      dup5\n      add\n      calldatacopy\n      0x00\n      dup3\n      dup3\n      add\n      dup5\n      add\n      mstore\n      0x1f\n      add\n      not(0x1f)\n      and\n      add\n      add\n      swap1\n      jump\t// out\n    tag_61:\n      swap1\n      0x20\n      dup4\n      dup3\n      dup2\n      mstore\n      add\n      swap1\n      0x20\n      dup2\n      0x05\n      shl\n      dup6\n      add\n      add\n      swap4\n      dup4\n      0x00\n      swap2\n    tag_624:\n      dup4\n      dup4\n      lt\n      tag_625\n      jumpi\n      pop\n      pop\n      pop\n      pop\n      pop\n      pop\n      swap1\n      jump\t// out\n    tag_625:\n      swap1\n      swap2\n      swap3\n      swap4\n      swap5\n      swap6\n      not(0x1f)\n      dup3\n      dup3\n      sub\n      add\n      dup7\n      mstore\n      dup7\n      calldataload\n      not(0x1e)\n      dup5\n      calldatasize\n      sub\n      add\n      dup2\n      slt\n      iszero\n      tag_150\n      jumpi\n      dup4\n      add\n      swap1\n      0x20\n      dup3\n      calldataload\n      swap3\n      add\n      swap2\n      sub(shl(0x40, 0x01), 0x01)\n      dup2\n      gt\n      tag_150\n      jumpi\n      dup1\n      calldatasize\n      sub\n      dup4\n      sgt\n      tag_150\n      jumpi\n      tag_633\n      0x20\n      swap3\n      dup4\n      swap3\n      0x01\n      swap6\n      tag_60\n      jump\t// in\n    tag_633:\n      swap9\n      add\n      swap7\n      add\n      swap5\n      swap4\n      add\n      swap2\n      swap1\n      jump(tag_624)\n    tag_62:\n      swap3\n      swap1\n      tag_634\n      swap1\n      tag_184\n      swap6\n      swap4\n      0x40\n      dup7\n      mstore\n      0x40\n      dup7\n      add\n      swap2\n      tag_60\n      jump\t// in\n    tag_634:\n      swap3\n      0x20\n      dup2\n      dup6\n      sub\n      swap2\n      add\n      mstore\n      tag_61\n      jump\t// in\n        /* \"Verfiy.sol\":77:143  0x73eda753299d7d483339d80809a1d80553bda402fffe5bfeffffffff00000001 */\n    tag_64:\n      swap1\n      dup2\n        /* \"Verfiy.sol\":7793:7796  288 */\n      0x0120\n        /* \"Verfiy.sol\":77:143  0x73eda753299d7d483339d80809a1d80553bda402fffe5bfeffffffff00000001 */\n      mul\n      swap2\n        /* \"Verfiy.sol\":7793:7796  288 */\n      0x0120\n        /* \"Verfiy.sol\":77:143  0x73eda753299d7d483339d80809a1d80553bda402fffe5bfeffffffff00000001 */\n      dup4\n      div\n      sub\n      tag_402\n      jumpi\n      jump\t// out\n    tag_65:\n      swap1\n      dup2\n      0x01\n      shl\n      swap2\n      dup1\n      dup4\n      div\n        /* \"Verfiy.sol\":1351:1352  2 */\n      0x02\n        /* \"Verfiy.sol\":77:143  0x73eda753299d7d483339d80809a1d80553bda402fffe5bfeffffffff00000001 */\n      eq\n      swap1\n      iszero\n      or\n      iszero\n      tag_402\n      jumpi\n      jump\t// out\n    tag_66:\n      swap1\n        /* \"Verfiy.sol\":1650:1653  160 */\n      0xa0\n        /* \"Verfiy.sol\":77:143  0x73eda753299d7d483339d80809a1d80553bda402fffe5bfeffffffff00000001 */\n      dup3\n      mul\n      swap2\n      dup1\n      dup4\n      div\n        /* \"Verfiy.sol\":1650:1653  160 */\n      0xa0\n        /* \"Verfiy.sol\":77:143  0x73eda753299d7d483339d80809a1d80553bda402fffe5bfeffffffff00000001 */\n      eq\n      swap1\n      iszero\n      or\n      iszero\n      tag_402\n      jumpi\n      jump\t// out\n    tag_67:\n      swap1\n        /* \"Verfiy.sol\":1704:1707  288 */\n      0x0120\n        /* \"Verfiy.sol\":77:143  0x73eda753299d7d483339d80809a1d80553bda402fffe5bfeffffffff00000001 */\n      dup3\n      mul\n      swap2\n      dup1\n      dup4\n      div\n        /* \"Verfiy.sol\":1704:1707  288 */\n      0x0120\n        /* \"Verfiy.sol\":77:143  0x73eda753299d7d483339d80809a1d80553bda402fffe5bfeffffffff00000001 */\n      eq\n      swap1\n      iszero\n      or\n      iszero\n      tag_402\n      jumpi\n      jump\t// out\n    tag_68:\n      0x01\n      dup2\n      swap1\n      shl\n      swap2\n      swap1\n      sub(shl(0xff, 0x01), 0x01)\n      dup2\n      and\n      sub\n      tag_402\n      jumpi\n      jump\t// out\n    tag_69:\n      swap1\n        /* \"Verfiy.sol\":26:13391  contract Verify {... */\n      tag_646\n      dup3\n      tag_11\n      jump\t// in\n    tag_646:\n      tag_647\n      mload(0x40)\n      swap2\n      dup3\n      tag_10\n      jump\t// in\n    tag_647:\n      dup3\n      dup2\n      mstore\n        /* \"Verfiy.sol\":77:143  0x73eda753299d7d483339d80809a1d80553bda402fffe5bfeffffffff00000001 */\n      dup1\n        /* \"Verfiy.sol\":26:13391  contract Verify {... */\n      swap3\n        /* \"Verfiy.sol\":77:143  0x73eda753299d7d483339d80809a1d80553bda402fffe5bfeffffffff00000001 */\n      tag_648\n        /* \"Verfiy.sol\":26:13391  contract Verify {... */\n      not(0x1f)\n        /* \"Verfiy.sol\":77:143  0x73eda753299d7d483339d80809a1d80553bda402fffe5bfeffffffff00000001 */\n      swap2\n      tag_11\n      jump\t// in\n    tag_648:\n      add\n      swap1\n      0x20\n      calldatasize\n      swap2\n      add\n      calldatacopy\n      jump\t// out\n    tag_70:\n      swap1\n        /* \"Verfiy.sol\":8229:8232  256 */\n      0x0100\n        /* \"Verfiy.sol\":77:143  0x73eda753299d7d483339d80809a1d80553bda402fffe5bfeffffffff00000001 */\n      dup3\n      add\n      dup1\n      swap3\n      gt\n      tag_402\n      jumpi\n      jump\t// out\n    tag_71:\n      swap1\n        /* \"Verfiy.sol\":7727:7747  abi.encode(g1s, g2s) */\n      0x20\n        /* \"Verfiy.sol\":77:143  0x73eda753299d7d483339d80809a1d80553bda402fffe5bfeffffffff00000001 */\n      dup3\n      add\n      dup1\n      swap3\n      gt\n      tag_402\n      jumpi\n      jump\t// out\n    tag_72:\n      swap1\n        /* \"Verfiy.sol\":1993:1996  128 */\n      0x80\n        /* \"Verfiy.sol\":77:143  0x73eda753299d7d483339d80809a1d80553bda402fffe5bfeffffffff00000001 */\n      dup3\n      add\n      dup1\n      swap3\n      gt\n      tag_402\n      jumpi\n      jump\t// out\n    tag_73:\n      swap1\n        /* \"Verfiy.sol\":1521:1522  1 */\n      0x01\n        /* \"Verfiy.sol\":77:143  0x73eda753299d7d483339d80809a1d80553bda402fffe5bfeffffffff00000001 */\n      dup3\n      add\n      dup1\n      swap3\n      gt\n      tag_402\n      jumpi\n      jump\t// out\n    tag_74:\n      iszero\n      tag_657\n      jumpi\n      jump\t// out\n    tag_657:\n        /* \"Verfiy.sol\":26:13391  contract Verify {... */\n      mload(0x40)\n      shl(0xe5, 0x461bcd)\n        /* \"Verfiy.sol\":77:143  0x73eda753299d7d483339d80809a1d80553bda402fffe5bfeffffffff00000001 */\n      dup2\n      mstore\n      0x20\n      0x04\n      dup3\n      add\n      mstore\n      0x0d\n      0x24\n      dup3\n      add\n        /* \"Verfiy.sol\":26:13391  contract Verify {... */\n      mstore\n      shl(0x9a, 0x10da1958dad2d95e4811985a5b)\n      0x44\n      dup3\n      add\n        /* \"Verfiy.sol\":77:143  0x73eda753299d7d483339d80809a1d80553bda402fffe5bfeffffffff00000001 */\n      mstore\n      0x64\n      swap1\n      revert\n        /* \"Verfiy.sol\":26:13391  contract Verify {... */\n    tag_75:\n      0x20\n      dup2\n      mload\n      swap2\n      add\n      mload\n      swap1\n      0x20\n      dup2\n      lt\n      tag_659\n      jumpi\n      pop\n      swap1\n      jump\t// out\n    tag_659:\n      not(0x00)\n      swap1\n      0x20\n      sub\n      0x03\n      shl\n      shl\n      and\n      swap1\n      jump\t// out\n        /* \"Verfiy.sol\":11351:11518  function G1Muls(bytes memory d) public view returns (bytes memory point) {... */\n    tag_76:\n        /* \"Verfiy.sol\":11464:11491  address(0x0c).staticcall(d) */\n      0x00\n        /* \"Verfiy.sol\":11351:11518  function G1Muls(bytes memory d) public view returns (bytes memory point) {... */\n      dup1\n      swap2\n        /* \"Verfiy.sol\":11464:11491  address(0x0c).staticcall(d) */\n      0x20\n      dup2\n      mload\n      swap2\n      add\n        /* \"Verfiy.sol\":11472:11476  0x0c */\n      0x0c\n        /* \"Verfiy.sol\":11464:11491  address(0x0c).staticcall(d) */\n      gas\n      staticcall\n      pop\n      tag_184\n      tag_56\n      jump\t// in\n        /* \"Verfiy.sol\":12622:13013  function EqualPairingCheck(... */\n    tag_77:\n      swap1\n        /* \"Verfiy.sol\":12857:12892  abi.encodePacked(p1, p2, negP3, p4) */\n      tag_662\n        /* \"Verfiy.sol\":26:13391  contract Verify {... */\n      tag_312\n        /* \"Verfiy.sol\":12622:13013  function EqualPairingCheck(... */\n      swap2\n        /* \"Verfiy.sol\":26:13391  contract Verify {... */\n      tag_213\n        /* \"Verfiy.sol\":12932:12963  address(0x0f).staticcall(input) */\n      0x00\n        /* \"Verfiy.sol\":12622:13013  function EqualPairingCheck(... */\n      swap7\n      dup8\n      dup1\n      dup1\n      swap9\n        /* \"Verfiy.sol\":26:13391  contract Verify {... */\n      mload(0x40)\n        /* \"Verfiy.sol\":11220:11248  abi.encodePacked(p1, scalar) */\n      tag_665\n      0x20\n      dup3\n        /* \"Verfiy.sol\":26:13391  contract Verify {... */\n      tag_666\n        /* \"Verfiy.sol\":11220:11248  abi.encodePacked(p1, scalar) */\n      dup3\n      dup3\n      add\n        /* \"Verfiy.sol\":26:13391  contract Verify {... */\n      dup1\n      swap7\n      tag_58\n      jump\t// in\n    tag_666:\n        /* \"Verfiy.sol\":179:245  0x73eda753299d7d483339d80809a1d80553bda402fffe5bfeffffffff00000000 */\n      0x73eda753299d7d483339d80809a1d80553bda402fffe5bfeffffffff00000000\n        /* \"Verfiy.sol\":26:13391  contract Verify {... */\n      dup2\n      mstore\n        /* \"Verfiy.sol\":11220:11248  abi.encodePacked(p1, scalar) */\n      sub\n      dup1\n      dup5\n      mstore\n      add\n      dup3\n      tag_10\n      jump\t// in\n    tag_665:\n        /* \"Verfiy.sol\":11288:11319  address(0x0c).staticcall(input) */\n      mload\n      swap1\n        /* \"Verfiy.sol\":11296:11300  0x0c */\n      0x0c\n        /* \"Verfiy.sol\":11288:11319  address(0x0c).staticcall(input) */\n      gas\n      staticcall\n      pop\n        /* \"Verfiy.sol\":26:13391  contract Verify {... */\n      tag_312\n        /* \"Verfiy.sol\":11288:11319  address(0x0c).staticcall(input) */\n      tag_668\n      tag_56\n      jump\t// in\n    tag_668:\n        /* \"Verfiy.sol\":26:13391  contract Verify {... */\n      mload(0x40)\n        /* \"Verfiy.sol\":12857:12892  abi.encodePacked(p1, p2, negP3, p4) */\n      swap7\n      dup8\n      swap6\n        /* \"Verfiy.sol\":26:13391  contract Verify {... */\n      tag_312\n        /* \"Verfiy.sol\":11220:11248  abi.encodePacked(p1, scalar) */\n      0x20\n        /* \"Verfiy.sol\":12857:12892  abi.encodePacked(p1, p2, negP3, p4) */\n      dup9\n      add\n        /* \"Verfiy.sol\":26:13391  contract Verify {... */\n      dup1\n      swap12\n      tag_58\n      jump\t// in\n        /* \"Verfiy.sol\":12857:12892  abi.encodePacked(p1, p2, negP3, p4) */\n    tag_662:\n        /* \"Verfiy.sol\":12932:12963  address(0x0f).staticcall(input) */\n      mload\n      swap1\n        /* \"Verfiy.sol\":12940:12944  0x0f */\n      0x0f\n        /* \"Verfiy.sol\":12932:12963  address(0x0f).staticcall(input) */\n      gas\n      staticcall\n      pop\n        /* \"Verfiy.sol\":13005:13006  1 */\n      0x01\n        /* \"Verfiy.sol\":12988:13000  bytes32(ret) */\n      tag_670\n        /* \"Verfiy.sol\":12932:12963  address(0x0f).staticcall(input) */\n      tag_314\n      tag_56\n      jump\t// in\n        /* \"Verfiy.sol\":12988:13000  bytes32(ret) */\n    tag_670:\n        /* \"Verfiy.sol\":12980:13006  uint256(bytes32(ret)) == 1 */\n      eq\n        /* \"Verfiy.sol\":12622:13013  function EqualPairingCheck(... */\n      swap1\n      jump\t// out\n        /* \"Verfiy.sol\":11078:11346  function G1Mul(... */\n    tag_79:\n      0x00\n      swap2\n      swap1\n      dup3\n      swap2\n        /* \"Verfiy.sol\":11220:11248  abi.encodePacked(p1, scalar) */\n      tag_672\n      0x20\n        /* \"Verfiy.sol\":26:13391  contract Verify {... */\n      mload(0x40)\n        /* \"Verfiy.sol\":11220:11248  abi.encodePacked(p1, scalar) */\n      dup1\n      swap4\n        /* \"Verfiy.sol\":26:13391  contract Verify {... */\n      tag_673\n        /* \"Verfiy.sol\":11220:11248  abi.encodePacked(p1, scalar) */\n      dup4\n      dup4\n      add\n        /* \"Verfiy.sol\":26:13391  contract Verify {... */\n      dup1\n      swap8\n      tag_58\n      jump\t// in\n    tag_673:\n      swap1\n      dup2\n      mstore\n        /* \"Verfiy.sol\":11220:11248  abi.encodePacked(p1, scalar) */\n      sub\n      dup1\n      dup5\n      mstore\n      add\n      dup3\n      tag_10\n      jump\t// in\n    tag_672:\n        /* \"Verfiy.sol\":11288:11319  address(0x0c).staticcall(input) */\n      mload\n      swap1\n        /* \"Verfiy.sol\":11296:11300  0x0c */\n      0x0c\n        /* \"Verfiy.sol\":11288:11319  address(0x0c).staticcall(input) */\n      gas\n      staticcall\n      pop\n      tag_184\n      tag_56\n      jump\t// in\n        /* \"Verfiy.sol\":26:13391  contract Verify {... */\n    tag_80:\n      iszero\n      tag_150\n      jumpi\n      jump\t// out\n    tag_81:\n      swap5\n      swap4\n      swap3\n      0x00\n      swap4\n      tag_677\n      tag_678\n      swap4\n      0x40\n      swap6\n      0x60\n      dup11\n      mstore\n      0x60\n      dup11\n      add\n      swap2\n      tag_61\n      jump\t// in\n    tag_677:\n      swap2\n      dup8\n      dup4\n      sub\n      0x20\n      dup10\n      add\n      mstore\n      tag_61\n      jump\t// in\n    tag_678:\n      swap4\n      add\n      mstore\n      jump\t// out\n    tag_82:\n      swap5\n      swap4\n      swap3\n        /* \"Verfiy.sol\":1521:1522  1 */\n      0x01\n        /* \"Verfiy.sol\":26:13391  contract Verify {... */\n      swap4\n      tag_677\n      tag_678\n      swap4\n      0x40\n      swap6\n      0x60\n      dup11\n      mstore\n      0x60\n      dup11\n      add\n      swap2\n      tag_61\n      jump\t// in\n    tag_83:\n      iszero\n      tag_681\n      jumpi\n      jump\t// out\n    tag_681:\n      mload(0x40)\n      shl(0xe5, 0x461bcd)\n      dup2\n      mstore\n      0x20\n      0x04\n      dup3\n      add\n      mstore\n      0x0a\n      0x24\n      dup3\n      add\n      mstore\n      shl(0xb1, 0x3130b2102398903632b7)\n      0x44\n      dup3\n      add\n      mstore\n      0x64\n      swap1\n      revert\n    tag_84:\n      mload(0x40)\n      swap1\n      tag_683\n      0x0120\n      dup4\n      tag_10\n      jump\t// in\n    tag_683:\n      0x0100\n      dup3\n      mstore\n      0xcb3e287e85a763af267492ab572e99ab3f370d275cec1da1aaa9075ff05f79be\n      0x0100\n      dup4\n      0x024aa2b2f08f0a91260805272dc51051\n      0x20\n      dup3\n      add\n      mstore\n      0xc6e47ad4fa403b02b4510b647ae3d1770bac0326a805bbefd48056c8c121bdb8\n      0x40\n      dup3\n      add\n      mstore\n      0x13e02b6052719f607dacd3a088274f65\n      0x60\n      dup3\n      add\n      mstore\n      0x596bd0d09920b61ab5da61bbdc7f5049334cf11213945d57e5ac7d055d042b7e\n      0x80\n      dup3\n      add\n      mstore\n      0x0ce5d527727d6e118cc9cdc6da2e351a\n      0xa0\n      dup3\n      add\n      mstore\n      0xadfd9baa8cbdd3a76d429a695160d12c923ac9cc3baca289e193548608b82801\n      0xc0\n      dup3\n      add\n      mstore\n      0x0606c4a02ea734cc32acd2b02bc28b99\n      0xe0\n      dup3\n      add\n      mstore\n      add\n      mstore\n      jump\t// out\n        /* \"Verfiy.sol\":574:1091  hex\"00000000000000000000000000000000024aa2b2f08f0a91260805272dc51051c6e47ad4fa403b02b4510b647ae3d1770bac0326a805bbefd48056c8c121bdb80000000000000000000000000000000013e02b6052719f607dacd3a088274f65596bd0d09920b61ab5da61bbdc7f5049334cf11213945d57e5ac7d055d042b7e000000000000000000000000000000000ce5d527727d6e118cc9cdc6da2e351aadfd9baa8cbdd3a76d429a695160d12c923ac9cc3baca289e193548608b82801000000000000000000000000000000000606c4a02ea734cc32acd2b02bc28b99cb3e287e85a763af267492ab572e99ab3f370d275cec1da1aaa9075ff05f79be\" */\n    tag_85:\n      iszero\n      tag_684\n      jumpi\n      jump\t// out\n    tag_684:\n        /* \"Verfiy.sol\":26:13391  contract Verify {... */\n      mload(0x40)\n      shl(0xe5, 0x461bcd)\n        /* \"Verfiy.sol\":574:1091  hex\"00000000000000000000000000000000024aa2b2f08f0a91260805272dc51051c6e47ad4fa403b02b4510b647ae3d1770bac0326a805bbefd48056c8c121bdb80000000000000000000000000000000013e02b6052719f607dacd3a088274f65596bd0d09920b61ab5da61bbdc7f5049334cf11213945d57e5ac7d055d042b7e000000000000000000000000000000000ce5d527727d6e118cc9cdc6da2e351aadfd9baa8cbdd3a76d429a695160d12c923ac9cc3baca289e193548608b82801000000000000000000000000000000000606c4a02ea734cc32acd2b02bc28b99cb3e287e85a763af267492ab572e99ab3f370d275cec1da1aaa9075ff05f79be\" */\n      dup2\n      mstore\n      0x20\n      0x04\n      dup3\n      add\n      mstore\n      0x0f\n      0x24\n      dup3\n      add\n        /* \"Verfiy.sol\":26:13391  contract Verify {... */\n      mstore\n      shl(0x8a, 0x10da1958dacc8b4c4811985a5b1959)\n      0x44\n      dup3\n      add\n        /* \"Verfiy.sol\":574:1091  hex\"00000000000000000000000000000000024aa2b2f08f0a91260805272dc51051c6e47ad4fa403b02b4510b647ae3d1770bac0326a805bbefd48056c8c121bdb80000000000000000000000000000000013e02b6052719f607dacd3a088274f65596bd0d09920b61ab5da61bbdc7f5049334cf11213945d57e5ac7d055d042b7e000000000000000000000000000000000ce5d527727d6e118cc9cdc6da2e351aadfd9baa8cbdd3a76d429a695160d12c923ac9cc3baca289e193548608b82801000000000000000000000000000000000606c4a02ea734cc32acd2b02bc28b99cb3e287e85a763af267492ab572e99ab3f370d275cec1da1aaa9075ff05f79be\" */\n      mstore\n      0x64\n      swap1\n      revert\n    tag_86:\n      iszero\n      tag_686\n      jumpi\n      jump\t// out\n    tag_686:\n        /* \"Verfiy.sol\":26:13391  contract Verify {... */\n      mload(0x40)\n      shl(0xe5, 0x461bcd)\n        /* \"Verfiy.sol\":574:1091  hex\"00000000000000000000000000000000024aa2b2f08f0a91260805272dc51051c6e47ad4fa403b02b4510b647ae3d1770bac0326a805bbefd48056c8c121bdb80000000000000000000000000000000013e02b6052719f607dacd3a088274f65596bd0d09920b61ab5da61bbdc7f5049334cf11213945d57e5ac7d055d042b7e000000000000000000000000000000000ce5d527727d6e118cc9cdc6da2e351aadfd9baa8cbdd3a76d429a695160d12c923ac9cc3baca289e193548608b82801000000000000000000000000000000000606c4a02ea734cc32acd2b02bc28b99cb3e287e85a763af267492ab572e99ab3f370d275cec1da1aaa9075ff05f79be\" */\n      dup2\n      mstore\n      0x20\n      0x04\n      dup3\n      add\n      mstore\n      0x0f\n      0x24\n      dup3\n      add\n        /* \"Verfiy.sol\":26:13391  contract Verify {... */\n      mstore\n      shl(0x8a, 0x10da1958dacc8b4c8811985a5b1959)\n      0x44\n      dup3\n      add\n        /* \"Verfiy.sol\":574:1091  hex\"00000000000000000000000000000000024aa2b2f08f0a91260805272dc51051c6e47ad4fa403b02b4510b647ae3d1770bac0326a805bbefd48056c8c121bdb80000000000000000000000000000000013e02b6052719f607dacd3a088274f65596bd0d09920b61ab5da61bbdc7f5049334cf11213945d57e5ac7d055d042b7e000000000000000000000000000000000ce5d527727d6e118cc9cdc6da2e351aadfd9baa8cbdd3a76d429a695160d12c923ac9cc3baca289e193548608b82801000000000000000000000000000000000606c4a02ea734cc32acd2b02bc28b99cb3e287e85a763af267492ab572e99ab3f370d275cec1da1aaa9075ff05f79be\" */\n      mstore\n      0x64\n      swap1\n      revert\n    tag_87:\n      iszero\n      tag_688\n      jumpi\n      jump\t// out\n    tag_688:\n        /* \"Verfiy.sol\":26:13391  contract Verify {... */\n      mload(0x40)\n      shl(0xe5, 0x461bcd)\n        /* \"Verfiy.sol\":574:1091  hex\"00000000000000000000000000000000024aa2b2f08f0a91260805272dc51051c6e47ad4fa403b02b4510b647ae3d1770bac0326a805bbefd48056c8c121bdb80000000000000000000000000000000013e02b6052719f607dacd3a088274f65596bd0d09920b61ab5da61bbdc7f5049334cf11213945d57e5ac7d055d042b7e000000000000000000000000000000000ce5d527727d6e118cc9cdc6da2e351aadfd9baa8cbdd3a76d429a695160d12c923ac9cc3baca289e193548608b82801000000000000000000000000000000000606c4a02ea734cc32acd2b02bc28b99cb3e287e85a763af267492ab572e99ab3f370d275cec1da1aaa9075ff05f79be\" */\n      dup2\n      mstore\n      0x20\n      0x04\n      dup3\n      add\n      mstore\n      0x0d\n      0x24\n      dup3\n      add\n        /* \"Verfiy.sol\":26:13391  contract Verify {... */\n      mstore\n      shl(0x9a, 0x10da1958daccc811985a5b1959)\n      0x44\n      dup3\n      add\n        /* \"Verfiy.sol\":574:1091  hex\"00000000000000000000000000000000024aa2b2f08f0a91260805272dc51051c6e47ad4fa403b02b4510b647ae3d1770bac0326a805bbefd48056c8c121bdb80000000000000000000000000000000013e02b6052719f607dacd3a088274f65596bd0d09920b61ab5da61bbdc7f5049334cf11213945d57e5ac7d055d042b7e000000000000000000000000000000000ce5d527727d6e118cc9cdc6da2e351aadfd9baa8cbdd3a76d429a695160d12c923ac9cc3baca289e193548608b82801000000000000000000000000000000000606c4a02ea734cc32acd2b02bc28b99cb3e287e85a763af267492ab572e99ab3f370d275cec1da1aaa9075ff05f79be\" */\n      mstore\n      0x64\n      swap1\n      revert\n    tag_88:\n      0x1f\n      dup3\n      gt\n      tag_690\n      jumpi\n      pop\n      pop\n      pop\n      jump\t// out\n    tag_690:\n      0x00\n        /* \"Verfiy.sol\":26:13391  contract Verify {... */\n      mstore\n      keccak256(0x00, 0x20)\n        /* \"Verfiy.sol\":574:1091  hex\"00000000000000000000000000000000024aa2b2f08f0a91260805272dc51051c6e47ad4fa403b02b4510b647ae3d1770bac0326a805bbefd48056c8c121bdb80000000000000000000000000000000013e02b6052719f607dacd3a088274f65596bd0d09920b61ab5da61bbdc7f5049334cf11213945d57e5ac7d055d042b7e000000000000000000000000000000000ce5d527727d6e118cc9cdc6da2e351aadfd9baa8cbdd3a76d429a695160d12c923ac9cc3baca289e193548608b82801000000000000000000000000000000000606c4a02ea734cc32acd2b02bc28b99cb3e287e85a763af267492ab572e99ab3f370d275cec1da1aaa9075ff05f79be\" */\n      swap1\n        /* \"Verfiy.sol\":26:13391  contract Verify {... */\n      0x20\n        /* \"Verfiy.sol\":574:1091  hex\"00000000000000000000000000000000024aa2b2f08f0a91260805272dc51051c6e47ad4fa403b02b4510b647ae3d1770bac0326a805bbefd48056c8c121bdb80000000000000000000000000000000013e02b6052719f607dacd3a088274f65596bd0d09920b61ab5da61bbdc7f5049334cf11213945d57e5ac7d055d042b7e000000000000000000000000000000000ce5d527727d6e118cc9cdc6da2e351aadfd9baa8cbdd3a76d429a695160d12c923ac9cc3baca289e193548608b82801000000000000000000000000000000000606c4a02ea734cc32acd2b02bc28b99cb3e287e85a763af267492ab572e99ab3f370d275cec1da1aaa9075ff05f79be\" */\n      0x1f\n      dup5\n      add\n      0x05\n      shr\n      dup4\n      add\n      swap4\n      lt\n      tag_692\n      jumpi\n    tag_693:\n      0x1f\n      add\n      0x05\n      shr\n      add\n      swap1\n    tag_694:\n      dup2\n      dup2\n      lt\n      tag_695\n      jumpi\n      pop\n      pop\n      jump\t// out\n    tag_695:\n      0x00\n      dup2\n      sstore\n      0x01\n      add\n      jump(tag_694)\n    tag_692:\n      swap1\n      swap2\n      pop\n      dup2\n      swap1\n      jump(tag_693)\n    tag_90:\n      swap2\n      swap1\n      sub(shl(0x40, 0x01), 0x01)\n      dup2\n      gt\n      tag_174\n      jumpi\n      tag_699\n      dup2\n      tag_700\n      sload(0x00)\n      tag_24\n      jump\t// in\n    tag_700:\n      0x00\n      tag_88\n      jump\t// in\n    tag_699:\n      0x00\n      0x1f\n      dup3\n      gt\n      0x01\n      eq\n      tag_701\n      jumpi\n      dup2\n      swap1\n      tag_703\n      swap4\n      swap5\n      0x00\n      swap3\n      tag_704\n      jumpi\n    tag_705:\n      pop\n      pop\n      dup2\n      0x01\n      shl\n        /* \"Verfiy.sol\":26:13391  contract Verify {... */\n      swap2\n      not(0x00)\n        /* \"Verfiy.sol\":574:1091  hex\"00000000000000000000000000000000024aa2b2f08f0a91260805272dc51051c6e47ad4fa403b02b4510b647ae3d1770bac0326a805bbefd48056c8c121bdb80000000000000000000000000000000013e02b6052719f607dacd3a088274f65596bd0d09920b61ab5da61bbdc7f5049334cf11213945d57e5ac7d055d042b7e000000000000000000000000000000000ce5d527727d6e118cc9cdc6da2e351aadfd9baa8cbdd3a76d429a695160d12c923ac9cc3baca289e193548608b82801000000000000000000000000000000000606c4a02ea734cc32acd2b02bc28b99cb3e287e85a763af267492ab572e99ab3f370d275cec1da1aaa9075ff05f79be\" */\n      swap1\n      0x03\n      shl\n        /* \"Verfiy.sol\":26:13391  contract Verify {... */\n      shr\n        /* \"Verfiy.sol\":574:1091  hex\"00000000000000000000000000000000024aa2b2f08f0a91260805272dc51051c6e47ad4fa403b02b4510b647ae3d1770bac0326a805bbefd48056c8c121bdb80000000000000000000000000000000013e02b6052719f607dacd3a088274f65596bd0d09920b61ab5da61bbdc7f5049334cf11213945d57e5ac7d055d042b7e000000000000000000000000000000000ce5d527727d6e118cc9cdc6da2e351aadfd9baa8cbdd3a76d429a695160d12c923ac9cc3baca289e193548608b82801000000000000000000000000000000000606c4a02ea734cc32acd2b02bc28b99cb3e287e85a763af267492ab572e99ab3f370d275cec1da1aaa9075ff05f79be\" */\n      not\n      and\n      or\n      swap1\n      jump\n    tag_703:\n      0x00\n      sstore\n      jump\t// out\n    tag_704:\n      add\n      calldataload\n      swap1\n      pop\n      0x00\n      dup1\n      jump(tag_705)\n    tag_701:\n      0x00\n        /* \"Verfiy.sol\":26:13391  contract Verify {... */\n      dup1\n      mstore\n      not(0x1f)\n        /* \"Verfiy.sol\":574:1091  hex\"00000000000000000000000000000000024aa2b2f08f0a91260805272dc51051c6e47ad4fa403b02b4510b647ae3d1770bac0326a805bbefd48056c8c121bdb80000000000000000000000000000000013e02b6052719f607dacd3a088274f65596bd0d09920b61ab5da61bbdc7f5049334cf11213945d57e5ac7d055d042b7e000000000000000000000000000000000ce5d527727d6e118cc9cdc6da2e351aadfd9baa8cbdd3a76d429a695160d12c923ac9cc3baca289e193548608b82801000000000000000000000000000000000606c4a02ea734cc32acd2b02bc28b99cb3e287e85a763af267492ab572e99ab3f370d275cec1da1aaa9075ff05f79be\" */\n      dup3\n      and\n      swap4\n        /* \"Verfiy.sol\":26:13391  contract Verify {... */\n      0x290decd9548b62a8d60345a988386fc84ba6bc95484008f6362f93160ef3e563\n        /* \"Verfiy.sol\":574:1091  hex\"00000000000000000000000000000000024aa2b2f08f0a91260805272dc51051c6e47ad4fa403b02b4510b647ae3d1770bac0326a805bbefd48056c8c121bdb80000000000000000000000000000000013e02b6052719f607dacd3a088274f65596bd0d09920b61ab5da61bbdc7f5049334cf11213945d57e5ac7d055d042b7e000000000000000000000000000000000ce5d527727d6e118cc9cdc6da2e351aadfd9baa8cbdd3a76d429a695160d12c923ac9cc3baca289e193548608b82801000000000000000000000000000000000606c4a02ea734cc32acd2b02bc28b99cb3e287e85a763af267492ab572e99ab3f370d275cec1da1aaa9075ff05f79be\" */\n      swap2\n      0x00\n    tag_708:\n      dup7\n      dup2\n      lt\n      tag_709\n      jumpi\n      pop\n      dup4\n      0x01\n      swap6\n      swap7\n      lt\n      tag_711\n      jumpi\n    tag_712:\n      pop\n      pop\n      pop\n      dup2\n      shl\n      add\n      0x00\n      sstore\n      jump\t// out\n    tag_711:\n      add\n      calldataload\n      not(0x00)\n      0x03\n      dup5\n      swap1\n      shl\n      0xf8\n      and\n        /* \"Verfiy.sol\":26:13391  contract Verify {... */\n      shr\n        /* \"Verfiy.sol\":574:1091  hex\"00000000000000000000000000000000024aa2b2f08f0a91260805272dc51051c6e47ad4fa403b02b4510b647ae3d1770bac0326a805bbefd48056c8c121bdb80000000000000000000000000000000013e02b6052719f607dacd3a088274f65596bd0d09920b61ab5da61bbdc7f5049334cf11213945d57e5ac7d055d042b7e000000000000000000000000000000000ce5d527727d6e118cc9cdc6da2e351aadfd9baa8cbdd3a76d429a695160d12c923ac9cc3baca289e193548608b82801000000000000000000000000000000000606c4a02ea734cc32acd2b02bc28b99cb3e287e85a763af267492ab572e99ab3f370d275cec1da1aaa9075ff05f79be\" */\n      not\n      and\n      swap1\n      sstore\n        /* \"Verfiy.sol\":26:13391  contract Verify {... */\n      0x00\n      dup1\n      dup1\n        /* \"Verfiy.sol\":574:1091  hex\"00000000000000000000000000000000024aa2b2f08f0a91260805272dc51051c6e47ad4fa403b02b4510b647ae3d1770bac0326a805bbefd48056c8c121bdb80000000000000000000000000000000013e02b6052719f607dacd3a088274f65596bd0d09920b61ab5da61bbdc7f5049334cf11213945d57e5ac7d055d042b7e000000000000000000000000000000000ce5d527727d6e118cc9cdc6da2e351aadfd9baa8cbdd3a76d429a695160d12c923ac9cc3baca289e193548608b82801000000000000000000000000000000000606c4a02ea734cc32acd2b02bc28b99cb3e287e85a763af267492ab572e99ab3f370d275cec1da1aaa9075ff05f79be\" */\n      jump(tag_712)\n    tag_709:\n      swap1\n      swap3\n      0x20\n      0x01\n      dup2\n      swap3\n      dup7\n      dup7\n      add\n      calldataload\n      dup2\n      sstore\n      add\n      swap5\n      add\n      swap2\n      add\n      jump(tag_708)\n    tag_91:\n      swap1\n      swap3\n      swap2\n      sub(shl(0x40, 0x01), 0x01)\n      dup2\n      gt\n      tag_174\n      jumpi\n      tag_715\n      dup2\n      tag_716\n      dup5\n      sload\n      tag_24\n      jump\t// in\n    tag_716:\n      dup5\n      tag_88\n      jump\t// in\n    tag_715:\n      0x00\n      0x1f\n      dup3\n      gt\n      0x01\n      eq\n      tag_717\n      jumpi\n      dup2\n      swap1\n      tag_719\n      swap4\n      swap5\n      swap6\n      0x00\n      swap3\n      tag_704\n      jumpi\n      pop\n      pop\n      dup2\n      0x01\n      shl\n        /* \"Verfiy.sol\":26:13391  contract Verify {... */\n      swap2\n      not(0x00)\n        /* \"Verfiy.sol\":574:1091  hex\"00000000000000000000000000000000024aa2b2f08f0a91260805272dc51051c6e47ad4fa403b02b4510b647ae3d1770bac0326a805bbefd48056c8c121bdb80000000000000000000000000000000013e02b6052719f607dacd3a088274f65596bd0d09920b61ab5da61bbdc7f5049334cf11213945d57e5ac7d055d042b7e000000000000000000000000000000000ce5d527727d6e118cc9cdc6da2e351aadfd9baa8cbdd3a76d429a695160d12c923ac9cc3baca289e193548608b82801000000000000000000000000000000000606c4a02ea734cc32acd2b02bc28b99cb3e287e85a763af267492ab572e99ab3f370d275cec1da1aaa9075ff05f79be\" */\n      swap1\n      0x03\n      shl\n        /* \"Verfiy.sol\":26:13391  contract Verify {... */\n      shr\n        /* \"Verfiy.sol\":574:1091  hex\"00000000000000000000000000000000024aa2b2f08f0a91260805272dc51051c6e47ad4fa403b02b4510b647ae3d1770bac0326a805bbefd48056c8c121bdb80000000000000000000000000000000013e02b6052719f607dacd3a088274f65596bd0d09920b61ab5da61bbdc7f5049334cf11213945d57e5ac7d055d042b7e000000000000000000000000000000000ce5d527727d6e118cc9cdc6da2e351aadfd9baa8cbdd3a76d429a695160d12c923ac9cc3baca289e193548608b82801000000000000000000000000000000000606c4a02ea734cc32acd2b02bc28b99cb3e287e85a763af267492ab572e99ab3f370d275cec1da1aaa9075ff05f79be\" */\n      not\n      and\n      or\n      swap1\n      jump\n    tag_719:\n      swap1\n      sstore\n      jump\t// out\n    tag_717:\n        /* \"Verfiy.sol\":26:13391  contract Verify {... */\n      not(0x1f)\n        /* \"Verfiy.sol\":574:1091  hex\"00000000000000000000000000000000024aa2b2f08f0a91260805272dc51051c6e47ad4fa403b02b4510b647ae3d1770bac0326a805bbefd48056c8c121bdb80000000000000000000000000000000013e02b6052719f607dacd3a088274f65596bd0d09920b61ab5da61bbdc7f5049334cf11213945d57e5ac7d055d042b7e000000000000000000000000000000000ce5d527727d6e118cc9cdc6da2e351aadfd9baa8cbdd3a76d429a695160d12c923ac9cc3baca289e193548608b82801000000000000000000000000000000000606c4a02ea734cc32acd2b02bc28b99cb3e287e85a763af267492ab572e99ab3f370d275cec1da1aaa9075ff05f79be\" */\n      dup3\n      and\n      swap5\n      tag_723\n      dup5\n        /* \"Verfiy.sol\":26:13391  contract Verify {... */\n      0x00\n      mstore\n      keccak256(0x00, 0x20)\n      swap1\n      jump\n        /* \"Verfiy.sol\":574:1091  hex\"00000000000000000000000000000000024aa2b2f08f0a91260805272dc51051c6e47ad4fa403b02b4510b647ae3d1770bac0326a805bbefd48056c8c121bdb80000000000000000000000000000000013e02b6052719f607dacd3a088274f65596bd0d09920b61ab5da61bbdc7f5049334cf11213945d57e5ac7d055d042b7e000000000000000000000000000000000ce5d527727d6e118cc9cdc6da2e351aadfd9baa8cbdd3a76d429a695160d12c923ac9cc3baca289e193548608b82801000000000000000000000000000000000606c4a02ea734cc32acd2b02bc28b99cb3e287e85a763af267492ab572e99ab3f370d275cec1da1aaa9075ff05f79be\" */\n    tag_723:\n      swap2\n      0x00\n    tag_724:\n      dup8\n      dup2\n      lt\n      tag_725\n      jumpi\n      pop\n      dup4\n      0x01\n      swap6\n      swap7\n      swap8\n      lt\n      tag_727\n      jumpi\n    tag_728:\n      pop\n      pop\n      pop\n      dup2\n      shl\n      add\n      swap1\n      sstore\n      jump\t// out\n    tag_727:\n      add\n      calldataload\n      not(0x00)\n      0x03\n      dup5\n      swap1\n      shl\n      0xf8\n      and\n        /* \"Verfiy.sol\":26:13391  contract Verify {... */\n      shr\n        /* \"Verfiy.sol\":574:1091  hex\"00000000000000000000000000000000024aa2b2f08f0a91260805272dc51051c6e47ad4fa403b02b4510b647ae3d1770bac0326a805bbefd48056c8c121bdb80000000000000000000000000000000013e02b6052719f607dacd3a088274f65596bd0d09920b61ab5da61bbdc7f5049334cf11213945d57e5ac7d055d042b7e000000000000000000000000000000000ce5d527727d6e118cc9cdc6da2e351aadfd9baa8cbdd3a76d429a695160d12c923ac9cc3baca289e193548608b82801000000000000000000000000000000000606c4a02ea734cc32acd2b02bc28b99cb3e287e85a763af267492ab572e99ab3f370d275cec1da1aaa9075ff05f79be\" */\n      not\n      and\n      swap1\n      sstore\n        /* \"Verfiy.sol\":26:13391  contract Verify {... */\n      0x00\n      dup1\n      dup1\n        /* \"Verfiy.sol\":574:1091  hex\"00000000000000000000000000000000024aa2b2f08f0a91260805272dc51051c6e47ad4fa403b02b4510b647ae3d1770bac0326a805bbefd48056c8c121bdb80000000000000000000000000000000013e02b6052719f607dacd3a088274f65596bd0d09920b61ab5da61bbdc7f5049334cf11213945d57e5ac7d055d042b7e000000000000000000000000000000000ce5d527727d6e118cc9cdc6da2e351aadfd9baa8cbdd3a76d429a695160d12c923ac9cc3baca289e193548608b82801000000000000000000000000000000000606c4a02ea734cc32acd2b02bc28b99cb3e287e85a763af267492ab572e99ab3f370d275cec1da1aaa9075ff05f79be\" */\n      jump(tag_728)\n    tag_725:\n      swap1\n      swap3\n      0x20\n      0x01\n      dup2\n      swap3\n      dup7\n      dup7\n      add\n      calldataload\n      dup2\n      sstore\n      add\n      swap5\n      add\n      swap2\n      add\n      jump(tag_724)\n    tag_92:\n      swap3\n      swap1\n      tag_634\n      swap1\n      tag_184\n      swap6\n      swap4\n      0x40\n      dup7\n      mstore\n      0x40\n      dup7\n      add\n      swap2\n      tag_61\n      jump\t// in\n    tag_93:\n      swap1\n        /* \"Verfiy.sol\":26:13391  contract Verify {... */\n      dup2\n      mload\n        /* \"Verfiy.sol\":574:1091  hex\"00000000000000000000000000000000024aa2b2f08f0a91260805272dc51051c6e47ad4fa403b02b4510b647ae3d1770bac0326a805bbefd48056c8c121bdb80000000000000000000000000000000013e02b6052719f607dacd3a088274f65596bd0d09920b61ab5da61bbdc7f5049334cf11213945d57e5ac7d055d042b7e000000000000000000000000000000000ce5d527727d6e118cc9cdc6da2e351aadfd9baa8cbdd3a76d429a695160d12c923ac9cc3baca289e193548608b82801000000000000000000000000000000000606c4a02ea734cc32acd2b02bc28b99cb3e287e85a763af267492ab572e99ab3f370d275cec1da1aaa9075ff05f79be\" */\n      dup2\n      lt\n      iszero\n      tag_257\n      jumpi\n      add\n      0x20\n      add\n      swap1\n      jump\t// out\n    tag_96:\n      swap1\n      dup3\n      lt\n      iszero\n      tag_257\n      jumpi\n      add\n      swap1\n      jump\t// out\n        /* \"Verfiy.sol\":4044:7190  function CheckTest(bytes[] calldata g1s,... */\n    tag_97:\n      swap6\n      swap2\n      swap6\n      swap5\n      swap3\n      swap5\n        /* \"Verfiy.sol\":4268:4289  require(L1 * 2 == L2) */\n      tag_735\n        /* \"Verfiy.sol\":4276:4282  L1 * 2 */\n      dup7\n      tag_431\n      dup5\n      tag_65\n      jump\t// in\n        /* \"Verfiy.sol\":4268:4289  require(L1 * 2 == L2) */\n    tag_735:\n        /* \"Verfiy.sol\":4340:4387  uint256(keccak256(abi.encode(g1s, g2s, 0))) % q */\n      tag_737\n        /* \"Verfiy.sol\":26:13391  contract Verify {... */\n      mload(0x40)\n        /* \"Verfiy.sol\":4358:4381  abi.encode(g1s, g2s, 0) */\n      0x20\n      dup2\n      add\n      swap1\n      tag_212\n      dup2\n      tag_213\n      dup12\n      dup14\n      dup10\n      dup10\n      dup9\n      tag_81\n      jump\t// in\n        /* \"Verfiy.sol\":4340:4387  uint256(keccak256(abi.encode(g1s, g2s, 0))) % q */\n    tag_737:\n        /* \"Verfiy.sol\":26:13391  contract Verify {... */\n      swap5\n        /* \"Verfiy.sol\":4412:4459  uint256(keccak256(abi.encode(g1s, g2s, 1))) % q */\n      tag_740\n        /* \"Verfiy.sol\":26:13391  contract Verify {... */\n      dup9\n      mload(0x40)\n        /* \"Verfiy.sol\":4430:4453  abi.encode(g1s, g2s, 1) */\n      tag_212\n      dup2\n      tag_213\n      dup13\n        /* \"Verfiy.sol\":4358:4381  abi.encode(g1s, g2s, 0) */\n      0x20\n        /* \"Verfiy.sol\":4430:4453  abi.encode(g1s, g2s, 1) */\n      dup4\n      add\n      swap6\n      dup11\n      dup11\n      dup9\n      tag_82\n      jump\t// in\n        /* \"Verfiy.sol\":4412:4459  uint256(keccak256(abi.encode(g1s, g2s, 1))) % q */\n    tag_740:\n        /* \"Verfiy.sol\":4469:4486  uint256 temp1 = 1 */\n      swap1\n        /* \"Verfiy.sol\":4451:4452  1 */\n      0x01\n        /* \"Verfiy.sol\":4496:4513  uint256 temp2 = 1 */\n      swap5\n        /* \"Verfiy.sol\":4565:4584  new bytes(L1 * 160) */\n      tag_743\n        /* \"Verfiy.sol\":4575:4583  L1 * 160 */\n      tag_215\n      dup7\n      tag_66\n      jump\t// in\n        /* \"Verfiy.sol\":4565:4584  new bytes(L1 * 160) */\n    tag_743:\n        /* \"Verfiy.sol\":4624:4630  L2 - 3 */\n      swap10\n        /* \"Verfiy.sol\":4613:4638  new bytes((L2 - 3) * 288) */\n      tag_745\n        /* \"Verfiy.sol\":4623:4637  (L2 - 3) * 288 */\n      tag_215\n        /* \"Verfiy.sol\":4624:4630  L2 - 3 */\n      tag_442\n      dup13\n      tag_46\n      jump\t// in\n        /* \"Verfiy.sol\":4613:4638  new bytes((L2 - 3) * 288) */\n    tag_745:\n        /* \"Verfiy.sol\":4667:4692  new bytes((L1 - 1) * 160) */\n      tag_748\n        /* \"Verfiy.sol\":4677:4691  (L1 - 1) * 160 */\n      tag_215\n        /* \"Verfiy.sol\":4678:4684  L1 - 1 */\n      tag_445\n      dup10\n      tag_45\n      jump\t// in\n        /* \"Verfiy.sol\":4667:4692  new bytes((L1 - 1) * 160) */\n    tag_748:\n        /* \"Verfiy.sol\":4732:4738  L2 - 2 */\n      swap11\n        /* \"Verfiy.sol\":4721:4746  new bytes((L2 - 2) * 288) */\n      tag_751\n        /* \"Verfiy.sol\":4731:4745  (L2 - 2) * 288 */\n      tag_215\n        /* \"Verfiy.sol\":4732:4738  L2 - 2 */\n      tag_442\n      dup4\n      tag_47\n      jump\t// in\n        /* \"Verfiy.sol\":4721:4746  new bytes((L2 - 2) * 288) */\n    tag_751:\n        /* \"Verfiy.sol\":4831:4836  k = 0 */\n      swap5\n        /* \"Verfiy.sol\":26:13391  contract Verify {... */\n      0x00\n        /* \"Verfiy.sol\":4851:4864  uint256 i = 0 */\n      swap11\n        /* \"Verfiy.sol\":26:13391  contract Verify {... */\n      0x00\n        /* \"Verfiy.sol\":4846:5119  for (uint256 i = 0; i <= L1 - 1; i++) {... */\n      swap12\n        /* \"Verfiy.sol\":4879:4882  i++ */\n    tag_754:\n        /* \"Verfiy.sol\":4871:4877  L1 - 1 */\n      tag_755\n      dup12\n      tag_45\n      jump\t// in\n    tag_755:\n        /* \"Verfiy.sol\":4866:4877  i <= L1 - 1 */\n      dup14\n      gt\n      tag_756\n      jumpi\n        /* \"Verfiy.sol\":4906:4912  g1s[i] */\n      dup16\n      dup15\n        /* \"Verfiy.sol\":5059:5064  k+=32 */\n      tag_758\n        /* \"Verfiy.sol\":4906:4912  g1s[i] */\n      dup16\n      swap3\n      dup16\n      dup16\n      swap1\n      dup16\n      dup8\n        /* \"Verfiy.sol\":4965:4971  g1s[i] */\n      tag_454\n        /* \"Verfiy.sol\":4879:4882  i++ */\n      tag_760\n        /* \"Verfiy.sol\":4906:4912  g1s[i] */\n      swap10\n      dup7\n        /* \"Verfiy.sol\":4965:4971  g1s[i] */\n      tag_455\n        /* \"Verfiy.sol\":4906:4912  g1s[i] */\n      dup12\n      dup9\n      dup8\n        /* \"Verfiy.sol\":4898:4941  require(g1s[i].length == 128, \"bad G1 len\") */\n      tag_460\n      mload(0x00)\n      codecopy(0x00, data_3b2d02282c3edcbfc4f9664b53f75892ea03b8fe586039e3ee6fe41258ca9b0d, 0x20)\n      mload(0x00)\n      swap1\n      0x00\n      mstore\n        /* \"Verfiy.sol\":4906:4912  g1s[i] */\n      swap16\n      tag_457\n        /* \"Verfiy.sol\":4923:4926  128 */\n      0x80\n        /* \"Verfiy.sol\":4906:4912  g1s[i] */\n      swap2\n        /* \"Verfiy.sol\":5043:5044  k */\n      tag_232\n        /* \"Verfiy.sol\":4906:4912  g1s[i] */\n      swap15\n        /* \"Verfiy.sol\":5002:5008  k+=128 */\n      tag_459\n        /* \"Verfiy.sol\":4906:4912  g1s[i] */\n      swap14\n      tag_51\n      jump\t// in\n        /* \"Verfiy.sol\":5059:5064  k+=32 */\n    tag_758:\n        /* \"Verfiy.sol\":5086:5108  mulmod(temp1, rho1, q) */\n      swap14\n      mulmod\n        /* \"Verfiy.sol\":4879:4882  i++ */\n      swap13\n      tag_44\n      jump\t// in\n    tag_760:\n        /* \"Verfiy.sol\":4851:4864  uint256 i = 0 */\n      swap12\n      swap11\n      jump(tag_754)\n        /* \"Verfiy.sol\":4866:4877  i <= L1 - 1 */\n    tag_756:\n      pop\n      swap4\n      swap11\n      pop\n      swap4\n      swap7\n      swap11\n      swap5\n      swap12\n      swap2\n      swap9\n      pop\n      swap7\n      swap5\n      swap12\n        /* \"Verfiy.sol\":5149:5160  G1Muls(ag1) */\n      tag_766\n        /* \"Verfiy.sol\":4866:4877  i <= L1 - 1 */\n      swap1\n        /* \"Verfiy.sol\":5149:5160  G1Muls(ag1) */\n      tag_76\n      jump\t// in\n    tag_766:\n        /* \"Verfiy.sol\":26:13391  contract Verify {... */\n      0x00\n      swap11\n        /* \"Verfiy.sol\":5233:5245  temp2 = rho2 */\n      dup14\n      swap8\n        /* \"Verfiy.sol\":26:13391  contract Verify {... */\n      dup13\n        /* \"Verfiy.sol\":5296:5299  i++ */\n    tag_767:\n        /* \"Verfiy.sol\":5280:5286  2 * L1 */\n      dup14\n        /* \"Verfiy.sol\":5280:5294  2 * L1 - 1 - 1 */\n      tag_768\n        /* \"Verfiy.sol\":5280:5290  2 * L1 - 1 */\n      tag_465\n        /* \"Verfiy.sol\":5280:5286  2 * L1 */\n      tag_465\n      dup13\n      tag_68\n      jump\t// in\n        /* \"Verfiy.sol\":5280:5294  2 * L1 - 1 - 1 */\n    tag_768:\n      lt\n        /* \"Verfiy.sol\":5275:5294  i <= 2 * L1 - 1 - 1 */\n      tag_771\n      jumpi\n        /* \"Verfiy.sol\":5374:5380  L1 - 1 */\n      dup16\n      swap1\n      dup13\n      swap1\n      dup16\n      dup16\n      dup15\n      swap1\n      tag_773\n      dup15\n      tag_45\n      jump\t// in\n    tag_773:\n        /* \"Verfiy.sol\":5369:5380  i == L1 - 1 */\n      dup4\n      eq\n        /* \"Verfiy.sol\":5369:5391  i == L1 - 1 || i == L1 */\n      dup1\n      iszero\n      tag_774\n      jumpi\n        /* \"Verfiy.sol\":5296:5299  i++ */\n    tag_775:\n        /* \"Verfiy.sol\":5365:5482  if (i == L1 - 1 || i == L1) {... */\n      tag_776\n      jumpi\n        /* \"Verfiy.sol\":5505:5511  g2s[i] */\n      dup15\n        /* \"Verfiy.sol\":5542:5548  k+=256 */\n      tag_459\n        /* \"Verfiy.sol\":5505:5511  g2s[i] */\n      dup6\n      tag_228\n        /* \"Verfiy.sol\":5296:5299  i++ */\n      tag_780\n        /* \"Verfiy.sol\":5505:5511  g2s[i] */\n      swap10\n      swap8\n      dup10\n      tag_230\n        /* \"Verfiy.sol\":5599:5604  k+=32 */\n      tag_782\n        /* \"Verfiy.sol\":5505:5511  g2s[i] */\n      swap10\n      mload(0x00)\n      codecopy(0x00, data_3b2d02282c3edcbfc4f9664b53f75892ea03b8fe586039e3ee6fe41258ca9b0d, 0x20)\n      mload(0x00)\n      swap1\n      0x00\n      mstore\n      swap13\n      swap10\n        /* \"Verfiy.sol\":5583:5584  k */\n      tag_232\n        /* \"Verfiy.sol\":5505:5511  g2s[i] */\n      swap10\n      tag_51\n      jump\t// in\n        /* \"Verfiy.sol\":5599:5604  k+=32 */\n    tag_782:\n        /* \"Verfiy.sol\":5626:5648  mulmod(temp2, rho2, q) */\n      swap12\n      mulmod\n        /* \"Verfiy.sol\":5296:5299  i++ */\n      swap14\n      tag_44\n      jump\t// in\n    tag_780:\n        /* \"Verfiy.sol\":5260:5273  uint256 i = 0 */\n      swap13\n      swap9\n      jump(tag_767)\n        /* \"Verfiy.sol\":5365:5482  if (i == L1 - 1 || i == L1) {... */\n    tag_776:\n        /* \"Verfiy.sol\":5419:5441  mulmod(temp2, rho2, q) */\n      pop\n      pop\n      pop\n      swap11\n      mload(0x00)\n      codecopy(0x00, data_3b2d02282c3edcbfc4f9664b53f75892ea03b8fe586039e3ee6fe41258ca9b0d, 0x20)\n      mload(0x00)\n      swap1\n      0x00\n      mstore\n      swap2\n      pop\n      swap2\n        /* \"Verfiy.sol\":5296:5299  i++ */\n      tag_780\n        /* \"Verfiy.sol\":5419:5441  mulmod(temp2, rho2, q) */\n      swap3\n      mulmod\n        /* \"Verfiy.sol\":5459:5467  continue */\n      swap14\n        /* \"Verfiy.sol\":5296:5299  i++ */\n      tag_44\n      jump\t// in\n        /* \"Verfiy.sol\":5369:5391  i == L1 - 1 || i == L1 */\n    tag_774:\n        /* \"Verfiy.sol\":5384:5391  i == L1 */\n      pop\n      dup14\n      dup4\n      eq\n        /* \"Verfiy.sol\":5369:5391  i == L1 - 1 || i == L1 */\n      jump(tag_775)\n        /* \"Verfiy.sol\":5275:5294  i <= 2 * L1 - 1 - 1 */\n    tag_771:\n      pop\n      swap7\n      swap9\n      swap6\n      swap14\n      swap5\n      swap13\n      swap3\n      swap11\n      swap4\n      swap10\n        /* \"Verfiy.sol\":5718:5734  G2Add(g2, part2) */\n      tag_785\n        /* \"Verfiy.sol\":5275:5294  i <= 2 * L1 - 1 - 1 */\n      swap3\n      swap13\n      pop\n        /* \"Verfiy.sol\":5689:5700  G2Muls(ag2) */\n      tag_481\n        /* \"Verfiy.sol\":5275:5294  i <= 2 * L1 - 1 - 1 */\n      swap2\n      swap9\n      pop\n        /* \"Verfiy.sol\":5689:5700  G2Muls(ag2) */\n      tag_57\n      jump\t// in\n        /* \"Verfiy.sol\":5718:5734  G2Add(g2, part2) */\n    tag_785:\n        /* \"Verfiy.sol\":5792:5797  k = 0 */\n      swap4\n        /* \"Verfiy.sol\":26:13391  contract Verify {... */\n      0x00\n        /* \"Verfiy.sol\":5807:5819  temp1 = rho1 */\n      swap11\n      dup14\n        /* \"Verfiy.sol\":5834:5847  uint256 i = 0 */\n      swap10\n        /* \"Verfiy.sol\":26:13391  contract Verify {... */\n      0x00\n        /* \"Verfiy.sol\":5829:6045  for (uint256 i = 0; i <= L1 - 1 - 1; i++) {... */\n      swap13\n        /* \"Verfiy.sol\":5866:5869  i++ */\n    tag_788:\n        /* \"Verfiy.sol\":5854:5860  L1 - 1 */\n      dup14\n        /* \"Verfiy.sol\":5854:5864  L1 - 1 - 1 */\n      tag_789\n        /* \"Verfiy.sol\":5854:5860  L1 - 1 */\n      tag_465\n      dup14\n      tag_45\n      jump\t// in\n        /* \"Verfiy.sol\":5854:5864  L1 - 1 - 1 */\n    tag_789:\n      lt\n        /* \"Verfiy.sol\":5849:5864  i <= L1 - 1 - 1 */\n      tag_791\n      jumpi\n        /* \"Verfiy.sol\":5895:5901  g1s[i] */\n      dup16\n      mload(0x00)\n      codecopy(0x00, data_3b2d02282c3edcbfc4f9664b53f75892ea03b8fe586039e3ee6fe41258ca9b0d, 0x20)\n      mload(0x00)\n      swap1\n      0x00\n      mstore\n      swap1\n      dup16\n      dup16\n      dup16\n      dup16\n      swap1\n      dup16\n      dup8\n      tag_454\n        /* \"Verfiy.sol\":5866:5869  i++ */\n      tag_794\n        /* \"Verfiy.sol\":5895:5901  g1s[i] */\n      swap10\n      dup7\n      tag_455\n        /* \"Verfiy.sol\":5985:5990  k+=32 */\n      tag_796\n        /* \"Verfiy.sol\":5895:5901  g1s[i] */\n      swap10\n        /* \"Verfiy.sol\":5969:5970  k */\n      tag_232\n        /* \"Verfiy.sol\":5895:5901  g1s[i] */\n      swap9\n        /* \"Verfiy.sol\":5928:5934  k+=128 */\n      tag_459\n        /* \"Verfiy.sol\":5895:5901  g1s[i] */\n      swap8\n      tag_51\n      jump\t// in\n        /* \"Verfiy.sol\":5985:5990  k+=32 */\n    tag_796:\n        /* \"Verfiy.sol\":6012:6034  mulmod(temp1, rho1, q) */\n      swap14\n      mulmod\n        /* \"Verfiy.sol\":5866:5869  i++ */\n      swap14\n      tag_44\n      jump\t// in\n    tag_794:\n        /* \"Verfiy.sol\":5834:5847  uint256 i = 0 */\n      swap13\n      swap11\n      jump(tag_788)\n        /* \"Verfiy.sol\":5849:5864  i <= L1 - 1 - 1 */\n    tag_791:\n      pop\n      swap5\n      swap12\n      pop\n      swap10\n        /* \"Verfiy.sol\":6075:6086  G1Muls(ag3) */\n      tag_495\n        /* \"Verfiy.sol\":5849:5864  i <= L1 - 1 - 1 */\n      swap2\n      swap8\n      swap7\n      swap14\n      pop\n        /* \"Verfiy.sol\":6104:6120  G1Add(g1, part3) */\n      tag_800\n        /* \"Verfiy.sol\":5849:5864  i <= L1 - 1 - 1 */\n      swap3\n      swap9\n      swap6\n      swap13\n      swap4\n      swap10\n      pop\n        /* \"Verfiy.sol\":6075:6086  G1Muls(ag3) */\n      tag_76\n      jump\t// in\n        /* \"Verfiy.sol\":6104:6120  G1Add(g1, part3) */\n    tag_800:\n        /* \"Verfiy.sol\":26:13391  contract Verify {... */\n      0x00\n      swap9\n        /* \"Verfiy.sol\":4451:4452  1 */\n      0x01\n      swap6\n        /* \"Verfiy.sol\":6179:6184  k = 0 */\n      swap2\n        /* \"Verfiy.sol\":26:13391  contract Verify {... */\n      dup11\n        /* \"Verfiy.sol\":6250:6253  i++ */\n    tag_802:\n        /* \"Verfiy.sol\":6238:6248  2 * L1 - 1 */\n      tag_803\n        /* \"Verfiy.sol\":6238:6244  2 * L1 */\n      tag_465\n      dup9\n      tag_68\n      jump\t// in\n        /* \"Verfiy.sol\":6238:6248  2 * L1 - 1 */\n    tag_803:\n        /* \"Verfiy.sol\":6233:6248  i <= 2 * L1 - 1 */\n      dup13\n      gt\n      tag_805\n      jumpi\n        /* \"Verfiy.sol\":6273:6280  i == L1 */\n      dup10\n      dup14\n      swap2\n      dup14\n      dup12\n      dup15\n      dup12\n      dup4\n      eq\n        /* \"Verfiy.sol\":6273:6295  i == L1 || i == L1 + 1 */\n      dup1\n      iszero\n      tag_807\n      jumpi\n        /* \"Verfiy.sol\":6250:6253  i++ */\n    tag_808:\n        /* \"Verfiy.sol\":6269:6427  if (i == L1 || i == L1 + 1) {... */\n      tag_809\n      jumpi\n        /* \"Verfiy.sol\":6450:6456  g2s[i] */\n      dup13\n        /* \"Verfiy.sol\":6483:6489  k+=256 */\n      tag_459\n        /* \"Verfiy.sol\":6450:6456  g2s[i] */\n      dup6\n      tag_228\n        /* \"Verfiy.sol\":6250:6253  i++ */\n      tag_813\n        /* \"Verfiy.sol\":6450:6456  g2s[i] */\n      swap10\n      swap8\n      dup10\n      tag_230\n        /* \"Verfiy.sol\":6540:6545  k+=32 */\n      tag_510\n        /* \"Verfiy.sol\":6450:6456  g2s[i] */\n      swap10\n      mload(0x00)\n      codecopy(0x00, data_3b2d02282c3edcbfc4f9664b53f75892ea03b8fe586039e3ee6fe41258ca9b0d, 0x20)\n      mload(0x00)\n      swap1\n      0x00\n      mstore\n      swap13\n      swap10\n        /* \"Verfiy.sol\":6524:6525  k */\n      tag_232\n        /* \"Verfiy.sol\":6450:6456  g2s[i] */\n      swap10\n      tag_51\n      jump\t// in\n        /* \"Verfiy.sol\":6250:6253  i++ */\n    tag_813:\n        /* \"Verfiy.sol\":6218:6231  uint256 i = 0 */\n      swap11\n      swap7\n      jump(tag_802)\n        /* \"Verfiy.sol\":6269:6427  if (i == L1 || i == L1 + 1) {... */\n    tag_809:\n        /* \"Verfiy.sol\":6364:6386  mulmod(temp2, rho2, q) */\n      pop\n      pop\n      pop\n      swap9\n      mload(0x00)\n      codecopy(0x00, data_3b2d02282c3edcbfc4f9664b53f75892ea03b8fe586039e3ee6fe41258ca9b0d, 0x20)\n      mload(0x00)\n      swap1\n      0x00\n      mstore\n      swap2\n      pop\n      swap2\n        /* \"Verfiy.sol\":6250:6253  i++ */\n      tag_813\n        /* \"Verfiy.sol\":6364:6386  mulmod(temp2, rho2, q) */\n      swap3\n      mulmod\n        /* \"Verfiy.sol\":6404:6412  continue */\n      swap12\n        /* \"Verfiy.sol\":6250:6253  i++ */\n      tag_44\n      jump\t// in\n        /* \"Verfiy.sol\":6273:6295  i == L1 || i == L1 + 1 */\n    tag_807:\n        /* \"Verfiy.sol\":6289:6295  L1 + 1 */\n      pop\n      tag_818\n      dup13\n      tag_73\n      jump\t// in\n    tag_818:\n        /* \"Verfiy.sol\":6284:6295  i == L1 + 1 */\n      dup4\n      eq\n        /* \"Verfiy.sol\":6273:6295  i == L1 || i == L1 + 1 */\n      jump(tag_808)\n        /* \"Verfiy.sol\":6233:6248  i <= 2 * L1 - 1 */\n    tag_805:\n      pop\n        /* \"Verfiy.sol\":7025:7041  G1Mul(g1s[0], w) */\n      tag_819\n        /* \"Verfiy.sol\":6233:6248  i <= 2 * L1 - 1 */\n      swap10\n      swap4\n      swap12\n      pop\n        /* \"Verfiy.sol\":7063:7077  G1Add(p1, pi1) */\n      tag_820\n        /* \"Verfiy.sol\":6233:6248  i <= 2 * L1 - 1 */\n      swap11\n      pop\n        /* \"Verfiy.sol\":7031:7037  g1s[0] */\n      tag_821\n        /* \"Verfiy.sol\":6233:6248  i <= 2 * L1 - 1 */\n      swap7\n      pop\n      swap7\n        /* \"Verfiy.sol\":6721:6793  require(EqualPairingCheck(part1, part2, part3, part4),\"Check2-1 Failed\") */\n      tag_822\n        /* \"Verfiy.sol\":6729:6774  EqualPairingCheck(part1, part2, part3, part4) */\n      tag_530\n        /* \"Verfiy.sol\":6980:6999  abi.encode(g1s,g2s) */\n      tag_212\n        /* \"Verfiy.sol\":6233:6248  i <= 2 * L1 - 1 */\n      swap4\n        /* \"Verfiy.sol\":6962:7003  uint256(keccak256(abi.encode(g1s,g2s)))%q */\n      tag_825\n        /* \"Verfiy.sol\":6233:6248  i <= 2 * L1 - 1 */\n      swap8\n      swap16\n      swap11\n        /* \"Verfiy.sol\":26:13391  contract Verify {... */\n      tag_826\n        /* \"Verfiy.sol\":6233:6248  i <= 2 * L1 - 1 */\n      swap12\n        /* \"Verfiy.sol\":6630:6641  G2Muls(ag4) */\n      tag_526\n        /* \"Verfiy.sol\":6980:6999  abi.encode(g1s,g2s) */\n      tag_213\n        /* \"Verfiy.sol\":6233:6248  i <= 2 * L1 - 1 */\n      swap9\n      swap15\n        /* \"Verfiy.sol\":6630:6641  G2Muls(ag4) */\n      tag_57\n      jump\t// in\n        /* \"Verfiy.sol\":6721:6793  require(EqualPairingCheck(part1, part2, part3, part4),\"Check2-1 Failed\") */\n    tag_822:\n        /* \"Verfiy.sol\":6799:6874  require(EqualPairingCheck(g1,g2s[L1+1],g1s[1],g2s[L1-1]),\"Check2-2 Failed\") */\n      tag_829\n        /* \"Verfiy.sol\":6807:6855  EqualPairingCheck(g1,g2s[L1+1],g1s[1],g2s[L1-1]) */\n      tag_519\n        /* \"Verfiy.sol\":26:13391  contract Verify {... */\n      dup6\n      dup12\n        /* \"Verfiy.sol\":6849:6853  L1-1 */\n      tag_521\n        /* \"Verfiy.sol\":26:13391  contract Verify {... */\n      tag_526\n      dup12\n      tag_255\n      dup2\n      tag_515\n        /* \"Verfiy.sol\":6845:6854  g2s[L1-1] */\n      tag_524\n        /* \"Verfiy.sol\":26:13391  contract Verify {... */\n      tag_836\n      tag_53\n      jump\t// in\n    tag_836:\n        /* \"Verfiy.sol\":6832:6836  L1+1 */\n      swap9\n      dup13\n        /* \"Verfiy.sol\":6838:6844  g1s[1] */\n      tag_534\n        /* \"Verfiy.sol\":6828:6837  g2s[L1+1] */\n      tag_535\n        /* \"Verfiy.sol\":6832:6836  L1+1 */\n      tag_536\n      dup8\n      tag_73\n      jump\t// in\n        /* \"Verfiy.sol\":6799:6874  require(EqualPairingCheck(g1,g2s[L1+1],g1s[1],g2s[L1-1]),\"Check2-2 Failed\") */\n    tag_829:\n        /* \"Verfiy.sol\":6880:6928  require(ZeroCheck(g1s[0])!=true,\"Check3 Failed\") */\n      tag_840\n        /* \"Verfiy.sol\":4451:4452  1 */\n      0x01\n        /* \"Verfiy.sol\":26:13391  contract Verify {... */\n      tag_538\n        /* \"Verfiy.sol\":6898:6904  g1s[0] */\n      tag_342\n      dup10\n      dup14\n      tag_49\n      jump\t// in\n        /* \"Verfiy.sol\":6880:6928  require(ZeroCheck(g1s[0])!=true,\"Check3 Failed\") */\n    tag_840:\n        /* \"Verfiy.sol\":574:1091  hex\"00000000000000000000000000000000024aa2b2f08f0a91260805272dc51051c6e47ad4fa403b02b4510b647ae3d1770bac0326a805bbefd48056c8c121bdb80000000000000000000000000000000013e02b6052719f607dacd3a088274f65596bd0d09920b61ab5da61bbdc7f5049334cf11213945d57e5ac7d055d042b7e000000000000000000000000000000000ce5d527727d6e118cc9cdc6da2e351aadfd9baa8cbdd3a76d429a695160d12c923ac9cc3baca289e193548608b82801000000000000000000000000000000000606c4a02ea734cc32acd2b02bc28b99cb3e287e85a763af267492ab572e99ab3f370d275cec1da1aaa9075ff05f79be\" */\n      tag_843\n        /* \"Verfiy.sol\":6940:6946  g1s[0] */\n      tag_518\n      dup8\n      dup12\n      tag_49\n      jump\t// in\n        /* \"Verfiy.sol\":574:1091  hex\"00000000000000000000000000000000024aa2b2f08f0a91260805272dc51051c6e47ad4fa403b02b4510b647ae3d1770bac0326a805bbefd48056c8c121bdb80000000000000000000000000000000013e02b6052719f607dacd3a088274f65596bd0d09920b61ab5da61bbdc7f5049334cf11213945d57e5ac7d055d042b7e000000000000000000000000000000000ce5d527727d6e118cc9cdc6da2e351aadfd9baa8cbdd3a76d429a695160d12c923ac9cc3baca289e193548608b82801000000000000000000000000000000000606c4a02ea734cc32acd2b02bc28b99cb3e287e85a763af267492ab572e99ab3f370d275cec1da1aaa9075ff05f79be\" */\n    tag_843:\n        /* \"Verfiy.sol\":26:13391  contract Verify {... */\n      mload(0x40)\n        /* \"Verfiy.sol\":6980:6999  abi.encode(g1s,g2s) */\n      swap3\n      dup4\n      swap2\n        /* \"Verfiy.sol\":4358:4381  abi.encode(g1s, g2s, 0) */\n      0x20\n        /* \"Verfiy.sol\":6980:6999  abi.encode(g1s,g2s) */\n      dup4\n      add\n      swap6\n      dup9\n      dup13\n      dup9\n      tag_92\n      jump\t// in\n        /* \"Verfiy.sol\":6962:7003  uint256(keccak256(abi.encode(g1s,g2s)))%q */\n    tag_825:\n        /* \"Verfiy.sol\":7031:7037  g1s[0] */\n      swap4\n      tag_49\n      jump\t// in\n    tag_821:\n        /* \"Verfiy.sol\":26:13391  contract Verify {... */\n      calldatasize\n      swap2\n      tag_12\n      jump\t// in\n    tag_826:\n        /* \"Verfiy.sol\":7025:7041  G1Mul(g1s[0], w) */\n      tag_79\n      jump\t// in\n    tag_819:\n        /* \"Verfiy.sol\":26:13391  contract Verify {... */\n      tag_207\n      calldatasize\n      dup6\n      dup6\n      tag_12\n      jump\t// in\n        /* \"Verfiy.sol\":7063:7077  G1Add(p1, pi1) */\n    tag_820:\n        /* \"Verfiy.sol\":7092:7105  uint256 i = 0 */\n      swap2\n        /* \"Verfiy.sol\":26:13391  contract Verify {... */\n      0x00\n        /* \"Verfiy.sol\":7107:7114  i < 128 */\n    tag_846:\n        /* \"Verfiy.sol\":4923:4926  128 */\n      0x80\n        /* \"Verfiy.sol\":7107:7114  i < 128 */\n      dup2\n      lt\n      tag_847\n      jumpi\n        /* \"Verfiy.sol\":7176:7187  return true */\n      pop\n      pop\n      pop\n      pop\n        /* \"Verfiy.sol\":4451:4452  1 */\n      0x01\n        /* \"Verfiy.sol\":4044:7190  function CheckTest(bytes[] calldata g1s,... */\n      swap1\n      jump\t// out\n        /* \"Verfiy.sol\":7116:7119  i++ */\n    tag_847:\n        /* \"Verfiy.sol\":7135:7140  p2[i] */\n      tag_849\n      tag_850\n      dup3\n      dup7\n      tag_93\n      jump\t// in\n    tag_850:\n        /* \"Verfiy.sol\":574:1091  hex\"00000000000000000000000000000000024aa2b2f08f0a91260805272dc51051c6e47ad4fa403b02b4510b647ae3d1770bac0326a805bbefd48056c8c121bdb80000000000000000000000000000000013e02b6052719f607dacd3a088274f65596bd0d09920b61ab5da61bbdc7f5049334cf11213945d57e5ac7d055d042b7e000000000000000000000000000000000ce5d527727d6e118cc9cdc6da2e351aadfd9baa8cbdd3a76d429a695160d12c923ac9cc3baca289e193548608b82801000000000000000000000000000000000606c4a02ea734cc32acd2b02bc28b99cb3e287e85a763af267492ab572e99ab3f370d275cec1da1aaa9075ff05f79be\" */\n      mload\n      not(sub(shl(0xf8, 0x01), 0x01))\n      and\n      swap1\n      jump\n        /* \"Verfiy.sol\":7135:7140  p2[i] */\n    tag_849:\n        /* \"Verfiy.sol\":7135:7150  p2[i] != pi1[i] */\n      tag_851\n        /* \"Verfiy.sol\":7144:7150  pi1[i] */\n      tag_852\n      tag_853\n      dup5\n      dup7\n      dup9\n      tag_96\n      jump\t// in\n    tag_853:\n      calldataload\n      not(sub(shl(0xf8, 0x01), 0x01))\n        /* \"Verfiy.sol\":574:1091  hex\"00000000000000000000000000000000024aa2b2f08f0a91260805272dc51051c6e47ad4fa403b02b4510b647ae3d1770bac0326a805bbefd48056c8c121bdb80000000000000000000000000000000013e02b6052719f607dacd3a088274f65596bd0d09920b61ab5da61bbdc7f5049334cf11213945d57e5ac7d055d042b7e000000000000000000000000000000000ce5d527727d6e118cc9cdc6da2e351aadfd9baa8cbdd3a76d429a695160d12c923ac9cc3baca289e193548608b82801000000000000000000000000000000000606c4a02ea734cc32acd2b02bc28b99cb3e287e85a763af267492ab572e99ab3f370d275cec1da1aaa9075ff05f79be\" */\n      and\n      swap1\n      jump\n        /* \"Verfiy.sol\":7144:7150  pi1[i] */\n    tag_852:\n      not(sub(shl(0xf8, 0x01), 0x01))\n        /* \"Verfiy.sol\":574:1091  hex\"00000000000000000000000000000000024aa2b2f08f0a91260805272dc51051c6e47ad4fa403b02b4510b647ae3d1770bac0326a805bbefd48056c8c121bdb80000000000000000000000000000000013e02b6052719f607dacd3a088274f65596bd0d09920b61ab5da61bbdc7f5049334cf11213945d57e5ac7d055d042b7e000000000000000000000000000000000ce5d527727d6e118cc9cdc6da2e351aadfd9baa8cbdd3a76d429a695160d12c923ac9cc3baca289e193548608b82801000000000000000000000000000000000606c4a02ea734cc32acd2b02bc28b99cb3e287e85a763af267492ab572e99ab3f370d275cec1da1aaa9075ff05f79be\" */\n      and\n      swap1\n      jump\n        /* \"Verfiy.sol\":7135:7150  p2[i] != pi1[i] */\n    tag_851:\n      not(sub(shl(0xf8, 0x01), 0x01))\n        /* \"Verfiy.sol\":574:1091  hex\"00000000000000000000000000000000024aa2b2f08f0a91260805272dc51051c6e47ad4fa403b02b4510b647ae3d1770bac0326a805bbefd48056c8c121bdb80000000000000000000000000000000013e02b6052719f607dacd3a088274f65596bd0d09920b61ab5da61bbdc7f5049334cf11213945d57e5ac7d055d042b7e000000000000000000000000000000000ce5d527727d6e118cc9cdc6da2e351aadfd9baa8cbdd3a76d429a695160d12c923ac9cc3baca289e193548608b82801000000000000000000000000000000000606c4a02ea734cc32acd2b02bc28b99cb3e287e85a763af267492ab572e99ab3f370d275cec1da1aaa9075ff05f79be\" */\n      swap1\n      swap2\n      and\n        /* \"Verfiy.sol\":7135:7150  p2[i] != pi1[i] */\n      sub\n        /* \"Verfiy.sol\":7131:7164  if (p2[i] != pi1[i]) return false */\n      tag_854\n      jumpi\n        /* \"Verfiy.sol\":4451:4452  1 */\n      0x01\n        /* \"Verfiy.sol\":574:1091  hex\"00000000000000000000000000000000024aa2b2f08f0a91260805272dc51051c6e47ad4fa403b02b4510b647ae3d1770bac0326a805bbefd48056c8c121bdb80000000000000000000000000000000013e02b6052719f607dacd3a088274f65596bd0d09920b61ab5da61bbdc7f5049334cf11213945d57e5ac7d055d042b7e000000000000000000000000000000000ce5d527727d6e118cc9cdc6da2e351aadfd9baa8cbdd3a76d429a695160d12c923ac9cc3baca289e193548608b82801000000000000000000000000000000000606c4a02ea734cc32acd2b02bc28b99cb3e287e85a763af267492ab572e99ab3f370d275cec1da1aaa9075ff05f79be\" */\n      add\n        /* \"Verfiy.sol\":7092:7105  uint256 i = 0 */\n      jump(tag_846)\n        /* \"Verfiy.sol\":7131:7164  if (p2[i] != pi1[i]) return false */\n    tag_854:\n        /* \"Verfiy.sol\":7152:7164  return false */\n      pop\n      pop\n      pop\n      pop\n        /* \"Verfiy.sol\":26:13391  contract Verify {... */\n      0x00\n        /* \"Verfiy.sol\":7152:7164  return false */\n      swap1\n      jump\t// out\n        /* \"Verfiy.sol\":11542:11807  function G2Add(... */\n    tag_98:\n        /* \"Verfiy.sol\":11749:11780  address(0x0d).staticcall(input) */\n      0x00\n        /* \"Verfiy.sol\":11542:11807  function G2Add(... */\n      swap2\n      swap1\n        /* \"Verfiy.sol\":26:13391  contract Verify {... */\n      tag_213\n        /* \"Verfiy.sol\":11685:11709  abi.encodePacked(p1, p2) */\n      tag_857\n        /* \"Verfiy.sol\":11542:11807  function G2Add(... */\n      dup5\n      swap4\n        /* \"Verfiy.sol\":26:13391  contract Verify {... */\n      mload(0x40)\n        /* \"Verfiy.sol\":11685:11709  abi.encodePacked(p1, p2) */\n      swap3\n      dup4\n      swap2\n        /* \"Verfiy.sol\":26:13391  contract Verify {... */\n      tag_312\n        /* \"Verfiy.sol\":11685:11709  abi.encodePacked(p1, p2) */\n      0x20\n      dup5\n      add\n        /* \"Verfiy.sol\":26:13391  contract Verify {... */\n      dup1\n      swap8\n      tag_58\n      jump\t// in\n        /* \"Verfiy.sol\":11685:11709  abi.encodePacked(p1, p2) */\n    tag_857:\n        /* \"Verfiy.sol\":11749:11780  address(0x0d).staticcall(input) */\n      mload\n      swap1\n        /* \"Verfiy.sol\":11757:11761  0x0d */\n      0x0d\n        /* \"Verfiy.sol\":11749:11780  address(0x0d).staticcall(input) */\n      gas\n      staticcall\n      pop\n      tag_184\n      tag_56\n      jump\t// in\n        /* \"Verfiy.sol\":26:13391  contract Verify {... */\n    tag_99:\n      swap1\n        /* \"Verfiy.sol\":7456:7461  ppg1s */\n      0x02\n        /* \"Verfiy.sol\":26:13391  contract Verify {... */\n      sload\n      swap2\n      shl(0x40, 0x01)\n      dup4\n      lt\n      iszero\n      tag_174\n      jumpi\n      0x01\n      dup4\n      add\n        /* \"Verfiy.sol\":7456:7461  ppg1s */\n      0x02\n        /* \"Verfiy.sol\":26:13391  contract Verify {... */\n      sstore\n        /* \"Verfiy.sol\":7456:7461  ppg1s */\n      0x02\n        /* \"Verfiy.sol\":26:13391  contract Verify {... */\n      sload\n      dup4\n      lt\n      iszero\n      tag_257\n      jumpi\n        /* \"Verfiy.sol\":7456:7461  ppg1s */\n      0x02\n      0x00\n        /* \"Verfiy.sol\":26:13391  contract Verify {... */\n      mstore\n      tag_270\n      swap3\n      0x405787fa12a823e0f2b7631cc41b3ba8828b3321ca811111fa75cd3aa3bb5ace\n      add\n      tag_91\n      jump\t// in\n    tag_100:\n      swap1\n        /* \"Verfiy.sol\":7532:7537  ppg2s */\n      0x03\n        /* \"Verfiy.sol\":26:13391  contract Verify {... */\n      sload\n      swap2\n      shl(0x40, 0x01)\n      dup4\n      lt\n      iszero\n      tag_174\n      jumpi\n      0x01\n      dup4\n      add\n        /* \"Verfiy.sol\":7532:7537  ppg2s */\n      0x03\n        /* \"Verfiy.sol\":26:13391  contract Verify {... */\n      sstore\n        /* \"Verfiy.sol\":7532:7537  ppg2s */\n      0x03\n        /* \"Verfiy.sol\":26:13391  contract Verify {... */\n      sload\n      dup4\n      lt\n      iszero\n      tag_257\n      jumpi\n        /* \"Verfiy.sol\":7532:7537  ppg2s */\n      0x03\n      0x00\n        /* \"Verfiy.sol\":26:13391  contract Verify {... */\n      mstore\n      tag_270\n      swap3\n      0xc2575a0e9e593c00f959f8c92f12db2869c3395a3b0502d05e2516446f71f85b\n      add\n      tag_91\n      jump\t// in\n    tag_101:\n      iszero\n      tag_870\n      jumpi\n      jump\t// out\n    tag_870:\n      mload(0x40)\n      shl(0xe5, 0x461bcd)\n      dup2\n      mstore\n      0x20\n      0x04\n      dup3\n      add\n      mstore\n      0x0d\n      0x24\n      dup3\n      add\n      mstore\n      shl(0x9a, 0x10da1958dacc4811985a5b1959)\n      0x44\n      dup3\n      add\n      mstore\n      0x64\n      swap1\n      revert\n        /* \"Verfiy.sol\":10415:10622  function CopyBytes(bytes calldata from,uint256 fromOff,bytes memory to,uint256 toOff,uint256 len) internal pure{... */\n    tag_102:\n      swap1\n        /* \"Verfiy.sol\":8229:8232  256 */\n      0x0100\n        /* \"Verfiy.sol\":10415:10622  function CopyBytes(bytes calldata from,uint256 fromOff,bytes memory to,uint256 toOff,uint256 len) internal pure{... */\n      swap3\n        /* \"Verfiy.sol\":10532:10620  assembly{... */\n      0x20\n        /* \"Verfiy.sol\":10415:10622  function CopyBytes(bytes calldata from,uint256 fromOff,bytes memory to,uint256 toOff,uint256 len) internal pure{... */\n      swap2\n        /* \"Verfiy.sol\":10532:10620  assembly{... */\n      add\n      add\n      calldatacopy\n        /* \"Verfiy.sol\":10415:10622  function CopyBytes(bytes calldata from,uint256 fromOff,bytes memory to,uint256 toOff,uint256 len) internal pure{... */\n      jump\t// out\n    tag_103:\n      swap1\n        /* \"Verfiy.sol\":1993:1996  128 */\n      0x80\n        /* \"Verfiy.sol\":10415:10622  function CopyBytes(bytes calldata from,uint256 fromOff,bytes memory to,uint256 toOff,uint256 len) internal pure{... */\n      swap3\n        /* \"Verfiy.sol\":10532:10620  assembly{... */\n      0x20\n        /* \"Verfiy.sol\":10415:10622  function CopyBytes(bytes calldata from,uint256 fromOff,bytes memory to,uint256 toOff,uint256 len) internal pure{... */\n      swap2\n        /* \"Verfiy.sol\":10532:10620  assembly{... */\n      add\n      add\n      calldatacopy\n        /* \"Verfiy.sol\":10415:10622  function CopyBytes(bytes calldata from,uint256 fromOff,bytes memory to,uint256 toOff,uint256 len) internal pure{... */\n      jump\t// out\n        /* \"Verfiy.sol\":9451:10322  function CopyStorageBytes256(bytes storage s, bytes memory to, uint256 toOff) internal view {... */\n    tag_105:\n      swap2\n      swap1\n      swap2\n        /* \"Verfiy.sol\":9549:10320  assembly {... */\n      dup1\n      sload\n      0x01\n      dup2\n      and\n      iszero\n      tag_150\n      jumpi\n      0x0100\n        /* \"Verfiy.sol\":26:13391  contract Verify {... */\n      swap1\n      not(0x00)\n        /* \"Verfiy.sol\":9549:10320  assembly {... */\n      add\n      0x01\n      shr\n      sub\n      tag_150\n      jumpi\n      0x0100\n      swap2\n      0x07\n      swap2\n      0x00\n      mstore\n      keccak256(0x00, 0x20)\n      swap4\n      add\n      swap3\n      dup1\n      sload\n      0x20\n      dup6\n      add\n      mstore\n      0x01\n      dup2\n      add\n      sload\n      0x40\n      dup6\n      add\n      mstore\n      0x02\n      dup2\n      add\n      sload\n      0x60\n      dup6\n      add\n      mstore\n      0x03\n      dup2\n      add\n      sload\n      0x80\n      dup6\n      add\n      mstore\n      0x04\n      dup2\n      add\n      sload\n      0xa0\n      dup6\n      add\n      mstore\n      0x05\n      dup2\n      add\n      sload\n      0xc0\n      dup6\n      add\n      mstore\n      0x06\n      dup2\n      add\n      sload\n      0xe0\n      dup6\n      add\n      mstore\n      add\n      sload\n      swap2\n      add\n      mstore\n        /* \"Verfiy.sol\":9451:10322  function CopyStorageBytes256(bytes storage s, bytes memory to, uint256 toOff) internal view {... */\n      jump\t// out\n    stop\n    data_3b2d02282c3edcbfc4f9664b53f75892ea03b8fe586039e3ee6fe41258ca9b0d 73eda753299d7d483339d80809a1d80553bda402fffe5bfeffffffff00000001\n\n    auxdata: 0xa2646970667358221220e903e858b0317b17630256977dafe66e4fede903c959e0de141b234dcd5d1cec64736f6c634300081f0033\n}\n",
				"bytecode": {
					"linkReferences": {},
					"object": "6080346101985760a081016001600160401b0381118282101761018457604052608081526f17f1d3a73197d7942695638c4fa9ac0f60208201527fc3688c4f9774b905a14e3a3f171bac586c55e83ff97a1aeffb3af00adb22c6bb60408201526f08b3f481e3aaa0f1a09e30ed741d8ae460608201527ffcf5e095d5d00af600db18cb2c04b3edd03cc744a2888ae40caa232946c5e7e160808201525f54600190600181811c9116801561017a575b602082101461016657601f8111610115575b50505f80805260205f51602061233a5f395f51905f525b608083106100fd576101015f5560ff196001541660015560405161219d908161019d8239f35b602060018192848701518155019201920191906100d7565b5f8052601f0160051c5f51602061233a5f395f51905f52017f290decd9548b62a8d60345a988386fc84ba6bc95484008f6362f93160ef3e5675b81811061015c57506100c0565b5f8155820161014f565b634e487b7160e01b5f52602260045260245ffd5b90607f16906100ae565b634e487b7160e01b5f52604160045260245ffd5b5f80fdfe60806040526004361015610011575f80fd5b5f3560e01c80630632523914610144578063205c9cc71461013f5780633f009c161461013a5780634d9194051461013557806351e543081461013057806354b57f701461012b5780635cdc73ef146101265780636592041a1461012157806369331a261461011c5780636f18b669146101175780638a2ba01c14610112578063a66339b71461010d578063af1d0bd914610108578063c1f2c91514610103578063c588e555146100fe578063d6385d60146100f9578063e63c1828146100f4578063e6859b9a146100ef5763e86d06c7146100ea575f80fd5b610c59565b610c09565b610b40565b610b26565b610a93565b610a54565b6109e6565b6109b8565b61099c565b610980565b610935565b6108ee565b61088f565b6107b7565b6103d0565b6103b6565b610343565b610224565b6101fe565b9181601f84011215610176578235916001600160401b038311610176576020838186019501011161017657565b5f80fd5b9181601f84011215610176578235916001600160401b038311610176576020808501948460051b01011161017657565b6060600319820112610176576004356001600160401b03811161017657816101d491600401610149565b92909291602435906001600160401b038211610176576101f69160040161017a565b909160443590565b3461017657602061021a610211366101aa565b939290926112e5565b6040519015158152f35b34610176575f36600319011261017657602060ff600154166040519015158152f35b634e487b7160e01b5f52604160045260245ffd5b90601f801991011681019081106001600160401b0382111761027b57604052565b610246565b6001600160401b03811161027b57601f01601f191660200190565b9291926102a782610280565b916102b5604051938461025a565b829481845281830111610176578281602093845f960137010152565b9080601f83011215610176578160206102ec9335910161029b565b90565b602060031982011261017657600435906001600160401b038211610176576102ec916004016102d1565b602060409281835280519182918282860152018484015e5f828201840152601f01601f1916010190565b346101765761036861035c610357366102ef565b611406565b60405191829182610319565b0390f35b906040600319830112610176576004356001600160401b0381116101765782610397916004016102d1565b91602435906001600160401b038211610176576102ec916004016102d1565b346101765761036861035c6103ca3661036c565b9061142e565b34610176576103de366101aa565b92939091610422604051602081019061040c816103fe88878c8a88611501565b03601f19810183528261025a565b5190205f5160206121485f395f51905f52900690565b9261043c610437610432836110e6565b611528565b611597565b9561044c610437610432846110e6565b958591865f968a5f985b61045f886110e6565b8a116104f457908a918a898b6104758a83611112565b83146104d4576104b3846104ae6104cb9896886104a86104c3985f5160206121485f395f51905f529b986104be98611199565b506120b7565b6115c9565b9182016020018b9052565b6115d8565b9709986110d8565b97948b90610456565b505050965f5160206121485f395f51905f529150916104cb9209986110d8565b5094509089899394875f945f955b61050b836110e6565b871161059d5787908761051e8686611112565b81146105815791610572610564836104ae5f5160206121485f395f51905f52958b61055e8961055861055261057a9c6105f8565b50610719565b506105f8565b506120d0565b8881016020018a90526115d8565b9709966110d8565b9594610502565b509561057a915f5160206121485f395f51905f529109966110d8565b506105d36105d89189866105cd6105bc6105b68f611406565b92611406565b936105c5611219565b93369161029b565b91611676565b611602565b60405160018152602090f35b634e487b7160e01b5f52603260045260245ffd5b6003548110156106105760035f5260205f2001905f90565b6105e4565b6002548110156106105760025f5260205f2001905f90565b90600182811c9216801561065b575b602083101461064757565b634e487b7160e01b5f52602260045260245ffd5b91607f169161063c565b604051905f825f54916106778361062d565b80835292600181169081156106fa575060011461069d575b61069b9250038361025a565b565b505f80805290917f290decd9548b62a8d60345a988386fc84ba6bc95484008f6362f93160ef3e5635b8183106106de57505090602061069b9282010161068f565b60209193508060019154838589010152019101909184926106c6565b6020925061069b94915060ff191682840152151560051b82010161068f565b9060405191825f82549261072c8461062d565b80845293600181169081156107955750600114610751575b5061069b9250038361025a565b90505f9291925260205f20905f915b81831061077957505090602061069b928201015f610744565b6020919350806001915483858901015201910190918492610760565b90506020925061069b94915060ff191682840152151560051b8201015f610744565b34610176576020366003190112610176576004356002548110156101765761035c6103689160025f527f405787fa12a823e0f2b7631cc41b3ba8828b3321ca811111fa75cd3aa3bb5ace01610719565b906080600319830112610176576004356001600160401b0381116101765782610832916004016102d1565b916024356001600160401b0381116101765781610851916004016102d1565b916044356001600160401b0381116101765782610870916004016102d1565b91606435906001600160401b038211610176576102ec916004016102d1565b34610176575f806108c46108c46108ca6103fe6108ab36610807565b91939296906040519687956108c460208801809b61141c565b9061141c565b5190600f5afa50602060016108e56108e06113d7565b61163e565b14604051908152f35b346101765761036861035c610902366102ef565b611660565b602060031982011261017657600435906001600160401b0382116101765761093191600401610149565b9091565b34610176577fa6f91dded377b2f1cc2f0fee7290c32075af11dba176369f69022443f046ee3b61096436610907565b61097b60405192839260208452602084019161145c565b0390a1005b3461017657602061021a61099336610807565b92919091611676565b34610176575f3660031901126101765761036861035c5f610719565b3461017657602061021a6109cb36610907565b50606081013590604081013590602081013590351717171590565b34610176576040366003190112610176576004356001600160401b038111610176575f610a1881923690600401610149565b610a426020806024359360405194818692848401988937820190838201520301808452018261025a565b5190600e5afa5061036861035c6113d7565b34610176576040366003190112610176576004356001600160401b0381116101765761035c610a8a6103689236906004016102d1565b60243590611709565b34610176576080366003190112610176576004356001600160401b03811161017657610ac390369060040161017a565b6024356001600160401b03811161017657610ae290369060040161017a565b919092604435926001600160401b0384116101765761036894610b0c610b14953690600401610149565b949093611bad565b60405190151581529081906020820190565b346101765761036861035c610b3a3661036c565b90611fab565b34610176576040366003190112610176576004356001600160401b03811161017657610b7090369060040161017a565b906024356001600160401b03811161017657610b9090369060040161017a565b5f1984018481119392905f855b610c0457818111610bcb5780610bc0610bba610bc5938a89611199565b90611fd9565b6110d8565b85610b9d565b50505f19820182811191905f835b610c0457818111610c025780610bc0610bf6610bfc938887611199565b9061202a565b83610bd9565b005b6110c4565b34610176576020366003190112610176576004356003548110156101765761035c6103689160035f527fc2575a0e9e593c00f959f8c92f12db2869c3395a3b0502d05e2516446f71f85b01610719565b34610176576060366003190112610176576004356001600160401b03811161017657610c8990369060040161017a565b6024356001600160401b03811161017657610ca890369060040161017a565b9290916044356001600160401b03811161017657610ccd909491943690600401610149565b94610ce183610cdb8361153b565b14611742565b610cfd604051602081019061040c816103fe888b888c88611749565b93610d1a604051602081019061040c816103fe898c898988611779565b96600193610d2a61043785611551565b98610d3f610437610d3a896110f4565b611567565b98610d54610437610d4f886110e6565b611551565b99610d64610437610d3a8b611103565b5f99908a5b610d728a6110e6565b8c11610de6575f5160206121485f395f51905f528f610dd78f918f8f8f8f97610dc98186610dc387868e610ddf9f6080610db66104be9d610dce9c610dbe94611199565b905014611797565b611199565b506120c4565b6115e6565b92830160200152565b9c099b6110d8565b9a99610d69565b5095888c8f988f610df78c9b611660565b905f9b8a965f9d8e5b610e14610e0f610e0f8b61157f565b6110e6565b10610e9d578a8f918e928c8f610e298d6110e6565b83148015610e94575b610e74578d610dce856104ae610e6c9997896104a8610e64995f5160206121485f395f51905f529c996104be99611199565b9a099e6110d8565b9d978e610e00565b505050995f5160206121485f395f51905f52915091610e6c92099e6110d8565b508c8314610e32565b508893918c88928f8e610ec08f610eb390611406565b610ebb6117d0565b611fab565b995f998c988b5b610ed3610e0f8b6110e6565b8d11610f1a575f5160206121485f395f51905f528f610f0b8f8f908f8f8f97610dc98186610dc36104be97610dce96610f139e611199565b9c099c6110d8565b9b99610ec7565b509388888e610f38610f2b8f611660565b610f33611219565b61142e565b905f986001955f9a5b610f4d610e0f8861157f565b8c11610fd557898e918d8b8e8b83148015610fc4575b610fa4578c610dce856104ae610f9d9997896104a8610f95995f5160206121485f395f51905f529c996104be99611199565b99099b6110d8565b9a96610f41565b505050985f5160206121485f395f51905f52915091610f9d92099b6110d8565b50610fce8c6115f4565b8314610f63565b50849650856105c5816110918f6105d89e6110526110be9f859f9b9c6110999d61109e9f9c6110819c611048849f61103d9e6110879a61103461103d61102a6110439561102461104d9d611406565b9b61111f565b92906105c56117d0565b936105c5610665565b92611676565b61207b565b611676565b6118d8565b61105a611219565b9961107961107161106a876115f4565b8385611199565b98909b611159565b9990956110e6565b91611199565b979094369161029b565b94369161029b565b611916565b6110b960016110b06109cb858561111f565b15151415611954565b61111f565b906119df565b634e487b7160e01b5f52601160045260245ffd5b5f198114610c045760010190565b5f19810191908211610c0457565b600219810191908211610c0457565b600119810191908211610c0457565b91908203918211610c0457565b901561061057803590601e19813603018212156101765701908135916001600160401b038311610176576020018236038113610176579190565b906001101561061057602081013590601e19813603018212156101765701908135916001600160401b038311610176576020018236038113610176579190565b91908110156106105760051b81013590601e19813603018212156101765701908135916001600160401b038311610176576020018236038113610176579190565b156111e157565b60405162461bcd60e51b815260206004820152601060248201526f12d95e50da1958dacc4811985a5b195960821b6044820152606490fd5b6040519061122860a08361025a565b608082527ffcf5e095d5d00af600db18cb2c04b3edd03cc744a2888ae40caa232946c5e7e16080836f17f1d3a73197d7942695638c4fa9ac0f60208201527fc3688c4f9774b905a14e3a3f171bac586c55e83ff97a1aeffb3af00adb22c6bb60408201526f08b3f481e3aaa0f1a09e30ed741d8ae460608201520152565b156112ad57565b60405162461bcd60e51b815260206004820152601060248201526f12d95e50da1958dacc8811985a5b195960821b6044820152606490fd5b919493949290925f5b6112f783611103565b8111611379576113749061130b8885611112565b8114610bc057610bc061136f61135b61133261132d610e0f610e0f878b611112565b610615565b5061133e858989611199565b92906105c561135461134f8c6110e6565b6105f8565b5093610719565b61103d611369368d8d61029b565b92610719565b6111da565b6112ee565b50919293946001146113ce576113c99361103d6113696113c4956105c561134f956113bb6113b36113a8611219565b9983611081816110e6565b9890926110e6565b5096369161029b565b6112a6565b600190565b50505050600190565b3d15611401573d906113e882610280565b916113f6604051938461025a565b82523d5f602084013e565b606090565b5f8091602081519101600e5afa506102ec6113d7565b805191908290602001825e015f815290565b5f91906103fe61144d84936040519283916108c460208401809761141c565b5190600b5afa506102ec6113d7565b908060209392818452848401375f828201840152601f01601f1916010190565b90602083828152019060208160051b85010193835f915b8383106114a35750505050505090565b909192939495601f198282030186528635601e198436030181121561017657830190602082359201916001600160401b038111610176578036038313610176576114f3602092839260019561145c565b980196019493019190611493565b929061151a906102ec959360408652604086019161145c565b92602081850391015261147c565b90816101200291610120830403610c0457565b908160011b9180830460021490151715610c0457565b9060a082029180830460a01490151715610c0457565b906101208202918083046101201490151715610c0457565b600181901b91906001600160ff1b03811603610c0457565b906115a182610280565b6115ae604051918261025a565b82815280926115bf601f1991610280565b0190602036910137565b906101008201809211610c0457565b9060208201809211610c0457565b9060808201809211610c0457565b9060018201809211610c0457565b1561160957565b60405162461bcd60e51b815260206004820152600d60248201526c10da1958dad2d95e4811985a5b609a1b6044820152606490fd5b602081519101519060208110611652575090565b5f199060200360031b1b1690565b5f8091602081519101600c5afa506102ec6113d7565b906116f16108c4916103fe5f96878080986040516116cb60208261169d828201809661141c565b7f73eda753299d7d483339d80809a1d80553bda402fffe5bfeffffffff00000000815203808452018261025a565b5190600c5afa506108c46116dd6113d7565b6040519687956108c460208801809b61141c565b5190600f5afa5060016117056108e06113d7565b1490565b5f9190829161173360206040518093611725838301809761141c565b90815203808452018261025a565b5190600c5afa506102ec6113d7565b1561017657565b9493925f936117666117749360409560608a5260608a019161147c565b91878303602089015261147c565b930152565b9493926001936117666117749360409560608a5260608a019161147c565b1561179e57565b60405162461bcd60e51b815260206004820152600a6024820152693130b2102398903632b760b11b6044820152606490fd5b604051906117e06101208361025a565b61010082527fcb3e287e85a763af267492ab572e99ab3f370d275cec1da1aaa9075ff05f79be610100836f024aa2b2f08f0a91260805272dc5105160208201527fc6e47ad4fa403b02b4510b647ae3d1770bac0326a805bbefd48056c8c121bdb860408201526f13e02b6052719f607dacd3a088274f6560608201527f596bd0d09920b61ab5da61bbdc7f5049334cf11213945d57e5ac7d055d042b7e60808201526f0ce5d527727d6e118cc9cdc6da2e351a60a08201527fadfd9baa8cbdd3a76d429a695160d12c923ac9cc3baca289e193548608b8280160c08201526f0606c4a02ea734cc32acd2b02bc28b9960e08201520152565b156118df57565b60405162461bcd60e51b815260206004820152600f60248201526e10da1958dacc8b4c4811985a5b1959608a1b6044820152606490fd5b1561191d57565b60405162461bcd60e51b815260206004820152600f60248201526e10da1958dacc8b4c8811985a5b1959608a1b6044820152606490fd5b1561195b57565b60405162461bcd60e51b815260206004820152600d60248201526c10da1958daccc811985a5b1959609a1b6044820152606490fd5b601f821161199d57505050565b5f5260205f20906020601f840160051c830193106119d5575b601f0160051c01905b8181106119ca575050565b5f81556001016119bf565b90915081906119b6565b91906001600160401b03811161027b57611a03816119fd5f5461062d565b5f611990565b5f601f8211600114611a40578190611a3193945f92611a35575b50508160011b915f199060031b1c19161790565b5f55565b013590505f80611a1d565b5f8052601f198216937f290decd9548b62a8d60345a988386fc84ba6bc95484008f6362f93160ef3e563915f5b868110611aa35750836001959610611a8a575b505050811b015f55565b01355f19600384901b60f8161c191690555f8080611a80565b90926020600181928686013581550194019101611a6d565b9092916001600160401b03811161027b57611ae081611ada845461062d565b84611990565b5f601f8211600114611b12578190611b0e9394955f92611a355750508160011b915f199060031b1c19161790565b9055565b601f19821694611b25845f5260205f2090565b915f5b878110611b5f575083600195969710611b46575b505050811b019055565b01355f19600384901b60f8161c191690555f8080611b3c565b90926020600181928686013581550194019101611b28565b929061151a906102ec959360408652604086019161147c565b908151811015610610570160200190565b90821015610610570190565b959195949294611bc086610cdb8461153b565b611bdc604051602081019061040c816103fe8b8d898988611749565b94611bf98860405161040c816103fe8c60208301958a8a88611779565b90600194611c0961043786611551565b99611c19610437610d3a8c6110f4565b611c28610437610d4f896110e6565b9a611c38610437610d3a83611103565b945f9a5f9b5b611c478b6110e6565b8d11611c9b578f8e611c8c8f928f8f908f87610dc9611c949986610dc38b8887610dbe5f5160206121485f395f51905f529f610db66080916104be9e610dce9d611199565b9d099c6110d8565b9b9a611c3e565b50939a5093969a949b91985096949b611cb390611660565b5f9a8d978c5b8d611cc9610e0f610e0f8c61157f565b10611d52578f908c908f8f8e90611cdf8e6110e6565b83148015611d49575b611d29578e610dce856104ae611d229997896104a8611d1a995f5160206121485f395f51905f529c996104be99611199565b9b099d6110d8565b9c98611cb9565b5050509a5f5160206121485f395f51905f52915091611d2292099d6110d8565b508d8314611ce8565b509698959d949c929a9399611d6e929c50610eb3919850611406565b935f9a8d995f9c5b8d611d83610e0f8d6110e6565b10611dca578f5f5160206121485f395f51905f52908f8f8f8f908f87610dc9611dc39986610dc3611dbb996104be98610dce97611199565b9d099d6110d8565b9c9a611d76565b50949b5099610f2b9197969d50611de69298959c939950611660565b5f98600195918a5b611dfa610e0f8861157f565b8c11611e7a57898d918d8b8e8b83148015611e69575b611e49578c610dce856104ae611e429997896104a8610f95995f5160206121485f395f51905f529c996104be99611199565b9a96611dee565b505050985f5160206121485f395f51905f52915091611e4292099b6110d8565b50611e738c6115f4565b8314611e10565b50611f2499939b50611f2f9a50611f18965096611eae61104d61040c93611f12979f9a611f1f9b61103d6103fe989e611406565b611ee0611099858b61108161103d8b6105c581611091611087611ecf611219565b988c61107961107161106a876115f4565b611ef260016110b06109cb898d61111f565b611eff6110be878b61111f565b6040519283916020830195888c88611b77565b9361111f565b369161029b565b611709565b6103ca36858561029b565b915f5b60808110611f435750505050600190565b611f5e611f508286611b90565b516001600160f81b03191690565b611f8a611f7d611f6f848688611ba1565b356001600160f81b03191690565b6001600160f81b03191690565b6001600160f81b031990911603611fa357600101611f32565b505050505f90565b5f91906103fe611fca84936040519283916108c460208401809761141c565b5190600d5afa506102ec6113d7565b9060025491600160401b83101561027b57600183016002556002548310156106105760025f5261069b927f405787fa12a823e0f2b7631cc41b3ba8828b3321ca811111fa75cd3aa3bb5ace01611abb565b9060035491600160401b83101561027b57600183016003556003548310156106105760035f5261069b927fc2575a0e9e593c00f959f8c92f12db2869c3395a3b0502d05e2516446f71f85b01611abb565b1561208257565b60405162461bcd60e51b815260206004820152600d60248201526c10da1958dacc4811985a5b1959609a1b6044820152606490fd5b9061010092602091010137565b90608092602091010137565b9190918054600181161561017657610100905f190160011c0361017657610100916007915f5260205f2093019280546020850152600181015460408501526002810154606085015260038101546080850152600481015460a0850152600581015460c0850152600681015460e0850152015491015256fe73eda753299d7d483339d80809a1d80553bda402fffe5bfeffffffff00000001a2646970667358221220e903e858b0317b17630256977dafe66e4fede903c959e0de141b234dcd5d1cec64736f6c634300081f0033290decd9548b62a8d60345a988386fc84ba6bc95484008f6362f93160ef3e563",
					"opcodes": "PUSH1 0x80 CALLVALUE PUSH2 0x198 JUMPI PUSH1 0xA0 DUP2 ADD PUSH1 0x1 PUSH1 0x1 PUSH1 0x40 SHL SUB DUP2 GT DUP3 DUP3 LT OR PUSH2 0x184 JUMPI PUSH1 0x40 MSTORE PUSH1 0x80 DUP2 MSTORE PUSH16 0x17F1D3A73197D7942695638C4FA9AC0F PUSH1 0x20 DUP3 ADD MSTORE PUSH32 0xC3688C4F9774B905A14E3A3F171BAC586C55E83FF97A1AEFFB3AF00ADB22C6BB PUSH1 0x40 DUP3 ADD MSTORE PUSH16 0x8B3F481E3AAA0F1A09E30ED741D8AE4 PUSH1 0x60 DUP3 ADD MSTORE PUSH32 0xFCF5E095D5D00AF600DB18CB2C04B3EDD03CC744A2888AE40CAA232946C5E7E1 PUSH1 0x80 DUP3 ADD MSTORE PUSH0 SLOAD PUSH1 0x1 SWAP1 PUSH1 0x1 DUP2 DUP2 SHR SWAP2 AND DUP1 ISZERO PUSH2 0x17A JUMPI JUMPDEST PUSH1 0x20 DUP3 LT EQ PUSH2 0x166 JUMPI PUSH1 0x1F DUP2 GT PUSH2 0x115 JUMPI JUMPDEST POP POP PUSH0 DUP1 DUP1 MSTORE PUSH1 0x20 PUSH0 MLOAD PUSH1 0x20 PUSH2 0x233A PUSH0 CODECOPY PUSH0 MLOAD SWAP1 PUSH0 MSTORE JUMPDEST PUSH1 0x80 DUP4 LT PUSH2 0xFD JUMPI PUSH2 0x101 PUSH0 SSTORE PUSH1 0xFF NOT PUSH1 0x1 SLOAD AND PUSH1 0x1 SSTORE PUSH1 0x40 MLOAD PUSH2 0x219D SWAP1 DUP2 PUSH2 0x19D DUP3 CODECOPY RETURN JUMPDEST PUSH1 0x20 PUSH1 0x1 DUP2 SWAP3 DUP5 DUP8 ADD MLOAD DUP2 SSTORE ADD SWAP3 ADD SWAP3 ADD SWAP2 SWAP1 PUSH2 0xD7 JUMP JUMPDEST PUSH0 DUP1 MSTORE PUSH1 0x1F ADD PUSH1 0x5 SHR PUSH0 MLOAD PUSH1 0x20 PUSH2 0x233A PUSH0 CODECOPY PUSH0 MLOAD SWAP1 PUSH0 MSTORE ADD PUSH32 0x290DECD9548B62A8D60345A988386FC84BA6BC95484008F6362F93160EF3E567 JUMPDEST DUP2 DUP2 LT PUSH2 0x15C JUMPI POP PUSH2 0xC0 JUMP JUMPDEST PUSH0 DUP2 SSTORE DUP3 ADD PUSH2 0x14F JUMP JUMPDEST PUSH4 0x4E487B71 PUSH1 0xE0 SHL PUSH0 MSTORE PUSH1 0x22 PUSH1 0x4 MSTORE PUSH1 0x24 PUSH0 REVERT JUMPDEST SWAP1 PUSH1 0x7F AND SWAP1 PUSH2 0xAE JUMP JUMPDEST PUSH4 0x4E487B71 PUSH1 0xE0 SHL PUSH0 MSTORE PUSH1 0x41 PUSH1 0x4 MSTORE PUSH1 0x24 PUSH0 REVERT JUMPDEST PUSH0 DUP1 REVERT INVALID PUSH1 0x80 PUSH1 0x40 MSTORE PUSH1 0x4 CALLDATASIZE LT ISZERO PUSH2 0x11 JUMPI PUSH0 DUP1 REVERT JUMPDEST PUSH0 CALLDATALOAD PUSH1 0xE0 SHR DUP1 PUSH4 0x6325239 EQ PUSH2 0x144 JUMPI DUP1 PUSH4 0x205C9CC7 EQ PUSH2 0x13F JUMPI DUP1 PUSH4 0x3F009C16 EQ PUSH2 0x13A JUMPI DUP1 PUSH4 0x4D919405 EQ PUSH2 0x135 JUMPI DUP1 PUSH4 0x51E54308 EQ PUSH2 0x130 JUMPI DUP1 PUSH4 0x54B57F70 EQ PUSH2 0x12B JUMPI DUP1 PUSH4 0x5CDC73EF EQ PUSH2 0x126 JUMPI DUP1 PUSH4 0x6592041A EQ PUSH2 0x121 JUMPI DUP1 PUSH4 0x69331A26 EQ PUSH2 0x11C JUMPI DUP1 PUSH4 0x6F18B669 EQ PUSH2 0x117 JUMPI DUP1 PUSH4 0x8A2BA01C EQ PUSH2 0x112 JUMPI DUP1 PUSH4 0xA66339B7 EQ PUSH2 0x10D JUMPI DUP1 PUSH4 0xAF1D0BD9 EQ PUSH2 0x108 JUMPI DUP1 PUSH4 0xC1F2C915 EQ PUSH2 0x103 JUMPI DUP1 PUSH4 0xC588E555 EQ PUSH2 0xFE JUMPI DUP1 PUSH4 0xD6385D60 EQ PUSH2 0xF9 JUMPI DUP1 PUSH4 0xE63C1828 EQ PUSH2 0xF4 JUMPI DUP1 PUSH4 0xE6859B9A EQ PUSH2 0xEF JUMPI PUSH4 0xE86D06C7 EQ PUSH2 0xEA JUMPI PUSH0 DUP1 REVERT JUMPDEST PUSH2 0xC59 JUMP JUMPDEST PUSH2 0xC09 JUMP JUMPDEST PUSH2 0xB40 JUMP JUMPDEST PUSH2 0xB26 JUMP JUMPDEST PUSH2 0xA93 JUMP JUMPDEST PUSH2 0xA54 JUMP JUMPDEST PUSH2 0x9E6 JUMP JUMPDEST PUSH2 0x9B8 JUMP JUMPDEST PUSH2 0x99C JUMP JUMPDEST PUSH2 0x980 JUMP JUMPDEST PUSH2 0x935 JUMP JUMPDEST PUSH2 0x8EE JUMP JUMPDEST PUSH2 0x88F JUMP JUMPDEST PUSH2 0x7B7 JUMP JUMPDEST PUSH2 0x3D0 JUMP JUMPDEST PUSH2 0x3B6 JUMP JUMPDEST PUSH2 0x343 JUMP JUMPDEST PUSH2 0x224 JUMP JUMPDEST PUSH2 0x1FE JUMP JUMPDEST SWAP2 DUP2 PUSH1 0x1F DUP5 ADD SLT ISZERO PUSH2 0x176 JUMPI DUP3 CALLDATALOAD SWAP2 PUSH1 0x1 PUSH1 0x1 PUSH1 0x40 SHL SUB DUP4 GT PUSH2 0x176 JUMPI PUSH1 0x20 DUP4 DUP2 DUP7 ADD SWAP6 ADD ADD GT PUSH2 0x176 JUMPI JUMP JUMPDEST PUSH0 DUP1 REVERT JUMPDEST SWAP2 DUP2 PUSH1 0x1F DUP5 ADD SLT ISZERO PUSH2 0x176 JUMPI DUP3 CALLDATALOAD SWAP2 PUSH1 0x1 PUSH1 0x1 PUSH1 0x40 SHL SUB DUP4 GT PUSH2 0x176 JUMPI PUSH1 0x20 DUP1 DUP6 ADD SWAP5 DUP5 PUSH1 0x5 SHL ADD ADD GT PUSH2 0x176 JUMPI JUMP JUMPDEST PUSH1 0x60 PUSH1 0x3 NOT DUP3 ADD SLT PUSH2 0x176 JUMPI PUSH1 0x4 CALLDATALOAD PUSH1 0x1 PUSH1 0x1 PUSH1 0x40 SHL SUB DUP2 GT PUSH2 0x176 JUMPI DUP2 PUSH2 0x1D4 SWAP2 PUSH1 0x4 ADD PUSH2 0x149 JUMP JUMPDEST SWAP3 SWAP1 SWAP3 SWAP2 PUSH1 0x24 CALLDATALOAD SWAP1 PUSH1 0x1 PUSH1 0x1 PUSH1 0x40 SHL SUB DUP3 GT PUSH2 0x176 JUMPI PUSH2 0x1F6 SWAP2 PUSH1 0x4 ADD PUSH2 0x17A JUMP JUMPDEST SWAP1 SWAP2 PUSH1 0x44 CALLDATALOAD SWAP1 JUMP JUMPDEST CALLVALUE PUSH2 0x176 JUMPI PUSH1 0x20 PUSH2 0x21A PUSH2 0x211 CALLDATASIZE PUSH2 0x1AA JUMP JUMPDEST SWAP4 SWAP3 SWAP1 SWAP3 PUSH2 0x12E5 JUMP JUMPDEST PUSH1 0x40 MLOAD SWAP1 ISZERO ISZERO DUP2 MSTORE RETURN JUMPDEST CALLVALUE PUSH2 0x176 JUMPI PUSH0 CALLDATASIZE PUSH1 0x3 NOT ADD SLT PUSH2 0x176 JUMPI PUSH1 0x20 PUSH1 0xFF PUSH1 0x1 SLOAD AND PUSH1 0x40 MLOAD SWAP1 ISZERO ISZERO DUP2 MSTORE RETURN JUMPDEST PUSH4 0x4E487B71 PUSH1 0xE0 SHL PUSH0 MSTORE PUSH1 0x41 PUSH1 0x4 MSTORE PUSH1 0x24 PUSH0 REVERT JUMPDEST SWAP1 PUSH1 0x1F DUP1 NOT SWAP2 ADD AND DUP2 ADD SWAP1 DUP2 LT PUSH1 0x1 PUSH1 0x1 PUSH1 0x40 SHL SUB DUP3 GT OR PUSH2 0x27B JUMPI PUSH1 0x40 MSTORE JUMP JUMPDEST PUSH2 0x246 JUMP JUMPDEST PUSH1 0x1 PUSH1 0x1 PUSH1 0x40 SHL SUB DUP2 GT PUSH2 0x27B JUMPI PUSH1 0x1F ADD PUSH1 0x1F NOT AND PUSH1 0x20 ADD SWAP1 JUMP JUMPDEST SWAP3 SWAP2 SWAP3 PUSH2 0x2A7 DUP3 PUSH2 0x280 JUMP JUMPDEST SWAP2 PUSH2 0x2B5 PUSH1 0x40 MLOAD SWAP4 DUP5 PUSH2 0x25A JUMP JUMPDEST DUP3 SWAP5 DUP2 DUP5 MSTORE DUP2 DUP4 ADD GT PUSH2 0x176 JUMPI DUP3 DUP2 PUSH1 0x20 SWAP4 DUP5 PUSH0 SWAP7 ADD CALLDATACOPY ADD ADD MSTORE JUMP JUMPDEST SWAP1 DUP1 PUSH1 0x1F DUP4 ADD SLT ISZERO PUSH2 0x176 JUMPI DUP2 PUSH1 0x20 PUSH2 0x2EC SWAP4 CALLDATALOAD SWAP2 ADD PUSH2 0x29B JUMP JUMPDEST SWAP1 JUMP JUMPDEST PUSH1 0x20 PUSH1 0x3 NOT DUP3 ADD SLT PUSH2 0x176 JUMPI PUSH1 0x4 CALLDATALOAD SWAP1 PUSH1 0x1 PUSH1 0x1 PUSH1 0x40 SHL SUB DUP3 GT PUSH2 0x176 JUMPI PUSH2 0x2EC SWAP2 PUSH1 0x4 ADD PUSH2 0x2D1 JUMP JUMPDEST PUSH1 0x20 PUSH1 0x40 SWAP3 DUP2 DUP4 MSTORE DUP1 MLOAD SWAP2 DUP3 SWAP2 DUP3 DUP3 DUP7 ADD MSTORE ADD DUP5 DUP5 ADD MCOPY PUSH0 DUP3 DUP3 ADD DUP5 ADD MSTORE PUSH1 0x1F ADD PUSH1 0x1F NOT AND ADD ADD SWAP1 JUMP JUMPDEST CALLVALUE PUSH2 0x176 JUMPI PUSH2 0x368 PUSH2 0x35C PUSH2 0x357 CALLDATASIZE PUSH2 0x2EF JUMP JUMPDEST PUSH2 0x1406 JUMP JUMPDEST PUSH1 0x40 MLOAD SWAP2 DUP3 SWAP2 DUP3 PUSH2 0x319 JUMP JUMPDEST SUB SWAP1 RETURN JUMPDEST SWAP1 PUSH1 0x40 PUSH1 0x3 NOT DUP4 ADD SLT PUSH2 0x176 JUMPI PUSH1 0x4 CALLDATALOAD PUSH1 0x1 PUSH1 0x1 PUSH1 0x40 SHL SUB DUP2 GT PUSH2 0x176 JUMPI DUP3 PUSH2 0x397 SWAP2 PUSH1 0x4 ADD PUSH2 0x2D1 JUMP JUMPDEST SWAP2 PUSH1 0x24 CALLDATALOAD SWAP1 PUSH1 0x1 PUSH1 0x1 PUSH1 0x40 SHL SUB DUP3 GT PUSH2 0x176 JUMPI PUSH2 0x2EC SWAP2 PUSH1 0x4 ADD PUSH2 0x2D1 JUMP JUMPDEST CALLVALUE PUSH2 0x176 JUMPI PUSH2 0x368 PUSH2 0x35C PUSH2 0x3CA CALLDATASIZE PUSH2 0x36C JUMP JUMPDEST SWAP1 PUSH2 0x142E JUMP JUMPDEST CALLVALUE PUSH2 0x176 JUMPI PUSH2 0x3DE CALLDATASIZE PUSH2 0x1AA JUMP JUMPDEST SWAP3 SWAP4 SWAP1 SWAP2 PUSH2 0x422 PUSH1 0x40 MLOAD PUSH1 0x20 DUP2 ADD SWAP1 PUSH2 0x40C DUP2 PUSH2 0x3FE DUP9 DUP8 DUP13 DUP11 DUP9 PUSH2 0x1501 JUMP JUMPDEST SUB PUSH1 0x1F NOT DUP2 ADD DUP4 MSTORE DUP3 PUSH2 0x25A JUMP JUMPDEST MLOAD SWAP1 KECCAK256 PUSH0 MLOAD PUSH1 0x20 PUSH2 0x2148 PUSH0 CODECOPY PUSH0 MLOAD SWAP1 PUSH0 MSTORE SWAP1 MOD SWAP1 JUMP JUMPDEST SWAP3 PUSH2 0x43C PUSH2 0x437 PUSH2 0x432 DUP4 PUSH2 0x10E6 JUMP JUMPDEST PUSH2 0x1528 JUMP JUMPDEST PUSH2 0x1597 JUMP JUMPDEST SWAP6 PUSH2 0x44C PUSH2 0x437 PUSH2 0x432 DUP5 PUSH2 0x10E6 JUMP JUMPDEST SWAP6 DUP6 SWAP2 DUP7 PUSH0 SWAP7 DUP11 PUSH0 SWAP9 JUMPDEST PUSH2 0x45F DUP9 PUSH2 0x10E6 JUMP JUMPDEST DUP11 GT PUSH2 0x4F4 JUMPI SWAP1 DUP11 SWAP2 DUP11 DUP10 DUP12 PUSH2 0x475 DUP11 DUP4 PUSH2 0x1112 JUMP JUMPDEST DUP4 EQ PUSH2 0x4D4 JUMPI PUSH2 0x4B3 DUP5 PUSH2 0x4AE PUSH2 0x4CB SWAP9 SWAP7 DUP9 PUSH2 0x4A8 PUSH2 0x4C3 SWAP9 PUSH0 MLOAD PUSH1 0x20 PUSH2 0x2148 PUSH0 CODECOPY PUSH0 MLOAD SWAP1 PUSH0 MSTORE SWAP12 SWAP9 PUSH2 0x4BE SWAP9 PUSH2 0x1199 JUMP JUMPDEST POP PUSH2 0x20B7 JUMP JUMPDEST PUSH2 0x15C9 JUMP JUMPDEST SWAP2 DUP3 ADD PUSH1 0x20 ADD DUP12 SWAP1 MSTORE JUMP JUMPDEST PUSH2 0x15D8 JUMP JUMPDEST SWAP8 MULMOD SWAP9 PUSH2 0x10D8 JUMP JUMPDEST SWAP8 SWAP5 DUP12 SWAP1 PUSH2 0x456 JUMP JUMPDEST POP POP POP SWAP7 PUSH0 MLOAD PUSH1 0x20 PUSH2 0x2148 PUSH0 CODECOPY PUSH0 MLOAD SWAP1 PUSH0 MSTORE SWAP2 POP SWAP2 PUSH2 0x4CB SWAP3 MULMOD SWAP9 PUSH2 0x10D8 JUMP JUMPDEST POP SWAP5 POP SWAP1 DUP10 DUP10 SWAP4 SWAP5 DUP8 PUSH0 SWAP5 PUSH0 SWAP6 JUMPDEST PUSH2 0x50B DUP4 PUSH2 0x10E6 JUMP JUMPDEST DUP8 GT PUSH2 0x59D JUMPI DUP8 SWAP1 DUP8 PUSH2 0x51E DUP7 DUP7 PUSH2 0x1112 JUMP JUMPDEST DUP2 EQ PUSH2 0x581 JUMPI SWAP2 PUSH2 0x572 PUSH2 0x564 DUP4 PUSH2 0x4AE PUSH0 MLOAD PUSH1 0x20 PUSH2 0x2148 PUSH0 CODECOPY PUSH0 MLOAD SWAP1 PUSH0 MSTORE SWAP6 DUP12 PUSH2 0x55E DUP10 PUSH2 0x558 PUSH2 0x552 PUSH2 0x57A SWAP13 PUSH2 0x5F8 JUMP JUMPDEST POP PUSH2 0x719 JUMP JUMPDEST POP PUSH2 0x5F8 JUMP JUMPDEST POP PUSH2 0x20D0 JUMP JUMPDEST DUP9 DUP2 ADD PUSH1 0x20 ADD DUP11 SWAP1 MSTORE PUSH2 0x15D8 JUMP JUMPDEST SWAP8 MULMOD SWAP7 PUSH2 0x10D8 JUMP JUMPDEST SWAP6 SWAP5 PUSH2 0x502 JUMP JUMPDEST POP SWAP6 PUSH2 0x57A SWAP2 PUSH0 MLOAD PUSH1 0x20 PUSH2 0x2148 PUSH0 CODECOPY PUSH0 MLOAD SWAP1 PUSH0 MSTORE SWAP2 MULMOD SWAP7 PUSH2 0x10D8 JUMP JUMPDEST POP PUSH2 0x5D3 PUSH2 0x5D8 SWAP2 DUP10 DUP7 PUSH2 0x5CD PUSH2 0x5BC PUSH2 0x5B6 DUP16 PUSH2 0x1406 JUMP JUMPDEST SWAP3 PUSH2 0x1406 JUMP JUMPDEST SWAP4 PUSH2 0x5C5 PUSH2 0x1219 JUMP JUMPDEST SWAP4 CALLDATASIZE SWAP2 PUSH2 0x29B JUMP JUMPDEST SWAP2 PUSH2 0x1676 JUMP JUMPDEST PUSH2 0x1602 JUMP JUMPDEST PUSH1 0x40 MLOAD PUSH1 0x1 DUP2 MSTORE PUSH1 0x20 SWAP1 RETURN JUMPDEST PUSH4 0x4E487B71 PUSH1 0xE0 SHL PUSH0 MSTORE PUSH1 0x32 PUSH1 0x4 MSTORE PUSH1 0x24 PUSH0 REVERT JUMPDEST PUSH1 0x3 SLOAD DUP2 LT ISZERO PUSH2 0x610 JUMPI PUSH1 0x3 PUSH0 MSTORE PUSH1 0x20 PUSH0 KECCAK256 ADD SWAP1 PUSH0 SWAP1 JUMP JUMPDEST PUSH2 0x5E4 JUMP JUMPDEST PUSH1 0x2 SLOAD DUP2 LT ISZERO PUSH2 0x610 JUMPI PUSH1 0x2 PUSH0 MSTORE PUSH1 0x20 PUSH0 KECCAK256 ADD SWAP1 PUSH0 SWAP1 JUMP JUMPDEST SWAP1 PUSH1 0x1 DUP3 DUP2 SHR SWAP3 AND DUP1 ISZERO PUSH2 0x65B JUMPI JUMPDEST PUSH1 0x20 DUP4 LT EQ PUSH2 0x647 JUMPI JUMP JUMPDEST PUSH4 0x4E487B71 PUSH1 0xE0 SHL PUSH0 MSTORE PUSH1 0x22 PUSH1 0x4 MSTORE PUSH1 0x24 PUSH0 REVERT JUMPDEST SWAP2 PUSH1 0x7F AND SWAP2 PUSH2 0x63C JUMP JUMPDEST PUSH1 0x40 MLOAD SWAP1 PUSH0 DUP3 PUSH0 SLOAD SWAP2 PUSH2 0x677 DUP4 PUSH2 0x62D JUMP JUMPDEST DUP1 DUP4 MSTORE SWAP3 PUSH1 0x1 DUP2 AND SWAP1 DUP2 ISZERO PUSH2 0x6FA JUMPI POP PUSH1 0x1 EQ PUSH2 0x69D JUMPI JUMPDEST PUSH2 0x69B SWAP3 POP SUB DUP4 PUSH2 0x25A JUMP JUMPDEST JUMP JUMPDEST POP PUSH0 DUP1 DUP1 MSTORE SWAP1 SWAP2 PUSH32 0x290DECD9548B62A8D60345A988386FC84BA6BC95484008F6362F93160EF3E563 JUMPDEST DUP2 DUP4 LT PUSH2 0x6DE JUMPI POP POP SWAP1 PUSH1 0x20 PUSH2 0x69B SWAP3 DUP3 ADD ADD PUSH2 0x68F JUMP JUMPDEST PUSH1 0x20 SWAP2 SWAP4 POP DUP1 PUSH1 0x1 SWAP2 SLOAD DUP4 DUP6 DUP10 ADD ADD MSTORE ADD SWAP2 ADD SWAP1 SWAP2 DUP5 SWAP3 PUSH2 0x6C6 JUMP JUMPDEST PUSH1 0x20 SWAP3 POP PUSH2 0x69B SWAP5 SWAP2 POP PUSH1 0xFF NOT AND DUP3 DUP5 ADD MSTORE ISZERO ISZERO PUSH1 0x5 SHL DUP3 ADD ADD PUSH2 0x68F JUMP JUMPDEST SWAP1 PUSH1 0x40 MLOAD SWAP2 DUP3 PUSH0 DUP3 SLOAD SWAP3 PUSH2 0x72C DUP5 PUSH2 0x62D JUMP JUMPDEST DUP1 DUP5 MSTORE SWAP4 PUSH1 0x1 DUP2 AND SWAP1 DUP2 ISZERO PUSH2 0x795 JUMPI POP PUSH1 0x1 EQ PUSH2 0x751 JUMPI JUMPDEST POP PUSH2 0x69B SWAP3 POP SUB DUP4 PUSH2 0x25A JUMP JUMPDEST SWAP1 POP PUSH0 SWAP3 SWAP2 SWAP3 MSTORE PUSH1 0x20 PUSH0 KECCAK256 SWAP1 PUSH0 SWAP2 JUMPDEST DUP2 DUP4 LT PUSH2 0x779 JUMPI POP POP SWAP1 PUSH1 0x20 PUSH2 0x69B SWAP3 DUP3 ADD ADD PUSH0 PUSH2 0x744 JUMP JUMPDEST PUSH1 0x20 SWAP2 SWAP4 POP DUP1 PUSH1 0x1 SWAP2 SLOAD DUP4 DUP6 DUP10 ADD ADD MSTORE ADD SWAP2 ADD SWAP1 SWAP2 DUP5 SWAP3 PUSH2 0x760 JUMP JUMPDEST SWAP1 POP PUSH1 0x20 SWAP3 POP PUSH2 0x69B SWAP5 SWAP2 POP PUSH1 0xFF NOT AND DUP3 DUP5 ADD MSTORE ISZERO ISZERO PUSH1 0x5 SHL DUP3 ADD ADD PUSH0 PUSH2 0x744 JUMP JUMPDEST CALLVALUE PUSH2 0x176 JUMPI PUSH1 0x20 CALLDATASIZE PUSH1 0x3 NOT ADD SLT PUSH2 0x176 JUMPI PUSH1 0x4 CALLDATALOAD PUSH1 0x2 SLOAD DUP2 LT ISZERO PUSH2 0x176 JUMPI PUSH2 0x35C PUSH2 0x368 SWAP2 PUSH1 0x2 PUSH0 MSTORE PUSH32 0x405787FA12A823E0F2B7631CC41B3BA8828B3321CA811111FA75CD3AA3BB5ACE ADD PUSH2 0x719 JUMP JUMPDEST SWAP1 PUSH1 0x80 PUSH1 0x3 NOT DUP4 ADD SLT PUSH2 0x176 JUMPI PUSH1 0x4 CALLDATALOAD PUSH1 0x1 PUSH1 0x1 PUSH1 0x40 SHL SUB DUP2 GT PUSH2 0x176 JUMPI DUP3 PUSH2 0x832 SWAP2 PUSH1 0x4 ADD PUSH2 0x2D1 JUMP JUMPDEST SWAP2 PUSH1 0x24 CALLDATALOAD PUSH1 0x1 PUSH1 0x1 PUSH1 0x40 SHL SUB DUP2 GT PUSH2 0x176 JUMPI DUP2 PUSH2 0x851 SWAP2 PUSH1 0x4 ADD PUSH2 0x2D1 JUMP JUMPDEST SWAP2 PUSH1 0x44 CALLDATALOAD PUSH1 0x1 PUSH1 0x1 PUSH1 0x40 SHL SUB DUP2 GT PUSH2 0x176 JUMPI DUP3 PUSH2 0x870 SWAP2 PUSH1 0x4 ADD PUSH2 0x2D1 JUMP JUMPDEST SWAP2 PUSH1 0x64 CALLDATALOAD SWAP1 PUSH1 0x1 PUSH1 0x1 PUSH1 0x40 SHL SUB DUP3 GT PUSH2 0x176 JUMPI PUSH2 0x2EC SWAP2 PUSH1 0x4 ADD PUSH2 0x2D1 JUMP JUMPDEST CALLVALUE PUSH2 0x176 JUMPI PUSH0 DUP1 PUSH2 0x8C4 PUSH2 0x8C4 PUSH2 0x8CA PUSH2 0x3FE PUSH2 0x8AB CALLDATASIZE PUSH2 0x807 JUMP JUMPDEST SWAP2 SWAP4 SWAP3 SWAP7 SWAP1 PUSH1 0x40 MLOAD SWAP7 DUP8 SWAP6 PUSH2 0x8C4 PUSH1 0x20 DUP9 ADD DUP1 SWAP12 PUSH2 0x141C JUMP JUMPDEST SWAP1 PUSH2 0x141C JUMP JUMPDEST MLOAD SWAP1 PUSH1 0xF GAS STATICCALL POP PUSH1 0x20 PUSH1 0x1 PUSH2 0x8E5 PUSH2 0x8E0 PUSH2 0x13D7 JUMP JUMPDEST PUSH2 0x163E JUMP JUMPDEST EQ PUSH1 0x40 MLOAD SWAP1 DUP2 MSTORE RETURN JUMPDEST CALLVALUE PUSH2 0x176 JUMPI PUSH2 0x368 PUSH2 0x35C PUSH2 0x902 CALLDATASIZE PUSH2 0x2EF JUMP JUMPDEST PUSH2 0x1660 JUMP JUMPDEST PUSH1 0x20 PUSH1 0x3 NOT DUP3 ADD SLT PUSH2 0x176 JUMPI PUSH1 0x4 CALLDATALOAD SWAP1 PUSH1 0x1 PUSH1 0x1 PUSH1 0x40 SHL SUB DUP3 GT PUSH2 0x176 JUMPI PUSH2 0x931 SWAP2 PUSH1 0x4 ADD PUSH2 0x149 JUMP JUMPDEST SWAP1 SWAP2 JUMP JUMPDEST CALLVALUE PUSH2 0x176 JUMPI PUSH32 0xA6F91DDED377B2F1CC2F0FEE7290C32075AF11DBA176369F69022443F046EE3B PUSH2 0x964 CALLDATASIZE PUSH2 0x907 JUMP JUMPDEST PUSH2 0x97B PUSH1 0x40 MLOAD SWAP3 DUP4 SWAP3 PUSH1 0x20 DUP5 MSTORE PUSH1 0x20 DUP5 ADD SWAP2 PUSH2 0x145C JUMP JUMPDEST SUB SWAP1 LOG1 STOP JUMPDEST CALLVALUE PUSH2 0x176 JUMPI PUSH1 0x20 PUSH2 0x21A PUSH2 0x993 CALLDATASIZE PUSH2 0x807 JUMP JUMPDEST SWAP3 SWAP2 SWAP1 SWAP2 PUSH2 0x1676 JUMP JUMPDEST CALLVALUE PUSH2 0x176 JUMPI PUSH0 CALLDATASIZE PUSH1 0x3 NOT ADD SLT PUSH2 0x176 JUMPI PUSH2 0x368 PUSH2 0x35C PUSH0 PUSH2 0x719 JUMP JUMPDEST CALLVALUE PUSH2 0x176 JUMPI PUSH1 0x20 PUSH2 0x21A PUSH2 0x9CB CALLDATASIZE PUSH2 0x907 JUMP JUMPDEST POP PUSH1 0x60 DUP2 ADD CALLDATALOAD SWAP1 PUSH1 0x40 DUP2 ADD CALLDATALOAD SWAP1 PUSH1 0x20 DUP2 ADD CALLDATALOAD SWAP1 CALLDATALOAD OR OR OR ISZERO SWAP1 JUMP JUMPDEST CALLVALUE PUSH2 0x176 JUMPI PUSH1 0x40 CALLDATASIZE PUSH1 0x3 NOT ADD SLT PUSH2 0x176 JUMPI PUSH1 0x4 CALLDATALOAD PUSH1 0x1 PUSH1 0x1 PUSH1 0x40 SHL SUB DUP2 GT PUSH2 0x176 JUMPI PUSH0 PUSH2 0xA18 DUP2 SWAP3 CALLDATASIZE SWAP1 PUSH1 0x4 ADD PUSH2 0x149 JUMP JUMPDEST PUSH2 0xA42 PUSH1 0x20 DUP1 PUSH1 0x24 CALLDATALOAD SWAP4 PUSH1 0x40 MLOAD SWAP5 DUP2 DUP7 SWAP3 DUP5 DUP5 ADD SWAP9 DUP10 CALLDATACOPY DUP3 ADD SWAP1 DUP4 DUP3 ADD MSTORE SUB ADD DUP1 DUP5 MSTORE ADD DUP3 PUSH2 0x25A JUMP JUMPDEST MLOAD SWAP1 PUSH1 0xE GAS STATICCALL POP PUSH2 0x368 PUSH2 0x35C PUSH2 0x13D7 JUMP JUMPDEST CALLVALUE PUSH2 0x176 JUMPI PUSH1 0x40 CALLDATASIZE PUSH1 0x3 NOT ADD SLT PUSH2 0x176 JUMPI PUSH1 0x4 CALLDATALOAD PUSH1 0x1 PUSH1 0x1 PUSH1 0x40 SHL SUB DUP2 GT PUSH2 0x176 JUMPI PUSH2 0x35C PUSH2 0xA8A PUSH2 0x368 SWAP3 CALLDATASIZE SWAP1 PUSH1 0x4 ADD PUSH2 0x2D1 JUMP JUMPDEST PUSH1 0x24 CALLDATALOAD SWAP1 PUSH2 0x1709 JUMP JUMPDEST CALLVALUE PUSH2 0x176 JUMPI PUSH1 0x80 CALLDATASIZE PUSH1 0x3 NOT ADD SLT PUSH2 0x176 JUMPI PUSH1 0x4 CALLDATALOAD PUSH1 0x1 PUSH1 0x1 PUSH1 0x40 SHL SUB DUP2 GT PUSH2 0x176 JUMPI PUSH2 0xAC3 SWAP1 CALLDATASIZE SWAP1 PUSH1 0x4 ADD PUSH2 0x17A JUMP JUMPDEST PUSH1 0x24 CALLDATALOAD PUSH1 0x1 PUSH1 0x1 PUSH1 0x40 SHL SUB DUP2 GT PUSH2 0x176 JUMPI PUSH2 0xAE2 SWAP1 CALLDATASIZE SWAP1 PUSH1 0x4 ADD PUSH2 0x17A JUMP JUMPDEST SWAP2 SWAP1 SWAP3 PUSH1 0x44 CALLDATALOAD SWAP3 PUSH1 0x1 PUSH1 0x1 PUSH1 0x40 SHL SUB DUP5 GT PUSH2 0x176 JUMPI PUSH2 0x368 SWAP5 PUSH2 0xB0C PUSH2 0xB14 SWAP6 CALLDATASIZE SWAP1 PUSH1 0x4 ADD PUSH2 0x149 JUMP JUMPDEST SWAP5 SWAP1 SWAP4 PUSH2 0x1BAD JUMP JUMPDEST PUSH1 0x40 MLOAD SWAP1 ISZERO ISZERO DUP2 MSTORE SWAP1 DUP2 SWAP1 PUSH1 0x20 DUP3 ADD SWAP1 JUMP JUMPDEST CALLVALUE PUSH2 0x176 JUMPI PUSH2 0x368 PUSH2 0x35C PUSH2 0xB3A CALLDATASIZE PUSH2 0x36C JUMP JUMPDEST SWAP1 PUSH2 0x1FAB JUMP JUMPDEST CALLVALUE PUSH2 0x176 JUMPI PUSH1 0x40 CALLDATASIZE PUSH1 0x3 NOT ADD SLT PUSH2 0x176 JUMPI PUSH1 0x4 CALLDATALOAD PUSH1 0x1 PUSH1 0x1 PUSH1 0x40 SHL SUB DUP2 GT PUSH2 0x176 JUMPI PUSH2 0xB70 SWAP1 CALLDATASIZE SWAP1 PUSH1 0x4 ADD PUSH2 0x17A JUMP JUMPDEST SWAP1 PUSH1 0x24 CALLDATALOAD PUSH1 0x1 PUSH1 0x1 PUSH1 0x40 SHL SUB DUP2 GT PUSH2 0x176 JUMPI PUSH2 0xB90 SWAP1 CALLDATASIZE SWAP1 PUSH1 0x4 ADD PUSH2 0x17A JUMP JUMPDEST PUSH0 NOT DUP5 ADD DUP5 DUP2 GT SWAP4 SWAP3 SWAP1 PUSH0 DUP6 JUMPDEST PUSH2 0xC04 JUMPI DUP2 DUP2 GT PUSH2 0xBCB JUMPI DUP1 PUSH2 0xBC0 PUSH2 0xBBA PUSH2 0xBC5 SWAP4 DUP11 DUP10 PUSH2 0x1199 JUMP JUMPDEST SWAP1 PUSH2 0x1FD9 JUMP JUMPDEST PUSH2 0x10D8 JUMP JUMPDEST DUP6 PUSH2 0xB9D JUMP JUMPDEST POP POP PUSH0 NOT DUP3 ADD DUP3 DUP2 GT SWAP2 SWAP1 PUSH0 DUP4 JUMPDEST PUSH2 0xC04 JUMPI DUP2 DUP2 GT PUSH2 0xC02 JUMPI DUP1 PUSH2 0xBC0 PUSH2 0xBF6 PUSH2 0xBFC SWAP4 DUP9 DUP8 PUSH2 0x1199 JUMP JUMPDEST SWAP1 PUSH2 0x202A JUMP JUMPDEST DUP4 PUSH2 0xBD9 JUMP JUMPDEST STOP JUMPDEST PUSH2 0x10C4 JUMP JUMPDEST CALLVALUE PUSH2 0x176 JUMPI PUSH1 0x20 CALLDATASIZE PUSH1 0x3 NOT ADD SLT PUSH2 0x176 JUMPI PUSH1 0x4 CALLDATALOAD PUSH1 0x3 SLOAD DUP2 LT ISZERO PUSH2 0x176 JUMPI PUSH2 0x35C PUSH2 0x368 SWAP2 PUSH1 0x3 PUSH0 MSTORE PUSH32 0xC2575A0E9E593C00F959F8C92F12DB2869C3395A3B0502D05E2516446F71F85B ADD PUSH2 0x719 JUMP JUMPDEST CALLVALUE PUSH2 0x176 JUMPI PUSH1 0x60 CALLDATASIZE PUSH1 0x3 NOT ADD SLT PUSH2 0x176 JUMPI PUSH1 0x4 CALLDATALOAD PUSH1 0x1 PUSH1 0x1 PUSH1 0x40 SHL SUB DUP2 GT PUSH2 0x176 JUMPI PUSH2 0xC89 SWAP1 CALLDATASIZE SWAP1 PUSH1 0x4 ADD PUSH2 0x17A JUMP JUMPDEST PUSH1 0x24 CALLDATALOAD PUSH1 0x1 PUSH1 0x1 PUSH1 0x40 SHL SUB DUP2 GT PUSH2 0x176 JUMPI PUSH2 0xCA8 SWAP1 CALLDATASIZE SWAP1 PUSH1 0x4 ADD PUSH2 0x17A JUMP JUMPDEST SWAP3 SWAP1 SWAP2 PUSH1 0x44 CALLDATALOAD PUSH1 0x1 PUSH1 0x1 PUSH1 0x40 SHL SUB DUP2 GT PUSH2 0x176 JUMPI PUSH2 0xCCD SWAP1 SWAP5 SWAP2 SWAP5 CALLDATASIZE SWAP1 PUSH1 0x4 ADD PUSH2 0x149 JUMP JUMPDEST SWAP5 PUSH2 0xCE1 DUP4 PUSH2 0xCDB DUP4 PUSH2 0x153B JUMP JUMPDEST EQ PUSH2 0x1742 JUMP JUMPDEST PUSH2 0xCFD PUSH1 0x40 MLOAD PUSH1 0x20 DUP2 ADD SWAP1 PUSH2 0x40C DUP2 PUSH2 0x3FE DUP9 DUP12 DUP9 DUP13 DUP9 PUSH2 0x1749 JUMP JUMPDEST SWAP4 PUSH2 0xD1A PUSH1 0x40 MLOAD PUSH1 0x20 DUP2 ADD SWAP1 PUSH2 0x40C DUP2 PUSH2 0x3FE DUP10 DUP13 DUP10 DUP10 DUP9 PUSH2 0x1779 JUMP JUMPDEST SWAP7 PUSH1 0x1 SWAP4 PUSH2 0xD2A PUSH2 0x437 DUP6 PUSH2 0x1551 JUMP JUMPDEST SWAP9 PUSH2 0xD3F PUSH2 0x437 PUSH2 0xD3A DUP10 PUSH2 0x10F4 JUMP JUMPDEST PUSH2 0x1567 JUMP JUMPDEST SWAP9 PUSH2 0xD54 PUSH2 0x437 PUSH2 0xD4F DUP9 PUSH2 0x10E6 JUMP JUMPDEST PUSH2 0x1551 JUMP JUMPDEST SWAP10 PUSH2 0xD64 PUSH2 0x437 PUSH2 0xD3A DUP12 PUSH2 0x1103 JUMP JUMPDEST PUSH0 SWAP10 SWAP1 DUP11 JUMPDEST PUSH2 0xD72 DUP11 PUSH2 0x10E6 JUMP JUMPDEST DUP13 GT PUSH2 0xDE6 JUMPI PUSH0 MLOAD PUSH1 0x20 PUSH2 0x2148 PUSH0 CODECOPY PUSH0 MLOAD SWAP1 PUSH0 MSTORE DUP16 PUSH2 0xDD7 DUP16 SWAP2 DUP16 DUP16 DUP16 DUP16 SWAP8 PUSH2 0xDC9 DUP2 DUP7 PUSH2 0xDC3 DUP8 DUP7 DUP15 PUSH2 0xDDF SWAP16 PUSH1 0x80 PUSH2 0xDB6 PUSH2 0x4BE SWAP14 PUSH2 0xDCE SWAP13 PUSH2 0xDBE SWAP5 PUSH2 0x1199 JUMP JUMPDEST SWAP1 POP EQ PUSH2 0x1797 JUMP JUMPDEST PUSH2 0x1199 JUMP JUMPDEST POP PUSH2 0x20C4 JUMP JUMPDEST PUSH2 0x15E6 JUMP JUMPDEST SWAP3 DUP4 ADD PUSH1 0x20 ADD MSTORE JUMP JUMPDEST SWAP13 MULMOD SWAP12 PUSH2 0x10D8 JUMP JUMPDEST SWAP11 SWAP10 PUSH2 0xD69 JUMP JUMPDEST POP SWAP6 DUP9 DUP13 DUP16 SWAP9 DUP16 PUSH2 0xDF7 DUP13 SWAP12 PUSH2 0x1660 JUMP JUMPDEST SWAP1 PUSH0 SWAP12 DUP11 SWAP7 PUSH0 SWAP14 DUP15 JUMPDEST PUSH2 0xE14 PUSH2 0xE0F PUSH2 0xE0F DUP12 PUSH2 0x157F JUMP JUMPDEST PUSH2 0x10E6 JUMP JUMPDEST LT PUSH2 0xE9D JUMPI DUP11 DUP16 SWAP2 DUP15 SWAP3 DUP13 DUP16 PUSH2 0xE29 DUP14 PUSH2 0x10E6 JUMP JUMPDEST DUP4 EQ DUP1 ISZERO PUSH2 0xE94 JUMPI JUMPDEST PUSH2 0xE74 JUMPI DUP14 PUSH2 0xDCE DUP6 PUSH2 0x4AE PUSH2 0xE6C SWAP10 SWAP8 DUP10 PUSH2 0x4A8 PUSH2 0xE64 SWAP10 PUSH0 MLOAD PUSH1 0x20 PUSH2 0x2148 PUSH0 CODECOPY PUSH0 MLOAD SWAP1 PUSH0 MSTORE SWAP13 SWAP10 PUSH2 0x4BE SWAP10 PUSH2 0x1199 JUMP JUMPDEST SWAP11 MULMOD SWAP15 PUSH2 0x10D8 JUMP JUMPDEST SWAP14 SWAP8 DUP15 PUSH2 0xE00 JUMP JUMPDEST POP POP POP SWAP10 PUSH0 MLOAD PUSH1 0x20 PUSH2 0x2148 PUSH0 CODECOPY PUSH0 MLOAD SWAP1 PUSH0 MSTORE SWAP2 POP SWAP2 PUSH2 0xE6C SWAP3 MULMOD SWAP15 PUSH2 0x10D8 JUMP JUMPDEST POP DUP13 DUP4 EQ PUSH2 0xE32 JUMP JUMPDEST POP DUP9 SWAP4 SWAP2 DUP13 DUP9 SWAP3 DUP16 DUP15 PUSH2 0xEC0 DUP16 PUSH2 0xEB3 SWAP1 PUSH2 0x1406 JUMP JUMPDEST PUSH2 0xEBB PUSH2 0x17D0 JUMP JUMPDEST PUSH2 0x1FAB JUMP JUMPDEST SWAP10 PUSH0 SWAP10 DUP13 SWAP9 DUP12 JUMPDEST PUSH2 0xED3 PUSH2 0xE0F DUP12 PUSH2 0x10E6 JUMP JUMPDEST DUP14 GT PUSH2 0xF1A JUMPI PUSH0 MLOAD PUSH1 0x20 PUSH2 0x2148 PUSH0 CODECOPY PUSH0 MLOAD SWAP1 PUSH0 MSTORE DUP16 PUSH2 0xF0B DUP16 DUP16 SWAP1 DUP16 DUP16 DUP16 SWAP8 PUSH2 0xDC9 DUP2 DUP7 PUSH2 0xDC3 PUSH2 0x4BE SWAP8 PUSH2 0xDCE SWAP7 PUSH2 0xF13 SWAP15 PUSH2 0x1199 JUMP JUMPDEST SWAP13 MULMOD SWAP13 PUSH2 0x10D8 JUMP JUMPDEST SWAP12 SWAP10 PUSH2 0xEC7 JUMP JUMPDEST POP SWAP4 DUP9 DUP9 DUP15 PUSH2 0xF38 PUSH2 0xF2B DUP16 PUSH2 0x1660 JUMP JUMPDEST PUSH2 0xF33 PUSH2 0x1219 JUMP JUMPDEST PUSH2 0x142E JUMP JUMPDEST SWAP1 PUSH0 SWAP9 PUSH1 0x1 SWAP6 PUSH0 SWAP11 JUMPDEST PUSH2 0xF4D PUSH2 0xE0F DUP9 PUSH2 0x157F JUMP JUMPDEST DUP13 GT PUSH2 0xFD5 JUMPI DUP10 DUP15 SWAP2 DUP14 DUP12 DUP15 DUP12 DUP4 EQ DUP1 ISZERO PUSH2 0xFC4 JUMPI JUMPDEST PUSH2 0xFA4 JUMPI DUP13 PUSH2 0xDCE DUP6 PUSH2 0x4AE PUSH2 0xF9D SWAP10 SWAP8 DUP10 PUSH2 0x4A8 PUSH2 0xF95 SWAP10 PUSH0 MLOAD PUSH1 0x20 PUSH2 0x2148 PUSH0 CODECOPY PUSH0 MLOAD SWAP1 PUSH0 MSTORE SWAP13 SWAP10 PUSH2 0x4BE SWAP10 PUSH2 0x1199 JUMP JUMPDEST SWAP10 MULMOD SWAP12 PUSH2 0x10D8 JUMP JUMPDEST SWAP11 SWAP7 PUSH2 0xF41 JUMP JUMPDEST POP POP POP SWAP9 PUSH0 MLOAD PUSH1 0x20 PUSH2 0x2148 PUSH0 CODECOPY PUSH0 MLOAD SWAP1 PUSH0 MSTORE SWAP2 POP SWAP2 PUSH2 0xF9D SWAP3 MULMOD SWAP12 PUSH2 0x10D8 JUMP JUMPDEST POP PUSH2 0xFCE DUP13 PUSH2 0x15F4 JUMP JUMPDEST DUP4 EQ PUSH2 0xF63 JUMP JUMPDEST POP DUP5 SWAP7 POP DUP6 PUSH2 0x5C5 DUP2 PUSH2 0x1091 DUP16 PUSH2 0x5D8 SWAP15 PUSH2 0x1052 PUSH2 0x10BE SWAP16 DUP6 SWAP16 SWAP12 SWAP13 PUSH2 0x1099 SWAP14 PUSH2 0x109E SWAP16 SWAP13 PUSH2 0x1081 SWAP13 PUSH2 0x1048 DUP5 SWAP16 PUSH2 0x103D SWAP15 PUSH2 0x1087 SWAP11 PUSH2 0x1034 PUSH2 0x103D PUSH2 0x102A PUSH2 0x1043 SWAP6 PUSH2 0x1024 PUSH2 0x104D SWAP14 PUSH2 0x1406 JUMP JUMPDEST SWAP12 PUSH2 0x111F JUMP JUMPDEST SWAP3 SWAP1 PUSH2 0x5C5 PUSH2 0x17D0 JUMP JUMPDEST SWAP4 PUSH2 0x5C5 PUSH2 0x665 JUMP JUMPDEST SWAP3 PUSH2 0x1676 JUMP JUMPDEST PUSH2 0x207B JUMP JUMPDEST PUSH2 0x1676 JUMP JUMPDEST PUSH2 0x18D8 JUMP JUMPDEST PUSH2 0x105A PUSH2 0x1219 JUMP JUMPDEST SWAP10 PUSH2 0x1079 PUSH2 0x1071 PUSH2 0x106A DUP8 PUSH2 0x15F4 JUMP JUMPDEST DUP4 DUP6 PUSH2 0x1199 JUMP JUMPDEST SWAP9 SWAP1 SWAP12 PUSH2 0x1159 JUMP JUMPDEST SWAP10 SWAP1 SWAP6 PUSH2 0x10E6 JUMP JUMPDEST SWAP2 PUSH2 0x1199 JUMP JUMPDEST SWAP8 SWAP1 SWAP5 CALLDATASIZE SWAP2 PUSH2 0x29B JUMP JUMPDEST SWAP5 CALLDATASIZE SWAP2 PUSH2 0x29B JUMP JUMPDEST PUSH2 0x1916 JUMP JUMPDEST PUSH2 0x10B9 PUSH1 0x1 PUSH2 0x10B0 PUSH2 0x9CB DUP6 DUP6 PUSH2 0x111F JUMP JUMPDEST ISZERO ISZERO EQ ISZERO PUSH2 0x1954 JUMP JUMPDEST PUSH2 0x111F JUMP JUMPDEST SWAP1 PUSH2 0x19DF JUMP JUMPDEST PUSH4 0x4E487B71 PUSH1 0xE0 SHL PUSH0 MSTORE PUSH1 0x11 PUSH1 0x4 MSTORE PUSH1 0x24 PUSH0 REVERT JUMPDEST PUSH0 NOT DUP2 EQ PUSH2 0xC04 JUMPI PUSH1 0x1 ADD SWAP1 JUMP JUMPDEST PUSH0 NOT DUP2 ADD SWAP2 SWAP1 DUP3 GT PUSH2 0xC04 JUMPI JUMP JUMPDEST PUSH1 0x2 NOT DUP2 ADD SWAP2 SWAP1 DUP3 GT PUSH2 0xC04 JUMPI JUMP JUMPDEST PUSH1 0x1 NOT DUP2 ADD SWAP2 SWAP1 DUP3 GT PUSH2 0xC04 JUMPI JUMP JUMPDEST SWAP2 SWAP1 DUP3 SUB SWAP2 DUP3 GT PUSH2 0xC04 JUMPI JUMP JUMPDEST SWAP1 ISZERO PUSH2 0x610 JUMPI DUP1 CALLDATALOAD SWAP1 PUSH1 0x1E NOT DUP2 CALLDATASIZE SUB ADD DUP3 SLT ISZERO PUSH2 0x176 JUMPI ADD SWAP1 DUP2 CALLDATALOAD SWAP2 PUSH1 0x1 PUSH1 0x1 PUSH1 0x40 SHL SUB DUP4 GT PUSH2 0x176 JUMPI PUSH1 0x20 ADD DUP3 CALLDATASIZE SUB DUP2 SGT PUSH2 0x176 JUMPI SWAP2 SWAP1 JUMP JUMPDEST SWAP1 PUSH1 0x1 LT ISZERO PUSH2 0x610 JUMPI PUSH1 0x20 DUP2 ADD CALLDATALOAD SWAP1 PUSH1 0x1E NOT DUP2 CALLDATASIZE SUB ADD DUP3 SLT ISZERO PUSH2 0x176 JUMPI ADD SWAP1 DUP2 CALLDATALOAD SWAP2 PUSH1 0x1 PUSH1 0x1 PUSH1 0x40 SHL SUB DUP4 GT PUSH2 0x176 JUMPI PUSH1 0x20 ADD DUP3 CALLDATASIZE SUB DUP2 SGT PUSH2 0x176 JUMPI SWAP2 SWAP1 JUMP JUMPDEST SWAP2 SWAP1 DUP2 LT ISZERO PUSH2 0x610 JUMPI PUSH1 0x5 SHL DUP2 ADD CALLDATALOAD SWAP1 PUSH1 0x1E NOT DUP2 CALLDATASIZE SUB ADD DUP3 SLT ISZERO PUSH2 0x176 JUMPI ADD SWAP1 DUP2 CALLDATALOAD SWAP2 PUSH1 0x1 PUSH1 0x1 PUSH1 0x40 SHL SUB DUP4 GT PUSH2 0x176 JUMPI PUSH1 0x20 ADD DUP3 CALLDATASIZE SUB DUP2 SGT PUSH2 0x176 JUMPI SWAP2 SWAP1 JUMP JUMPDEST ISZERO PUSH2 0x11E1 JUMPI JUMP JUMPDEST PUSH1 0x40 MLOAD PUSH3 0x461BCD PUSH1 0xE5 SHL DUP2 MSTORE PUSH1 0x20 PUSH1 0x4 DUP3 ADD MSTORE PUSH1 0x10 PUSH1 0x24 DUP3 ADD MSTORE PUSH16 0x12D95E50DA1958DACC4811985A5B1959 PUSH1 0x82 SHL PUSH1 0x44 DUP3 ADD MSTORE PUSH1 0x64 SWAP1 REVERT JUMPDEST PUSH1 0x40 MLOAD SWAP1 PUSH2 0x1228 PUSH1 0xA0 DUP4 PUSH2 0x25A JUMP JUMPDEST PUSH1 0x80 DUP3 MSTORE PUSH32 0xFCF5E095D5D00AF600DB18CB2C04B3EDD03CC744A2888AE40CAA232946C5E7E1 PUSH1 0x80 DUP4 PUSH16 0x17F1D3A73197D7942695638C4FA9AC0F PUSH1 0x20 DUP3 ADD MSTORE PUSH32 0xC3688C4F9774B905A14E3A3F171BAC586C55E83FF97A1AEFFB3AF00ADB22C6BB PUSH1 0x40 DUP3 ADD MSTORE PUSH16 0x8B3F481E3AAA0F1A09E30ED741D8AE4 PUSH1 0x60 DUP3 ADD MSTORE ADD MSTORE JUMP JUMPDEST ISZERO PUSH2 0x12AD JUMPI JUMP JUMPDEST PUSH1 0x40 MLOAD PUSH3 0x461BCD PUSH1 0xE5 SHL DUP2 MSTORE PUSH1 0x20 PUSH1 0x4 DUP3 ADD MSTORE PUSH1 0x10 PUSH1 0x24 DUP3 ADD MSTORE PUSH16 0x12D95E50DA1958DACC8811985A5B1959 PUSH1 0x82 SHL PUSH1 0x44 DUP3 ADD MSTORE PUSH1 0x64 SWAP1 REVERT JUMPDEST SWAP2 SWAP5 SWAP4 SWAP5 SWAP3 SWAP1 SWAP3 PUSH0 JUMPDEST PUSH2 0x12F7 DUP4 PUSH2 0x1103 JUMP JUMPDEST DUP2 GT PUSH2 0x1379 JUMPI PUSH2 0x1374 SWAP1 PUSH2 0x130B DUP9 DUP6 PUSH2 0x1112 JUMP JUMPDEST DUP2 EQ PUSH2 0xBC0 JUMPI PUSH2 0xBC0 PUSH2 0x136F PUSH2 0x135B PUSH2 0x1332 PUSH2 0x132D PUSH2 0xE0F PUSH2 0xE0F DUP8 DUP12 PUSH2 0x1112 JUMP JUMPDEST PUSH2 0x615 JUMP JUMPDEST POP PUSH2 0x133E DUP6 DUP10 DUP10 PUSH2 0x1199 JUMP JUMPDEST SWAP3 SWAP1 PUSH2 0x5C5 PUSH2 0x1354 PUSH2 0x134F DUP13 PUSH2 0x10E6 JUMP JUMPDEST PUSH2 0x5F8 JUMP JUMPDEST POP SWAP4 PUSH2 0x719 JUMP JUMPDEST PUSH2 0x103D PUSH2 0x1369 CALLDATASIZE DUP14 DUP14 PUSH2 0x29B JUMP JUMPDEST SWAP3 PUSH2 0x719 JUMP JUMPDEST PUSH2 0x11DA JUMP JUMPDEST PUSH2 0x12EE JUMP JUMPDEST POP SWAP2 SWAP3 SWAP4 SWAP5 PUSH1 0x1 EQ PUSH2 0x13CE JUMPI PUSH2 0x13C9 SWAP4 PUSH2 0x103D PUSH2 0x1369 PUSH2 0x13C4 SWAP6 PUSH2 0x5C5 PUSH2 0x134F SWAP6 PUSH2 0x13BB PUSH2 0x13B3 PUSH2 0x13A8 PUSH2 0x1219 JUMP JUMPDEST SWAP10 DUP4 PUSH2 0x1081 DUP2 PUSH2 0x10E6 JUMP JUMPDEST SWAP9 SWAP1 SWAP3 PUSH2 0x10E6 JUMP JUMPDEST POP SWAP7 CALLDATASIZE SWAP2 PUSH2 0x29B JUMP JUMPDEST PUSH2 0x12A6 JUMP JUMPDEST PUSH1 0x1 SWAP1 JUMP JUMPDEST POP POP POP POP PUSH1 0x1 SWAP1 JUMP JUMPDEST RETURNDATASIZE ISZERO PUSH2 0x1401 JUMPI RETURNDATASIZE SWAP1 PUSH2 0x13E8 DUP3 PUSH2 0x280 JUMP JUMPDEST SWAP2 PUSH2 0x13F6 PUSH1 0x40 MLOAD SWAP4 DUP5 PUSH2 0x25A JUMP JUMPDEST DUP3 MSTORE RETURNDATASIZE PUSH0 PUSH1 0x20 DUP5 ADD RETURNDATACOPY JUMP JUMPDEST PUSH1 0x60 SWAP1 JUMP JUMPDEST PUSH0 DUP1 SWAP2 PUSH1 0x20 DUP2 MLOAD SWAP2 ADD PUSH1 0xE GAS STATICCALL POP PUSH2 0x2EC PUSH2 0x13D7 JUMP JUMPDEST DUP1 MLOAD SWAP2 SWAP1 DUP3 SWAP1 PUSH1 0x20 ADD DUP3 MCOPY ADD PUSH0 DUP2 MSTORE SWAP1 JUMP JUMPDEST PUSH0 SWAP2 SWAP1 PUSH2 0x3FE PUSH2 0x144D DUP5 SWAP4 PUSH1 0x40 MLOAD SWAP3 DUP4 SWAP2 PUSH2 0x8C4 PUSH1 0x20 DUP5 ADD DUP1 SWAP8 PUSH2 0x141C JUMP JUMPDEST MLOAD SWAP1 PUSH1 0xB GAS STATICCALL POP PUSH2 0x2EC PUSH2 0x13D7 JUMP JUMPDEST SWAP1 DUP1 PUSH1 0x20 SWAP4 SWAP3 DUP2 DUP5 MSTORE DUP5 DUP5 ADD CALLDATACOPY PUSH0 DUP3 DUP3 ADD DUP5 ADD MSTORE PUSH1 0x1F ADD PUSH1 0x1F NOT AND ADD ADD SWAP1 JUMP JUMPDEST SWAP1 PUSH1 0x20 DUP4 DUP3 DUP2 MSTORE ADD SWAP1 PUSH1 0x20 DUP2 PUSH1 0x5 SHL DUP6 ADD ADD SWAP4 DUP4 PUSH0 SWAP2 JUMPDEST DUP4 DUP4 LT PUSH2 0x14A3 JUMPI POP POP POP POP POP POP SWAP1 JUMP JUMPDEST SWAP1 SWAP2 SWAP3 SWAP4 SWAP5 SWAP6 PUSH1 0x1F NOT DUP3 DUP3 SUB ADD DUP7 MSTORE DUP7 CALLDATALOAD PUSH1 0x1E NOT DUP5 CALLDATASIZE SUB ADD DUP2 SLT ISZERO PUSH2 0x176 JUMPI DUP4 ADD SWAP1 PUSH1 0x20 DUP3 CALLDATALOAD SWAP3 ADD SWAP2 PUSH1 0x1 PUSH1 0x1 PUSH1 0x40 SHL SUB DUP2 GT PUSH2 0x176 JUMPI DUP1 CALLDATASIZE SUB DUP4 SGT PUSH2 0x176 JUMPI PUSH2 0x14F3 PUSH1 0x20 SWAP3 DUP4 SWAP3 PUSH1 0x1 SWAP6 PUSH2 0x145C JUMP JUMPDEST SWAP9 ADD SWAP7 ADD SWAP5 SWAP4 ADD SWAP2 SWAP1 PUSH2 0x1493 JUMP JUMPDEST SWAP3 SWAP1 PUSH2 0x151A SWAP1 PUSH2 0x2EC SWAP6 SWAP4 PUSH1 0x40 DUP7 MSTORE PUSH1 0x40 DUP7 ADD SWAP2 PUSH2 0x145C JUMP JUMPDEST SWAP3 PUSH1 0x20 DUP2 DUP6 SUB SWAP2 ADD MSTORE PUSH2 0x147C JUMP JUMPDEST SWAP1 DUP2 PUSH2 0x120 MUL SWAP2 PUSH2 0x120 DUP4 DIV SUB PUSH2 0xC04 JUMPI JUMP JUMPDEST SWAP1 DUP2 PUSH1 0x1 SHL SWAP2 DUP1 DUP4 DIV PUSH1 0x2 EQ SWAP1 ISZERO OR ISZERO PUSH2 0xC04 JUMPI JUMP JUMPDEST SWAP1 PUSH1 0xA0 DUP3 MUL SWAP2 DUP1 DUP4 DIV PUSH1 0xA0 EQ SWAP1 ISZERO OR ISZERO PUSH2 0xC04 JUMPI JUMP JUMPDEST SWAP1 PUSH2 0x120 DUP3 MUL SWAP2 DUP1 DUP4 DIV PUSH2 0x120 EQ SWAP1 ISZERO OR ISZERO PUSH2 0xC04 JUMPI JUMP JUMPDEST PUSH1 0x1 DUP2 SWAP1 SHL SWAP2 SWAP1 PUSH1 0x1 PUSH1 0x1 PUSH1 0xFF SHL SUB DUP2 AND SUB PUSH2 0xC04 JUMPI JUMP JUMPDEST SWAP1 PUSH2 0x15A1 DUP3 PUSH2 0x280 JUMP JUMPDEST PUSH2 0x15AE PUSH1 0x40 MLOAD SWAP2 DUP3 PUSH2 0x25A JUMP JUMPDEST DUP3 DUP2 MSTORE DUP1 SWAP3 PUSH2 0x15BF PUSH1 0x1F NOT SWAP2 PUSH2 0x280 JUMP JUMPDEST ADD SWAP1 PUSH1 0x20 CALLDATASIZE SWAP2 ADD CALLDATACOPY JUMP JUMPDEST SWAP1 PUSH2 0x100 DUP3 ADD DUP1 SWAP3 GT PUSH2 0xC04 JUMPI JUMP JUMPDEST SWAP1 PUSH1 0x20 DUP3 ADD DUP1 SWAP3 GT PUSH2 0xC04 JUMPI JUMP JUMPDEST SWAP1 PUSH1 0x80 DUP3 ADD DUP1 SWAP3 GT PUSH2 0xC04 JUMPI JUMP JUMPDEST SWAP1 PUSH1 0x1 DUP3 ADD DUP1 SWAP3 GT PUSH2 0xC04 JUMPI JUMP JUMPDEST ISZERO PUSH2 0x1609 JUMPI JUMP JUMPDEST PUSH1 0x40 MLOAD PUSH3 0x461BCD PUSH1 0xE5 SHL DUP2 MSTORE PUSH1 0x20 PUSH1 0x4 DUP3 ADD MSTORE PUSH1 0xD PUSH1 0x24 DUP3 ADD MSTORE PUSH13 0x10DA1958DAD2D95E4811985A5B PUSH1 0x9A SHL PUSH1 0x44 DUP3 ADD MSTORE PUSH1 0x64 SWAP1 REVERT JUMPDEST PUSH1 0x20 DUP2 MLOAD SWAP2 ADD MLOAD SWAP1 PUSH1 0x20 DUP2 LT PUSH2 0x1652 JUMPI POP SWAP1 JUMP JUMPDEST PUSH0 NOT SWAP1 PUSH1 0x20 SUB PUSH1 0x3 SHL SHL AND SWAP1 JUMP JUMPDEST PUSH0 DUP1 SWAP2 PUSH1 0x20 DUP2 MLOAD SWAP2 ADD PUSH1 0xC GAS STATICCALL POP PUSH2 0x2EC PUSH2 0x13D7 JUMP JUMPDEST SWAP1 PUSH2 0x16F1 PUSH2 0x8C4 SWAP2 PUSH2 0x3FE PUSH0 SWAP7 DUP8 DUP1 DUP1 SWAP9 PUSH1 0x40 MLOAD PUSH2 0x16CB PUSH1 0x20 DUP3 PUSH2 0x169D DUP3 DUP3 ADD DUP1 SWAP7 PUSH2 0x141C JUMP JUMPDEST PUSH32 0x73EDA753299D7D483339D80809A1D80553BDA402FFFE5BFEFFFFFFFF00000000 DUP2 MSTORE SUB DUP1 DUP5 MSTORE ADD DUP3 PUSH2 0x25A JUMP JUMPDEST MLOAD SWAP1 PUSH1 0xC GAS STATICCALL POP PUSH2 0x8C4 PUSH2 0x16DD PUSH2 0x13D7 JUMP JUMPDEST PUSH1 0x40 MLOAD SWAP7 DUP8 SWAP6 PUSH2 0x8C4 PUSH1 0x20 DUP9 ADD DUP1 SWAP12 PUSH2 0x141C JUMP JUMPDEST MLOAD SWAP1 PUSH1 0xF GAS STATICCALL POP PUSH1 0x1 PUSH2 0x1705 PUSH2 0x8E0 PUSH2 0x13D7 JUMP JUMPDEST EQ SWAP1 JUMP JUMPDEST PUSH0 SWAP2 SWAP1 DUP3 SWAP2 PUSH2 0x1733 PUSH1 0x20 PUSH1 0x40 MLOAD DUP1 SWAP4 PUSH2 0x1725 DUP4 DUP4 ADD DUP1 SWAP8 PUSH2 0x141C JUMP JUMPDEST SWAP1 DUP2 MSTORE SUB DUP1 DUP5 MSTORE ADD DUP3 PUSH2 0x25A JUMP JUMPDEST MLOAD SWAP1 PUSH1 0xC GAS STATICCALL POP PUSH2 0x2EC PUSH2 0x13D7 JUMP JUMPDEST ISZERO PUSH2 0x176 JUMPI JUMP JUMPDEST SWAP5 SWAP4 SWAP3 PUSH0 SWAP4 PUSH2 0x1766 PUSH2 0x1774 SWAP4 PUSH1 0x40 SWAP6 PUSH1 0x60 DUP11 MSTORE PUSH1 0x60 DUP11 ADD SWAP2 PUSH2 0x147C JUMP JUMPDEST SWAP2 DUP8 DUP4 SUB PUSH1 0x20 DUP10 ADD MSTORE PUSH2 0x147C JUMP JUMPDEST SWAP4 ADD MSTORE JUMP JUMPDEST SWAP5 SWAP4 SWAP3 PUSH1 0x1 SWAP4 PUSH2 0x1766 PUSH2 0x1774 SWAP4 PUSH1 0x40 SWAP6 PUSH1 0x60 DUP11 MSTORE PUSH1 0x60 DUP11 ADD SWAP2 PUSH2 0x147C JUMP JUMPDEST ISZERO PUSH2 0x179E JUMPI JUMP JUMPDEST PUSH1 0x40 MLOAD PUSH3 0x461BCD PUSH1 0xE5 SHL DUP2 MSTORE PUSH1 0x20 PUSH1 0x4 DUP3 ADD MSTORE PUSH1 0xA PUSH1 0x24 DUP3 ADD MSTORE PUSH10 0x3130B2102398903632B7 PUSH1 0xB1 SHL PUSH1 0x44 DUP3 ADD MSTORE PUSH1 0x64 SWAP1 REVERT JUMPDEST PUSH1 0x40 MLOAD SWAP1 PUSH2 0x17E0 PUSH2 0x120 DUP4 PUSH2 0x25A JUMP JUMPDEST PUSH2 0x100 DUP3 MSTORE PUSH32 0xCB3E287E85A763AF267492AB572E99AB3F370D275CEC1DA1AAA9075FF05F79BE PUSH2 0x100 DUP4 PUSH16 0x24AA2B2F08F0A91260805272DC51051 PUSH1 0x20 DUP3 ADD MSTORE PUSH32 0xC6E47AD4FA403B02B4510B647AE3D1770BAC0326A805BBEFD48056C8C121BDB8 PUSH1 0x40 DUP3 ADD MSTORE PUSH16 0x13E02B6052719F607DACD3A088274F65 PUSH1 0x60 DUP3 ADD MSTORE PUSH32 0x596BD0D09920B61AB5DA61BBDC7F5049334CF11213945D57E5AC7D055D042B7E PUSH1 0x80 DUP3 ADD MSTORE PUSH16 0xCE5D527727D6E118CC9CDC6DA2E351A PUSH1 0xA0 DUP3 ADD MSTORE PUSH32 0xADFD9BAA8CBDD3A76D429A695160D12C923AC9CC3BACA289E193548608B82801 PUSH1 0xC0 DUP3 ADD MSTORE PUSH16 0x606C4A02EA734CC32ACD2B02BC28B99 PUSH1 0xE0 DUP3 ADD MSTORE ADD MSTORE JUMP JUMPDEST ISZERO PUSH2 0x18DF JUMPI JUMP JUMPDEST PUSH1 0x40 MLOAD PUSH3 0x461BCD PUSH1 0xE5 SHL DUP2 MSTORE PUSH1 0x20 PUSH1 0x4 DUP3 ADD MSTORE PUSH1 0xF PUSH1 0x24 DUP3 ADD MSTORE PUSH15 0x10DA1958DACC8B4C4811985A5B1959 PUSH1 0x8A SHL PUSH1 0x44 DUP3 ADD MSTORE PUSH1 0x64 SWAP1 REVERT JUMPDEST ISZERO PUSH2 0x191D JUMPI JUMP JUMPDEST PUSH1 0x40 MLOAD PUSH3 0x461BCD PUSH1 0xE5 SHL DUP2 MSTORE PUSH1 0x20 PUSH1 0x4 DUP3 ADD MSTORE PUSH1 0xF PUSH1 0x24 DUP3 ADD MSTORE PUSH15 0x10DA1958DACC8B4C8811985A5B1959 PUSH1 0x8A SHL PUSH1 0x44 DUP3 ADD MSTORE PUSH1 0x64 SWAP1 REVERT JUMPDEST ISZERO PUSH2 0x195B JUMPI JUMP JUMPDEST PUSH1 0x40 MLOAD PUSH3 0x461BCD PUSH1 0xE5 SHL DUP2 MSTORE PUSH1 0x20 PUSH1 0x4 DUP3 ADD MSTORE PUSH1 0xD PUSH1 0x24 DUP3 ADD MSTORE PUSH13 0x10DA1958DACCC811985A5B1959 PUSH1 0x9A SHL PUSH1 0x44 DUP3 ADD MSTORE PUSH1 0x64 SWAP1 REVERT JUMPDEST PUSH1 0x1F DUP3 GT PUSH2 0x199D JUMPI POP POP POP JUMP JUMPDEST PUSH0 MSTORE PUSH1 0x20 PUSH0 KECCAK256 SWAP1 PUSH1 0x20 PUSH1 0x1F DUP5 ADD PUSH1 0x5 SHR DUP4 ADD SWAP4 LT PUSH2 0x19D5 JUMPI JUMPDEST PUSH1 0x1F ADD PUSH1 0x5 SHR ADD SWAP1 JUMPDEST DUP2 DUP2 LT PUSH2 0x19CA JUMPI POP POP JUMP JUMPDEST PUSH0 DUP2 SSTORE PUSH1 0x1 ADD PUSH2 0x19BF JUMP JUMPDEST SWAP1 SWAP2 POP DUP2 SWAP1 PUSH2 0x19B6 JUMP JUMPDEST SWAP2 SWAP1 PUSH1 0x1 PUSH1 0x1 PUSH1 0x40 SHL SUB DUP2 GT PUSH2 0x27B JUMPI PUSH2 0x1A03 DUP2 PUSH2 0x19FD PUSH0 SLOAD PUSH2 0x62D JUMP JUMPDEST PUSH0 PUSH2 0x1990 JUMP JUMPDEST PUSH0 PUSH1 0x1F DUP3 GT PUSH1 0x1 EQ PUSH2 0x1A40 JUMPI DUP2 SWAP1 PUSH2 0x1A31 SWAP4 SWAP5 PUSH0 SWAP3 PUSH2 0x1A35 JUMPI JUMPDEST POP POP DUP2 PUSH1 0x1 SHL SWAP2 PUSH0 NOT SWAP1 PUSH1 0x3 SHL SHR NOT AND OR SWAP1 JUMP JUMPDEST PUSH0 SSTORE JUMP JUMPDEST ADD CALLDATALOAD SWAP1 POP PUSH0 DUP1 PUSH2 0x1A1D JUMP JUMPDEST PUSH0 DUP1 MSTORE PUSH1 0x1F NOT DUP3 AND SWAP4 PUSH32 0x290DECD9548B62A8D60345A988386FC84BA6BC95484008F6362F93160EF3E563 SWAP2 PUSH0 JUMPDEST DUP7 DUP2 LT PUSH2 0x1AA3 JUMPI POP DUP4 PUSH1 0x1 SWAP6 SWAP7 LT PUSH2 0x1A8A JUMPI JUMPDEST POP POP POP DUP2 SHL ADD PUSH0 SSTORE JUMP JUMPDEST ADD CALLDATALOAD PUSH0 NOT PUSH1 0x3 DUP5 SWAP1 SHL PUSH1 0xF8 AND SHR NOT AND SWAP1 SSTORE PUSH0 DUP1 DUP1 PUSH2 0x1A80 JUMP JUMPDEST SWAP1 SWAP3 PUSH1 0x20 PUSH1 0x1 DUP2 SWAP3 DUP7 DUP7 ADD CALLDATALOAD DUP2 SSTORE ADD SWAP5 ADD SWAP2 ADD PUSH2 0x1A6D JUMP JUMPDEST SWAP1 SWAP3 SWAP2 PUSH1 0x1 PUSH1 0x1 PUSH1 0x40 SHL SUB DUP2 GT PUSH2 0x27B JUMPI PUSH2 0x1AE0 DUP2 PUSH2 0x1ADA DUP5 SLOAD PUSH2 0x62D JUMP JUMPDEST DUP5 PUSH2 0x1990 JUMP JUMPDEST PUSH0 PUSH1 0x1F DUP3 GT PUSH1 0x1 EQ PUSH2 0x1B12 JUMPI DUP2 SWAP1 PUSH2 0x1B0E SWAP4 SWAP5 SWAP6 PUSH0 SWAP3 PUSH2 0x1A35 JUMPI POP POP DUP2 PUSH1 0x1 SHL SWAP2 PUSH0 NOT SWAP1 PUSH1 0x3 SHL SHR NOT AND OR SWAP1 JUMP JUMPDEST SWAP1 SSTORE JUMP JUMPDEST PUSH1 0x1F NOT DUP3 AND SWAP5 PUSH2 0x1B25 DUP5 PUSH0 MSTORE PUSH1 0x20 PUSH0 KECCAK256 SWAP1 JUMP JUMPDEST SWAP2 PUSH0 JUMPDEST DUP8 DUP2 LT PUSH2 0x1B5F JUMPI POP DUP4 PUSH1 0x1 SWAP6 SWAP7 SWAP8 LT PUSH2 0x1B46 JUMPI JUMPDEST POP POP POP DUP2 SHL ADD SWAP1 SSTORE JUMP JUMPDEST ADD CALLDATALOAD PUSH0 NOT PUSH1 0x3 DUP5 SWAP1 SHL PUSH1 0xF8 AND SHR NOT AND SWAP1 SSTORE PUSH0 DUP1 DUP1 PUSH2 0x1B3C JUMP JUMPDEST SWAP1 SWAP3 PUSH1 0x20 PUSH1 0x1 DUP2 SWAP3 DUP7 DUP7 ADD CALLDATALOAD DUP2 SSTORE ADD SWAP5 ADD SWAP2 ADD PUSH2 0x1B28 JUMP JUMPDEST SWAP3 SWAP1 PUSH2 0x151A SWAP1 PUSH2 0x2EC SWAP6 SWAP4 PUSH1 0x40 DUP7 MSTORE PUSH1 0x40 DUP7 ADD SWAP2 PUSH2 0x147C JUMP JUMPDEST SWAP1 DUP2 MLOAD DUP2 LT ISZERO PUSH2 0x610 JUMPI ADD PUSH1 0x20 ADD SWAP1 JUMP JUMPDEST SWAP1 DUP3 LT ISZERO PUSH2 0x610 JUMPI ADD SWAP1 JUMP JUMPDEST SWAP6 SWAP2 SWAP6 SWAP5 SWAP3 SWAP5 PUSH2 0x1BC0 DUP7 PUSH2 0xCDB DUP5 PUSH2 0x153B JUMP JUMPDEST PUSH2 0x1BDC PUSH1 0x40 MLOAD PUSH1 0x20 DUP2 ADD SWAP1 PUSH2 0x40C DUP2 PUSH2 0x3FE DUP12 DUP14 DUP10 DUP10 DUP9 PUSH2 0x1749 JUMP JUMPDEST SWAP5 PUSH2 0x1BF9 DUP9 PUSH1 0x40 MLOAD PUSH2 0x40C DUP2 PUSH2 0x3FE DUP13 PUSH1 0x20 DUP4 ADD SWAP6 DUP11 DUP11 DUP9 PUSH2 0x1779 JUMP JUMPDEST SWAP1 PUSH1 0x1 SWAP5 PUSH2 0x1C09 PUSH2 0x437 DUP7 PUSH2 0x1551 JUMP JUMPDEST SWAP10 PUSH2 0x1C19 PUSH2 0x437 PUSH2 0xD3A DUP13 PUSH2 0x10F4 JUMP JUMPDEST PUSH2 0x1C28 PUSH2 0x437 PUSH2 0xD4F DUP10 PUSH2 0x10E6 JUMP JUMPDEST SWAP11 PUSH2 0x1C38 PUSH2 0x437 PUSH2 0xD3A DUP4 PUSH2 0x1103 JUMP JUMPDEST SWAP5 PUSH0 SWAP11 PUSH0 SWAP12 JUMPDEST PUSH2 0x1C47 DUP12 PUSH2 0x10E6 JUMP JUMPDEST DUP14 GT PUSH2 0x1C9B JUMPI DUP16 DUP15 PUSH2 0x1C8C DUP16 SWAP3 DUP16 DUP16 SWAP1 DUP16 DUP8 PUSH2 0xDC9 PUSH2 0x1C94 SWAP10 DUP7 PUSH2 0xDC3 DUP12 DUP9 DUP8 PUSH2 0xDBE PUSH0 MLOAD PUSH1 0x20 PUSH2 0x2148 PUSH0 CODECOPY PUSH0 MLOAD SWAP1 PUSH0 MSTORE SWAP16 PUSH2 0xDB6 PUSH1 0x80 SWAP2 PUSH2 0x4BE SWAP15 PUSH2 0xDCE SWAP14 PUSH2 0x1199 JUMP JUMPDEST SWAP14 MULMOD SWAP13 PUSH2 0x10D8 JUMP JUMPDEST SWAP12 SWAP11 PUSH2 0x1C3E JUMP JUMPDEST POP SWAP4 SWAP11 POP SWAP4 SWAP7 SWAP11 SWAP5 SWAP12 SWAP2 SWAP9 POP SWAP7 SWAP5 SWAP12 PUSH2 0x1CB3 SWAP1 PUSH2 0x1660 JUMP JUMPDEST PUSH0 SWAP11 DUP14 SWAP8 DUP13 JUMPDEST DUP14 PUSH2 0x1CC9 PUSH2 0xE0F PUSH2 0xE0F DUP13 PUSH2 0x157F JUMP JUMPDEST LT PUSH2 0x1D52 JUMPI DUP16 SWAP1 DUP13 SWAP1 DUP16 DUP16 DUP15 SWAP1 PUSH2 0x1CDF DUP15 PUSH2 0x10E6 JUMP JUMPDEST DUP4 EQ DUP1 ISZERO PUSH2 0x1D49 JUMPI JUMPDEST PUSH2 0x1D29 JUMPI DUP15 PUSH2 0xDCE DUP6 PUSH2 0x4AE PUSH2 0x1D22 SWAP10 SWAP8 DUP10 PUSH2 0x4A8 PUSH2 0x1D1A SWAP10 PUSH0 MLOAD PUSH1 0x20 PUSH2 0x2148 PUSH0 CODECOPY PUSH0 MLOAD SWAP1 PUSH0 MSTORE SWAP13 SWAP10 PUSH2 0x4BE SWAP10 PUSH2 0x1199 JUMP JUMPDEST SWAP12 MULMOD SWAP14 PUSH2 0x10D8 JUMP JUMPDEST SWAP13 SWAP9 PUSH2 0x1CB9 JUMP JUMPDEST POP POP POP SWAP11 PUSH0 MLOAD PUSH1 0x20 PUSH2 0x2148 PUSH0 CODECOPY PUSH0 MLOAD SWAP1 PUSH0 MSTORE SWAP2 POP SWAP2 PUSH2 0x1D22 SWAP3 MULMOD SWAP14 PUSH2 0x10D8 JUMP JUMPDEST POP DUP14 DUP4 EQ PUSH2 0x1CE8 JUMP JUMPDEST POP SWAP7 SWAP9 SWAP6 SWAP14 SWAP5 SWAP13 SWAP3 SWAP11 SWAP4 SWAP10 PUSH2 0x1D6E SWAP3 SWAP13 POP PUSH2 0xEB3 SWAP2 SWAP9 POP PUSH2 0x1406 JUMP JUMPDEST SWAP4 PUSH0 SWAP11 DUP14 SWAP10 PUSH0 SWAP13 JUMPDEST DUP14 PUSH2 0x1D83 PUSH2 0xE0F DUP14 PUSH2 0x10E6 JUMP JUMPDEST LT PUSH2 0x1DCA JUMPI DUP16 PUSH0 MLOAD PUSH1 0x20 PUSH2 0x2148 PUSH0 CODECOPY PUSH0 MLOAD SWAP1 PUSH0 MSTORE SWAP1 DUP16 DUP16 DUP16 DUP16 SWAP1 DUP16 DUP8 PUSH2 0xDC9 PUSH2 0x1DC3 SWAP10 DUP7 PUSH2 0xDC3 PUSH2 0x1DBB SWAP10 PUSH2 0x4BE SWAP9 PUSH2 0xDCE SWAP8 PUSH2 0x1199 JUMP JUMPDEST SWAP14 MULMOD SWAP14 PUSH2 0x10D8 JUMP JUMPDEST SWAP13 SWAP11 PUSH2 0x1D76 JUMP JUMPDEST POP SWAP5 SWAP12 POP SWAP10 PUSH2 0xF2B SWAP2 SWAP8 SWAP7 SWAP14 POP PUSH2 0x1DE6 SWAP3 SWAP9 SWAP6 SWAP13 SWAP4 SWAP10 POP PUSH2 0x1660 JUMP JUMPDEST PUSH0 SWAP9 PUSH1 0x1 SWAP6 SWAP2 DUP11 JUMPDEST PUSH2 0x1DFA PUSH2 0xE0F DUP9 PUSH2 0x157F JUMP JUMPDEST DUP13 GT PUSH2 0x1E7A JUMPI DUP10 DUP14 SWAP2 DUP14 DUP12 DUP15 DUP12 DUP4 EQ DUP1 ISZERO PUSH2 0x1E69 JUMPI JUMPDEST PUSH2 0x1E49 JUMPI DUP13 PUSH2 0xDCE DUP6 PUSH2 0x4AE PUSH2 0x1E42 SWAP10 SWAP8 DUP10 PUSH2 0x4A8 PUSH2 0xF95 SWAP10 PUSH0 MLOAD PUSH1 0x20 PUSH2 0x2148 PUSH0 CODECOPY PUSH0 MLOAD SWAP1 PUSH0 MSTORE SWAP13 SWAP10 PUSH2 0x4BE SWAP10 PUSH2 0x1199 JUMP JUMPDEST SWAP11 SWAP7 PUSH2 0x1DEE JUMP JUMPDEST POP POP POP SWAP9 PUSH0 MLOAD PUSH1 0x20 PUSH2 0x2148 PUSH0 CODECOPY PUSH0 MLOAD SWAP1 PUSH0 MSTORE SWAP2 POP SWAP2 PUSH2 0x1E42 SWAP3 MULMOD SWAP12 PUSH2 0x10D8 JUMP JUMPDEST POP PUSH2 0x1E73 DUP13 PUSH2 0x15F4 JUMP JUMPDEST DUP4 EQ PUSH2 0x1E10 JUMP JUMPDEST POP PUSH2 0x1F24 SWAP10 SWAP4 SWAP12 POP PUSH2 0x1F2F SWAP11 POP PUSH2 0x1F18 SWAP7 POP SWAP7 PUSH2 0x1EAE PUSH2 0x104D PUSH2 0x40C SWAP4 PUSH2 0x1F12 SWAP8 SWAP16 SWAP11 PUSH2 0x1F1F SWAP12 PUSH2 0x103D PUSH2 0x3FE SWAP9 SWAP15 PUSH2 0x1406 JUMP JUMPDEST PUSH2 0x1EE0 PUSH2 0x1099 DUP6 DUP12 PUSH2 0x1081 PUSH2 0x103D DUP12 PUSH2 0x5C5 DUP2 PUSH2 0x1091 PUSH2 0x1087 PUSH2 0x1ECF PUSH2 0x1219 JUMP JUMPDEST SWAP9 DUP13 PUSH2 0x1079 PUSH2 0x1071 PUSH2 0x106A DUP8 PUSH2 0x15F4 JUMP JUMPDEST PUSH2 0x1EF2 PUSH1 0x1 PUSH2 0x10B0 PUSH2 0x9CB DUP10 DUP14 PUSH2 0x111F JUMP JUMPDEST PUSH2 0x1EFF PUSH2 0x10BE DUP8 DUP12 PUSH2 0x111F JUMP JUMPDEST PUSH1 0x40 MLOAD SWAP3 DUP4 SWAP2 PUSH1 0x20 DUP4 ADD SWAP6 DUP9 DUP13 DUP9 PUSH2 0x1B77 JUMP JUMPDEST SWAP4 PUSH2 0x111F JUMP JUMPDEST CALLDATASIZE SWAP2 PUSH2 0x29B JUMP JUMPDEST PUSH2 0x1709 JUMP JUMPDEST PUSH2 0x3CA CALLDATASIZE DUP6 DUP6 PUSH2 0x29B JUMP JUMPDEST SWAP2 PUSH0 JUMPDEST PUSH1 0x80 DUP2 LT PUSH2 0x1F43 JUMPI POP POP POP POP PUSH1 0x1 SWAP1 JUMP JUMPDEST PUSH2 0x1F5E PUSH2 0x1F50 DUP3 DUP7 PUSH2 0x1B90 JUMP JUMPDEST MLOAD PUSH1 0x1 PUSH1 0x1 PUSH1 0xF8 SHL SUB NOT AND SWAP1 JUMP JUMPDEST PUSH2 0x1F8A PUSH2 0x1F7D PUSH2 0x1F6F DUP5 DUP7 DUP9 PUSH2 0x1BA1 JUMP JUMPDEST CALLDATALOAD PUSH1 0x1 PUSH1 0x1 PUSH1 0xF8 SHL SUB NOT AND SWAP1 JUMP JUMPDEST PUSH1 0x1 PUSH1 0x1 PUSH1 0xF8 SHL SUB NOT AND SWAP1 JUMP JUMPDEST PUSH1 0x1 PUSH1 0x1 PUSH1 0xF8 SHL SUB NOT SWAP1 SWAP2 AND SUB PUSH2 0x1FA3 JUMPI PUSH1 0x1 ADD PUSH2 0x1F32 JUMP JUMPDEST POP POP POP POP PUSH0 SWAP1 JUMP JUMPDEST PUSH0 SWAP2 SWAP1 PUSH2 0x3FE PUSH2 0x1FCA DUP5 SWAP4 PUSH1 0x40 MLOAD SWAP3 DUP4 SWAP2 PUSH2 0x8C4 PUSH1 0x20 DUP5 ADD DUP1 SWAP8 PUSH2 0x141C JUMP JUMPDEST MLOAD SWAP1 PUSH1 0xD GAS STATICCALL POP PUSH2 0x2EC PUSH2 0x13D7 JUMP JUMPDEST SWAP1 PUSH1 0x2 SLOAD SWAP2 PUSH1 0x1 PUSH1 0x40 SHL DUP4 LT ISZERO PUSH2 0x27B JUMPI PUSH1 0x1 DUP4 ADD PUSH1 0x2 SSTORE PUSH1 0x2 SLOAD DUP4 LT ISZERO PUSH2 0x610 JUMPI PUSH1 0x2 PUSH0 MSTORE PUSH2 0x69B SWAP3 PUSH32 0x405787FA12A823E0F2B7631CC41B3BA8828B3321CA811111FA75CD3AA3BB5ACE ADD PUSH2 0x1ABB JUMP JUMPDEST SWAP1 PUSH1 0x3 SLOAD SWAP2 PUSH1 0x1 PUSH1 0x40 SHL DUP4 LT ISZERO PUSH2 0x27B JUMPI PUSH1 0x1 DUP4 ADD PUSH1 0x3 SSTORE PUSH1 0x3 SLOAD DUP4 LT ISZERO PUSH2 0x610 JUMPI PUSH1 0x3 PUSH0 MSTORE PUSH2 0x69B SWAP3 PUSH32 0xC2575A0E9E593C00F959F8C92F12DB2869C3395A3B0502D05E2516446F71F85B ADD PUSH2 0x1ABB JUMP JUMPDEST ISZERO PUSH2 0x2082 JUMPI JUMP JUMPDEST PUSH1 0x40 MLOAD PUSH3 0x461BCD PUSH1 0xE5 SHL DUP2 MSTORE PUSH1 0x20 PUSH1 0x4 DUP3 ADD MSTORE PUSH1 0xD PUSH1 0x24 DUP3 ADD MSTORE PUSH13 0x10DA1958DACC4811985A5B1959 PUSH1 0x9A SHL PUSH1 0x44 DUP3 ADD MSTORE PUSH1 0x64 SWAP1 REVERT JUMPDEST SWAP1 PUSH2 0x100 SWAP3 PUSH1 0x20 SWAP2 ADD ADD CALLDATACOPY JUMP JUMPDEST SWAP1 PUSH1 0x80 SWAP3 PUSH1 0x20 SWAP2 ADD ADD CALLDATACOPY JUMP JUMPDEST SWAP2 SWAP1 SWAP2 DUP1 SLOAD PUSH1 0x1 DUP2 AND ISZERO PUSH2 0x176 JUMPI PUSH2 0x100 SWAP1 PUSH0 NOT ADD PUSH1 0x1 SHR SUB PUSH2 0x176 JUMPI PUSH2 0x100 SWAP2 PUSH1 0x7 SWAP2 PUSH0 MSTORE PUSH1 0x20 PUSH0 KECCAK256 SWAP4 ADD SWAP3 DUP1 SLOAD PUSH1 0x20 DUP6 ADD MSTORE PUSH1 0x1 DUP2 ADD SLOAD PUSH1 0x40 DUP6 ADD MSTORE PUSH1 0x2 DUP2 ADD SLOAD PUSH1 0x60 DUP6 ADD MSTORE PUSH1 0x3 DUP2 ADD SLOAD PUSH1 0x80 DUP6 ADD MSTORE PUSH1 0x4 DUP2 ADD SLOAD PUSH1 0xA0 DUP6 ADD MSTORE PUSH1 0x5 DUP2 ADD SLOAD PUSH1 0xC0 DUP6 ADD MSTORE PUSH1 0x6 DUP2 ADD SLOAD PUSH1 0xE0 DUP6 ADD MSTORE ADD SLOAD SWAP2 ADD MSTORE JUMP INVALID PUSH20 0xEDA753299D7D483339D80809A1D80553BDA402FF INVALID JUMPDEST INVALID SELFDESTRUCT SELFDESTRUCT SELFDESTRUCT SELFDESTRUCT STOP STOP STOP ADD LOG2 PUSH5 0x6970667358 0x22 SLT KECCAK256 0xE9 SUB 0xE8 PC 0xB0 BALANCE PUSH28 0x17630256977DAFE66E4FEDE903C959E0DE141B234DCD5D1CEC64736F PUSH13 0x634300081F0033290DECD9548B PUSH3 0xA8D603 GASLIMIT 0xA9 DUP9 CODESIZE PUSH16 0xC84BA6BC95484008F6362F93160EF3E5 PUSH4 0x0 "
				},
				"gasEstimates": {
					"creation": {
						"codeDepositCost": "1721000",
						"executionCost": "infinite",
						"totalCost": "infinite"
					},
					"external": {
						"Check(bytes[],bytes[],bytes)": "infinite",
						"CheckKey(bytes,bytes[],uint256)": "infinite",
						"CheckKeyDBE(bytes,bytes[],uint256)": "infinite",
						"CheckTest(bytes[],bytes[],bytes,uint256)": "infinite",
						"EqualPairingCheck(bytes,bytes,bytes,bytes)": "infinite",
						"G1Add(bytes,bytes)": "infinite",
						"G1Mul(bytes,uint256)": "infinite",
						"G1Muls(bytes)": "infinite",
						"G2Add(bytes,bytes)": "infinite",
						"G2Mul(bytes,uint256)": "infinite",
						"G2Muls(bytes)": "infinite",
						"Pairing(bytes,bytes,bytes,bytes)": "infinite",
						"SendMessage(bytes)": "infinite",
						"SetPP(bytes[],bytes[])": "infinite",
						"ZeroCheck(bytes)": "709",
						"lastg()": "infinite",
						"ppg1s(uint256)": "infinite",
						"ppg2s(uint256)": "infinite",
						"w()": "2294"
					},
					"internal": {
						"CopyBytes(bytes calldata,uint256,bytes memory,uint256,uint256)": "infinite",
						"CopyStorageBytes256(bytes storage pointer,bytes memory,uint256)": "infinite",
						"CopyUint(uint256,bytes memory,uint256)": "infinite"
					}
				},
				"methodIdentifiers": {
					"Check(bytes[],bytes[],bytes)": "e86d06c7",
					"CheckKey(bytes,bytes[],uint256)": "51e54308",
					"CheckKeyDBE(bytes,bytes[],uint256)": "06325239",
					"CheckTest(bytes[],bytes[],bytes,uint256)": "c588e555",
					"EqualPairingCheck(bytes,bytes,bytes,bytes)": "6f18b669",
					"G1Add(bytes,bytes)": "4d919405",
					"G1Mul(bytes,uint256)": "c1f2c915",
					"G1Muls(bytes)": "6592041a",
					"G2Add(bytes,bytes)": "d6385d60",
					"G2Mul(bytes,uint256)": "af1d0bd9",
					"G2Muls(bytes)": "3f009c16",
					"Pairing(bytes,bytes,bytes,bytes)": "5cdc73ef",
					"SendMessage(bytes)": "69331a26",
					"SetPP(bytes[],bytes[])": "e63c1828",
					"ZeroCheck(bytes)": "a66339b7",
					"lastg()": "8a2ba01c",
					"ppg1s(uint256)": "54b57f70",
					"ppg2s(uint256)": "e6859b9a",
					"w()": "205c9cc7"
				}
			},
			"storageLayout": {
				"storage": [
					{
						"astId": 16,
						"contract": "Verfiy.sol:Verify",
						"label": "lastg",
						"offset": 0,
						"slot": "0",
						"type": "t_bytes_storage"
					},
					{
						"astId": 1042,
						"contract": "Verfiy.sol:Verify",
						"label": "w",
						"offset": 0,
						"slot": "1",
						"type": "t_bool"
					},
					{
						"astId": 1045,
						"contract": "Verfiy.sol:Verify",
						"label": "ppg1s",
						"offset": 0,
						"slot": "2",
						"type": "t_array(t_bytes_storage)dyn_storage"
					},
					{
						"astId": 1048,
						"contract": "Verfiy.sol:Verify",
						"label": "ppg2s",
						"offset": 0,
						"slot": "3",
						"type": "t_array(t_bytes_storage)dyn_storage"
					}
				],
				"types": {
					"t_array(t_bytes_storage)dyn_storage": {
						"base": "t_bytes_storage",
						"encoding": "dynamic_array",
						"label": "bytes[]",
						"numberOfBytes": "32"
					},
					"t_bool": {
						"encoding": "inplace",
						"label": "bool",
						"numberOfBytes": "1"
					},
					"t_bytes_storage": {
						"encoding": "bytes",
						"label": "bytes",
						"numberOfBytes": "32"
					}
				}
			},
			"userdoc": {
				"kind": "user",
				"methods": {},
				"version": 1
			}
		}
	}
}